:020000040800F2
:10000000680A0020A9880008D97F0008DB7F000863
:10001000DD7F0008DF7F0008E17F000800000000AE
:10002000000000000000000000000000E37F000866
:10003000E57F000800000000E77F00082B5400085F
:100040000D89000811890008158900081989000820
:100050001D890008218900089938000825890008B1
:10006000298900082D890008318900083589000890
:10007000398900083D890008418900084589000840
:10008000498900084D8900085189000855890008F0
:10009000E97F0008598900085D8900089734000845
:1000A0006189000865890008698900086D89000870
:1000B000718900085D570008A3570008758900087A
:1000C000798900087D8900088189000885890008F0
:1000D00089890008EB7F00088D8900089189000854
:1000E00095890008998900089D890008A189000860
:1000F000A5890008A9890008AD890008B189000810
:10010000B5890008B9890008BD890008C1890008BF
:10011000C5890008C9890008CD890008D18900086F
:10012000D5890008F0B587B0040001F0B6F90700E2
:10013000A0208DF803000DF1030201219F2001F0A2
:10014000B1FAB4F900006168484301F053FD0022A0
:10015000DFF8E43801F05CFD01F096FE0500606810
:10016000DFF8D818884204D36068DFF8D4188842D2
:1001700022D36068DFF8CC18884204D36068DFF8C7
:10018000C818884218D36068DFF8C018884204D3C2
:100190006068DFF8C41888420ED36068DFF8BC18C6
:1001A000884204D36068DFF8B818884204D3A321DA
:1001B000DFF89C0801F094FE607B002810D0607B83
:1001C00050280DD0607B10280AD0607B202807D0F3
:1001D000607B302804D0A421DFF8740801F080FE91
:1001E0002069642804D32069DFF86818884204D3A2
:1001F000A521DFF85C0801F073FEDFF8B0080068A5
:1002000040425FF4802190FBF1F04FF400614843DD
:10021000854208DBDFF894080068800C40F2FF712B
:100220004843A84204DAA621DFF8240801F058FE6A
:10023000DFF878080068C00BFF214843A1688842B6
:1002400004D2A721DFF8080801F04AFE6069DFF850
:100250005C180968B0EB114F08D3DFF8500800684C
:100260000F214843800A6169884204D2A821DFF83F
:10027000E00701F035FEFFB2002F00F08E80632012
:1002800001F036FB00208DF800009DF80000FF28EB
:1002900005D09DF80000401C8DF80000F5E701F046
:1002A0002DFEDFF80C080078C0B24008C0B240282C
:1002B000E8D1DFF8F8070068DFF8F817884228D29D
:1002C000002001F083F8DFF8E4070068DFF8E817A2
:1002D000B0FBF1F040F24C4148431A21B0FBF1F081
:1002E000A16981420FD3DFF8C4070068DFF8C8179F
:1002F000B0FBF1F0DFF8C41748431A21B0FBF1F06E
:10030000A16988422FD2BA21DFF8440701F0E8FD45
:1003100029E0012001F05AF8DFF890070068400852
:10032000DFF89417B0FBF1F040F24C4148431A213A
:10033000B0FBF1F0A169814210D3DFF870070068CB
:100340004008DFF87417B0FBF1F0DFF8701748438E
:100350001A21B0FBF1F0A169884204D2BF21DFF875
:10036000F00601F0BDFD622001F0C2FA00208DF818
:1003700000009DF80000FF2805D09DF80000401CFB
:100380008DF80000F5E701F0B9FDDFF824070078EB
:10039000C0B24008C0B20328E8D15FF4802000FB5F
:1003A00005F0DFF808170968B0FBF1F0060030002F
:1003B00080B2001210F00F008DF80A0030008DF8A6
:1003C0000B00A0684002DFF8E41609688909B0FB59
:1003D000F1F0401C8DF80800606802F004F80DF19F
:1003E00002020121A32001F0F2F99DF8020010F0B1
:1003F000FD008DF802000DF102020121A32001F0A1
:1004000051F9606836B2DFF8A416096801FB06F1FD
:1004100010EB9140A168227B02FB0100DFF81C1663
:10042000884210D3606836B2DFF88016096801FB95
:1004300006F110EB9140A168227B02FB0100DFF87E
:10044000001688426AD3606836B2DFF86016096821
:1004500001FB06F110EB9140A168227B02FB010039
:10046000DFF8E015884210D3606836B2DFF83C163A
:10047000096801FB06F110EB9140A168227B02FBA9
:100480000100DFF8C415884248D3606836B2DFF84F
:100490001C16096801FB06F110EB9140A168227B54
:1004A00002FB0100DFF8A415884210D3606836B261
:1004B000DFF8F815096801FB06F110EB9140A1681F
:1004C000227B02FB0100DFF89015884226D360688A
:1004D00036B2DFF8D815096801FB06F110EB914040
:1004E000A168227B02FB0100DFF87015884210D35F
:1004F000606836B2DFF8B415096801FB06F110EB4D
:100500009140A168227B02FB0100DFF8541588426C
:1005100004D3DC21DFF8380501F0E2FC04AA0DF178
:100520001101206900F006FC9DF811008DF81400FF
:10053000607B9DF8101008438DF815000DF1060240
:100540000DF10701606900F0BBFD9DF806009DF804
:10055000071051EA00108DF8160001AA0DF10501EF
:10056000A06900F099FC9DF805009DF8041051EA7F
:1005700000108DF81700FFB2022F02D0FFB2032F38
:100580005AD1DFF828050068DFF89017884205D1B6
:10059000B6208DF80100B6208DF80900DFF80C05B3
:1005A0000068DFF87C17884205D1AC208DF8010087
:1005B000AC208DF80900DFF8F4040068DFF8641758
:1005C000884205D1A3208DF80100A3208DF80900F1
:1005D000DFF8D8040068DFF8DC14884205D13B203E
:1005E0008DF80100B6208DF80900DFF8C00400681E
:1005F000DFF83417884205D136208DF80100AC2091
:100600008DF80900DFF8A4040068DFF8201788429D
:1006100005D131208DF80100A3208DF809000DF1DE
:1006200001020121072001F03DF80690DFF8800467
:10063000BDF81810018032E0DFF870040068DFF8C0
:10064000DC16884206D0DFF864040068DFF8641422
:10065000884202D1B6208DF80900DFF85004006806
:10066000DFF8BC16884206D0DFF840040068DFF8E7
:10067000B816884202D1AC208DF80900DFF82C04AE
:100680000068DFF8A016884206D0DFF82004006872
:10069000DFF89816884202D1A3208DF80900DFF810
:1006A0000C040068DFF8881688420ED3DFF8FC03DC
:1006B00000684008DFF86816884201D3012000E096
:1006C0000020C0B200F02CF80CE0DFF8E003006876
:1006D000DFF84C16884201D3012000E00020C0B2B0
:1006E00000F01EF814F10C0201216C2000F0DAFF7A
:1006F00002AA04210C2000F0D5FF05AA04211A202B
:1007000000F0D0FF0690DFF8A803BDF818100180B4
:10071000012000F0E3FD606800F0D2F907B0F0BD01
:100720001CB5040000208DF80000E4B2002C08D0B5
:10073000E4B2012C05D04FF4D271DFF8140301F0BC
:10074000CFFB00AA0121012001F041F80190DFF860
:100750006003BDF804100180E4B2012C06D19DF8BD
:10076000000050F040008DF8000005E09DF800000A
:1007700010F0BF008DF8000000AA0121012000F058
:1007800091FF0190DFF82803BDF80410018013BD2C
:100790002DE9F843040000208DF8000000208DF8BA
:1007A0000100082500260F27DFF89002844203D3BA
:1007B000DFF88C0284421DD3DFF88802844203D321
:1007C000DFF88402844215D3DFF88002844203D329
:1007D000DFF8840284420DD3DFF88002844203D321
:1007E000DFF87C02844205D340F2DD11DFF86002BD
:1007F00001F076FBDFF84402844206D3DFF84002C2
:10080000844202D2062081461FE0DFF8380284428B
:1008100006D3DFF83402844202D20C20814614E071
:10082000DFF82802844206D3DFF82C02844202D289
:100830001020814609E0DFF82402844205D3DFF866
:100840002002844201D220208146DFF86C02B4FBF2
:10085000F0F05FFA89F909FB00F08046DFF8C8097B
:10086000C08B804504D30F20050001208DF80000C7
:100870009DF8000000283AD1DFF8AC096DB230F8DD
:100880001500804517D3DFF8A0096DB210EB4500C5
:100890004088404506D301208DF8000001208DF8E6
:1008A0000100E5E72E007FB276B2B81B022190FB73
:1008B000F1F04519DCE7DFF870096DB210EB450087
:1008C00030F8020C804503D301208DF80000CFE7FB
:1008D0002F007FB276B2B81B022190FBF1F02D1AE7
:1008E0007FB26DB2AF42C3D100200500C0E79DF8D2
:1008F0000100002815D06DB20F2D12DADFF828099B
:100900006DB230F81500B8EB0000DFF81C196DB2BD
:1009100011EB45014988B1EB080188421BD36D1CDE
:1009200019E09DF80100002815D16DB20F2D12DAE3
:10093000DFF8F4086DB230F81500B0EB0800DFF80E
:10094000E8186DB211EB450131F8021CB8EB01015A
:10095000884200D36D1E6DB2082195FBF1F000FBBB
:100960001150C0B2BDE8F28300B583B000AA0421E3
:10097000082000F02CFF01904D48BDF804100180C4
:100980009DF8000010F01F009DF80110490311EBC5
:1009900040509DF8021010EB41109DF8031010EB31
:1009A000D1000EBD00B583B000AA01210B2000F0DC
:1009B0000EFF0190DFF87808BDF8041001809DF863
:1009C000000010F00700012801D1002010E09DF880
:1009D000000010F00700032801D1012008E09DF875
:1009E000000010F00700042801D1022000E00320DD
:1009F0000EBD00B583B000AA01216C2000F0E7FE17
:100A000001902B48BDF8041001809DF800000EBD38
:100A100000B583B000AA01210C2000F0D8FE01909F
:100A20002348BDF8041001809DF800001F490968A3
:100A30004843C00B0EBD000080842E4180565F2EBF
:100A4000E12F0C3980E40117616A141CC060D211D7
:100A5000A484000831C80700E1D7CE14408FE10814
:100A600061D06F0A1CB500AA02210E2000F0AFFE73
:100A700001900F48BDF8041001809DF800009DF81A
:100A8000011011EB0021080502D551F4704101E07D
:100A90000905090D0C0024B2DFF8F803006800FB1B
:100AA00004F05FF4802290FBF2F016BD54020020A7
:100AB00058020020006CDC0240420F0064350C003C
:100AC0002DE9F04F87B00400DFF86C07844203D3B0
:100AD000DFF8680784421DD3DFF86407844203D33C
:100AE000DFF86007844215D3DFF85C07844203D344
:100AF000DFF8580784420DD3DFF85407844203D34C
:100B0000DFF85007844205D340F25131DFF8240763
:100B100001F0E6F9DFF82007844206D3DFF81C076E
:100B2000844202D2002081461FE0DFF8140784428D
:100B300006D3DFF81007844202D20120814614E078
:100B4000DFF80407844206D3DFF80007844202D2AC
:100B50000220814609E0DFF8F806844205D3DFF879
:100B6000F406844201D203208146FFF77BFF8046D2
:100B7000FFF74EFF0500FFF73CFF060018EB0400EF
:100B8000F6B206FB0500824600F009FC471C00F0A7
:100B900084FC00283AD05FFA89F9B9F1000F2AD015
:100BA000B9F1020F0FD01AD3B9F1030F2ED1DFF82C
:100BB000A806824503D2002001F0D2FC02E0012009
:100BC00001F0CEFC22E0DFF89406824503D200203B
:100BD00001F0C6FC02E0012001F0C2FC16E0DFF8E3
:100BE0008006824503D2002001F0BAFC02E0012019
:100BF00001F0B6FC0AE0DFF86C06824503D2002063
:100C000001F0AEFC02E0012001F0AAFC5046FFF723
:100C1000BFFD8DF810009E485FFA89F919F80000B1
:100C200000FB04F000F0E6FFCDE90201FFB25FF443
:100C3000802000FB07F000F0D3FFCDE900019548CC
:100C4000006800F0D7FF02000B00DDE9000100F0B2
:100C5000DFFFDDE9022301F0B7FC01F02BF9834649
:100C60005FEA5B5010F01F009DF810104901084327
:100C70008DF814005FEA5B308DF815005FEA5B10B9
:100C80008DF81600DFF8A4055FFA89F919F800005D
:100C900050EACB008DF8170005AA0421082000F0C7
:100CA00001FD0090DFF88805BDF80010018001F01B
:100CB00030FA07B0BDE8F08F2DE9F047FFF754FE9A
:100CC0008246FFF76FFE070000F069FB461C5046A6
:100CD00000F090FF804689466E48006800F08AFF69
:100CE00004000D00F6B26A48FFB2385C00FB06F063
:100CF0005FF48021484300F073FF02000B002000E6
:100D0000290000F085FF42464B4601F05DFC01F0F2
:100D10002DFD01F0CFF8BDE8F087000000366E0130
:100D200040787D0180BA8C0180F0FA0200751903C9
:100D300081BA8C012DE9FE4305000E00170000204A
:100D40008DF808000F245FF00009642D03D3DFF84D
:100D50001805854205D34FF47E71DFF8D80401F001
:100D6000BFF800F09AFB002802D000F05CFB81463F
:100D70009DF80800002813D164B2002C10D4DFF8CD
:100D8000EC040068D4F1140119EB01010200CA401F
:100D9000954203D301208DF80800E9E7641EE7E7D8
:100DA00064B2002C02D5002464B200E064B23C704E
:100DB0000120D4F11701884000FB05F0DFF8AC14E6
:100DC000096819F105020B00D340B0FBF3F080462F
:100DD0000020C0B2032829DA5FFA88F8C0B210EB0D
:100DE0000801491E002919D05FFA88F8C0B210EB3B
:100DF0000801FF31DFF87424126819F105039446E5
:100E00003CFA03FC0CFB01F1D4F117020B00D340B8
:100E1000E91A00AAC0B222F8101005E047F6FF71E7
:100E200000AAC0B222F81010401CD2E74FF6FF70A3
:100E30000021C9B2032928DA00AAC9B232F9112067
:100E4000012A04DB00AAC9B232F9112004E000AA89
:100E5000C9B232F91120524280B2824213DA00AA9A
:100E6000C9B232F91120012A04DB00A8C9B230F856
:100E7000110004E000A8C9B230F91100404211EBA2
:100E80000802521E3270491CD3E7BDE8F783000008
:100E9000F4880008540200202DE9FE4F04000D00E4
:100EA000160000208DF8000000208DF801005FF092
:100EB0002C0B5FF000085FF059095FF0010A00F0A9
:100EC000ECFA002808D000F0AEFA002802D0022088
:100ED000824601E001208246DFF8900300685FFA55
:100EE0008AFAB0FBFAF0DFF88813B0FBF1F040F2B9
:100EF0004C4148431A21B0FBF1F0844212D3DFF891
:100F00006C0300685FFA8AFAB0FBFAF0DFF860134E
:100F1000B0FBF1F0DFF85C1348431A21B0FBF1F0AD
:100F2000A04205D240F24C41DFF8080300F0D8FFA0
:100F3000DFF8380300685FFA8AFAB0FBFAF0642140
:100F4000B0FBF1F09DF8001000294ED1DFF8281316
:100F50004FFA8BFB31F81B10414340F62822B1FBBE
:100F6000F2F1A14222D2DFF810134FFA8BFB11EB02
:100F70004B0131F8021C414340F62822B1FBF2F14B
:100F8000A14206D301218DF8001001218DF8011036
:100F9000D8E7D9464FFA89F94FFA88F8B9EB080132
:100FA000022291FBF2F1BBEB010BCBE7DFF8C81299
:100FB0004FFA8BFB11EB4B014988414340F6282245
:100FC000B1FBF2F18C4203D301218DF80010B9E797
:100FD000D8464FFA89F94FFA88F8B9EB080102228E
:100FE00091FBF2F111EB0B0BACE75F460021C9B2AC
:100FF000032927DA7FB2C9B2CA19521E002A05D5C1
:101000007FB2C9B2CA19521E5A2A13DADFF868220F
:101010007FB2C9B2CB1912EB430232F8022C424321
:1010200040F62823B2FBF3F2A21A01ABC9B223F8AF
:10103000112005E047F6FF7201ABC9B223F8112079
:10104000491CD4E74FF6FF710022D2B2032A27DAF7
:1010500001ABD2B233F91230012B04DB01ABD2B2B7
:1010600033F9123004E001ABD2B233F912305B42F3
:1010700089B28B4212DA01ABD2B233F91230012BB2
:1010800004DB01A9D2B231F8121004E001A9D2B2F6
:1010900031F912104942D3195B1E9B46521CD4E70A
:1010A0004FFA8BFB09229BFBF2F232704FFA8BFB5B
:1010B00009229BFBF2F302FB13B22A70BDE8F78F03
:1010C0002DE9FE4305000E00170000208DF80800F2
:1010D00009245FF00008DFF894010068B5EB104FB9
:1010E00007D3DFF8880100680F214843800AA8422F
:1010F00005D240F29C41DFF83C0100F0F1FE00F027
:10110000CCF9002801D018F101089DF8080000284A
:1011100012D164B2002C0FD4DFF85001006818F12E
:101120000F01091B0200CA40954203D301208DF82C
:101130000800EAE7641EE8E764B2002C02D5002448
:1011400064B200E064B23C70D4F10C0018EB000013
:1011500015FA00F0DFF8141109688909B0FBF1F005
:1011600081465FFA89F9B9F1080F01DBB9F1080985
:101170000020C0B2032826DA5FFA89F9C0B210EB6A
:101180000901491E082916DADFF8E0100968890903
:101190005FFA89F9C0B210EB0902D21D5143D4F1B4
:1011A0000C0218EB02020B00D340E91A00AAC0B2ED
:1011B00022F8101005E047F6FF7100AAC0B222F82D
:1011C0001010401CD5E74FF6FF700021C9B203296B
:1011D00028DA00AAC9B232F91120012A04DB00AAD8
:1011E000C9B232F9112004E000AAC9B232F91120C3
:1011F000524280B2824213DA00AAC9B232F91120F7
:10120000012A04DB00A8C9B230F8110004E000A8EC
:10121000C9B230F91100404211EB0902521E32707E
:10122000491CD3E7BDE8F78304880008F888000864
:1012300058020020A484000880565F2EE12F0C394C
:1012400080E40117616A141CC060D211E1D7CE148A
:10125000408FE10861D06F0AE2F49C09C4E93913B8
:10126000068DA2190B1A453331C80700540200201D
:1012700040420F0064350C00647A00081CB504007D
:10128000E4B2002C0ED0E4B2402C0BD0E4B2802C9F
:1012900008D0E4B2C02C05D040F2FF61DFF89C001A
:1012A00000F01EFE00AA0121182000F090FA9DF81F
:1012B000000010F03F008DF800009DF80000204372
:1012C0008DF8000000AA0121182000F0EBF9019030
:1012D000DFF86C00BDF80410018013BD1CB50400DC
:1012E00000208DF80000E4B2002C07D0E4B2012CFD
:1012F00004D04FF4FB61114800F0F2FD00AA012177
:101300001E2000F064FAE4B2012C06D19DF8000022
:1013100050F080008DF8000005E09DF8000010F00E
:101320007F008DF8000000AA01211E2000F0BAF90C
:1013300001900348BDF80410018013BDA484000887
:10134000580200201CB50400E4B2002C07D0E4B21F
:10135000012C04D040F6B131424800F0C1FD00AA92
:1013600001219E2000F033FAE4B2012C06D19DF851
:10137000000050F080008DF8000005E09DF80000AE
:1013800010F07F008DF8000000AA01219E2000F0DF
:1013900089F901903248BDF80410018013BD00B5F1
:1013A00083B000AA01219E2000F011FA01902C4880
:1013B000BDF8041001809DF80000C0B2C009C0B2A1
:1013C000002801D0012000E000200EBD1CB5040063
:1013D000E4B2002C07D0E4B2012C04D040F6E53191
:1013E000204800F07DFD00AA0121B42000F0EFF9B3
:1013F000E4B2012C06D19DF8000010F0F7008DF842
:10140000000005E09DF8000050F008008DF8000095
:1014100000AA0121B42000F045F901901048BDF860
:101420000410018013BD00B583B000AA0121B420CF
:1014300000F0CDF901900A48BDF8041001809DF834
:101440000000C0F3C000C0B2002801D0002000E0BE
:1014500001200EBD044800687047034908607047CA
:1014600058020020A48400085402002000B583B074
:1014700000AA0221F02000F0AAF901900848BDF866
:10148000041001809DF800009DF8011051EA002031
:1014900080B20EBD0349087070470248007870475B
:1014A000580200200501002000B587B001F0F9F9CD
:1014B000DFF80C17C0B251F82000DFF808170860F9
:1014C00001F0EFF9DFF8001711EB4000DFF8FC1630
:1014D000086001F0E6F9DFF8F81611EB8000DFF89C
:1014E000F416086001F0DDF9002853D101214FF412
:1014F000805001F0B4FA0121102001F082FA052297
:101500000F21DFF8D40601F07FFC05220E21DFF861
:10151000C80601F079FC05220D21DFF8BC0601F0B8
:1015200073FC02208DF8040000208DF806000220D4
:101530008DF8070003208DF805004FF4005000904F
:1015400000A9DFF8940601F057FB4FF480400090AB
:1015500000A9DFF8840601F04FFB4FF40040009033
:1015600000A9DFF8740601F047FB4FF480500090AB
:1015700001208DF8040000208DF8060001208DF870
:10158000070003208DF8050000A9DFF84C0601F0E4
:1015900033FB4EE00121012001F033FA052207213F
:1015A000DFF8380601F030FC05220621DFF82C06B2
:1015B00001F02AFC05220521DFF8200601F024FCB9
:1015C00002208DF8040000208DF8060002208DF81E
:1015D000070003208DF805002020009000A9DFF807
:1015E000FC0501F009FB4020009000A9DFF8EC05A4
:1015F00001F002FB8020009000A9DFF8E00501F077
:10160000FBFA1020009001208DF8040000208DF8D6
:10161000060001208DF8070003208DF8050000A9C1
:10162000DFF8B80501F0E8FA01214FF4805001F02D
:1016300016FADFF89005006801F0BAFC4FF48270EA
:10164000ADF80A000020ADF808000020ADF80C004D
:101650000020ADF80E000020ADF810004FF400702F
:10166000ADF812000820ADF814000020ADF8160007
:101670000720ADF8180002A9DFF84805006801F05E
:10168000C4FC0121DFF83C05006801F065FDDFF8CE
:101690003C0500680088DFF83C1509680968088384
:1016A00007B000BD2DE9F04184B004000D00160024
:1016B0000020ADF802000DF1020700208DF80400B3
:1016C0008DF8054072B6DFF8040500680088DFF881
:1016D00004150968096848830020ADF80000BDF8CA
:1016E0000000002805D1BDF80000401CADF8000046
:1016F000F5E75FF00008B8F1020F2BDA0221DFF8FE
:10170000C404006801F076FD0028F7D001A818F89D
:10171000001089B2DFF8AC04006801F058FD012127
:10172000DFF8A004006801F065FD0028F7D0DFF8BD
:101730009404006801F039FDBDF8021080B2D8F1C0
:101740000102D2B2D20090404018ADF8020018F168
:101750000108D0E75FF00008EDB2A8451FDA0221CA
:10176000DFF86004006801F045FD0028F7D018F8A4
:10177000061089B2DFF84C04006801F028FD012151
:10178000DFF84004006801F035FD0028F7D0DFF8ED
:101790003404006801F009FD18F10108DCE70221BA
:1017A000DFF82004006801F025FD0028F7D0DFF8FD
:1017B0001C0400680088DFF81C14096809680883A5
:1017C00062B638880290029804B0BDE8F0812DE935
:1017D000FE4304000D0016000020ADF802000DF1DC
:1017E00002074FF0FF0801208DF804008DF8054036
:1017F00072B6DFF8D80300680088DFF8D8130968EC
:10180000096848830020ADF80000BDF800000028FA
:1018100005D1BDF80000401CADF80000F5E75FF011
:101820000009B9F1020F2BDA0221DFF898030068F2
:1018300001F0E0FC0028F7D001A819F8001089B2E7
:10184000DFF88003006801F0C2FC0121DFF87403B7
:10185000006801F0CFFC0028F7D0DFF868030068CB
:1018600001F0A3FCBDF8021080B2D9F10102D2B29E
:10187000D20090404018ADF8020019F10109D0E7FC
:101880005FF00009EDB2A9451EDA0221CD480068DB
:1018900001F0B0FC0028F8D05FFA88F8414689B220
:1018A000C848006801F093FC0121C648006801F0B7
:1018B000A1FC0028F8D0C348006801F076FC307025
:1018C000761C19F10109DDE70221BE48006801F02C
:1018D00091FC0028F8D0BD4800680088BD4909681F
:1018E0000968088362B6388802900298BDE8FE83D2
:1018F00070B584B004000020ADF802000DF10205BF
:1019000080208DF804008DF8054072B6AF4800685D
:101910000088B0490968096848830020ADF80000D4
:10192000BDF80000002805D1BDF80000401CADF84E
:101930000000F5E70026022E25DA0221A148006802
:1019400001F058FC0028F8D001A8315C89B29D480C
:10195000006801F03CFC01219A48006801F04AFC53
:101960000028F8D09748006801F01FFCBDF802106D
:1019700080B2D6F10102D2B2D20090404018ADF848
:101980000200761CD7E702218E48006801F032FC85
:101990000028F8D08D48006800888E4909680968D9
:1019A000088362B628880290029804B070BDFEB524
:1019B00004000D000020ADF802000DF10206002029
:1019C0008DF80400FF208DF8050072B67F4800688E
:1019D000008880490968096848830020ADF8000044
:1019E000BDF80000002805D1BDF80000401CADF88E
:1019F0000000F5E70027022F25DA02217148006870
:101A000001F0F8FB0028F8D001A8395C89B26D48D4
:101A1000006801F0DCFB01216A48006801F0EAFB84
:101A20000028F8D06748006801F0BFFBBDF802103D
:101A300080B2D7F10102D2B2D20090404018ADF886
:101A400002007F1CD7E70027E4B2A74219DA02217F
:101A50005C48006801F0CEFB0028F8D0795D89B2BF
:101A60005848006801F0B3FB01215648006801F0B6
:101A7000C1FB0028F8D05348006801F096FB7F1C9A
:101A8000E2E702214F48006801F0B4FB0028F8D0DB
:101A90004E48006800884F4909680968088362B6A3
:101AA000308802900298FEBD2DE9F04184B0040018
:101AB0000D000020ADF802000DF10206FF27012005
:101AC0008DF80400FF208DF8050072B63F480068CD
:101AD000008840490968096848830020ADF8000083
:101AE000BDF80000002805D1BDF80000401CADF88D
:101AF0000000F5E75FF00008B8F1020F27DA0221D5
:101B00003048006801F076FB0028F8D001A818F8EA
:101B1000001089B22B48006801F059FB01212948C7
:101B2000006801F067FB0028F8D02648006801F043
:101B30003CFBBDF8021080B2D8F10102D2B2D20053
:101B400090404018ADF8020018F10108D4E75FF0AA
:101B50000008E4B2A0451DDA02211A48006801F02D
:101B600049FB0028F8D0FFB2390089B21548006857
:101B700001F02DFB01211348006801F03BFB002818
:101B8000F8D01048006801F010FB28706D1C18F1A7
:101B90000108DEE702210B48006801F02BFB00285A
:101BA000F8D00A48006800880A490968096808836B
:101BB00062B630880290029804B0BDE8F08100005F
:101BC000C40000203C020020DC8800084402002001
:101BD000D00000204002002000100240000002401F
:101BE000010040F10980F446404200F005F851F050
:101BF00000416047010000BF09D0B0FA80F1884081
:101C0000C91CC1F58461090501EBD021400570476D
:101C10002DE9F04140F2FF7581EA030C0CF0004C15
:101C200015EA11541DBF15EA1357AC42AF42E9E063
:101C3000BC41C1F31301C3F31303801A994143F468
:101C4000801304D2641E4000494180185941C902E2
:101C500041EA5051B1FBF3F603FB1611A2FB0675E6
:101C6000D7EBC020A94102D2761E80185941C90283
:101C700041EA5051B1FBF3FE03FB1E11A2FB0E75AE
:101C8000D7EBC020A94103D2AEF1010E8018594113
:101C9000890241EA9051760546EA8E2EB1FBF3F6B1
:101CA00003FB1611A2FB0675D7EB8020A94102D2D7
:101CB000761E80185941C90241EA50514EEA060E7B
:101CC000B1FBF3F603FB1611A2FB0675D7EBC020A0
:101CD000A94102D2761E80185941C90241EA5051E9
:101CE000B1FBF3F703FB1711A2FB0735D3EBC020C1
:101CF000A94167F100070CBF004247F0010766F3F6
:101D0000D5274FEA1E31B80814F5806414DDBD07ED
:101D100075F1004250EB0E5051EB045111F5801F4C
:101D20005CBF41EA0C01BDE8F0814CF07F6141F0FD
:101D3000E0410020BDE8F081BD076D0840EA0E508B
:101D400041F48011D4F10104B4F120060ADAC4F19F
:101D500020060200E04001FA06F3E1401843B240D9
:101D600015430EE0342C14DCC6F1200445EA40058E
:101D70006D0820FA06F2154321FA06F0A1400D4342
:101D8000002175F1004250F1000051EB0C01BDE85B
:101D9000F08100205FEA0C01BDE8F081CFB9921814
:101DA0005B41B3FA83F704BFB2FA82F6BF190B3F67
:101DB000B7F120062FBF02FA06F3BB40C7F1200699
:101DC00022FA06F638BF3343BA401CB1E419641E48
:101DD0002FE77F4231F00041B1FA81F404BFB0FA3D
:101DE00080F6A4190B3CB4F120062FBF00FA06F1CF
:101DF000A140C4F1200620FA06F638BF3143A040C6
:101E00003C1B16E7AC421ABF05EA1357AF4214E079
:101E100050EA41061CBF52EA4306BFE750EA4107B9
:101E2000304661461CBF41EA0551BDE8F08152EAE7
:101E3000430C08BFC143BDE8F08100204FF40016F9
:101E400016EB410F98BF16EB430F08BF16EB410F7F
:101E500024BFC14305E016EB430F0CBF61464CEABB
:101E60000551BDE8F08150F8041B61B150F8042B16
:101E7000D30744BFA9F101039A180023091F42F8B0
:101E8000043BFAD1EFE77047F446400D40EAC12029
:101E9000490006D200F014F8004248BF6FF000403D
:101EA000604700F00DF84FF0004188428CBF0846B3
:101EB00040426047400D40EAC120490080F00D805B
:101EC00040F00040490DA1F58061491C05D4D1F1D5
:101ED0001F0154BFC840C01770474FF00000704743
:101EE00038B504000D002A002100094801F0BAF9B4
:101EF0002A002100064801F0B5F9F9E780B500AAEB
:101F00000121C020FFF763FC0249086001BD000009
:101F1000C4860008580200202DE9F04F87B0040065
:101F2000DFF8D004844203D3DFF8CC0484421CD30E
:101F3000DFF8C804844203D3DFF8C404844214D316
:101F4000DFF8C004844203D3DFF8BC0484420CD31E
:101F5000DFF8B804844203D3DFF8B404844204D326
:101F60005021DFF8B004FFF7BBFFDFF8880484429C
:101F700006D3DFF88404844202D2002081461FE0A9
:101F8000DFF87804844206D3DFF87404844202D276
:101F90000120814614E0DFF86C04844206D3DFF8A8
:101FA0006804844202D20220814609E0DFF85C0422
:101FB000844205D3DFF85804844201D203208146CD
:101FC000FEF750FD8046FEF723FD0500FEF711FDEC
:101FD000060018EB0400F6B206FB05008346FFF787
:101FE000DEF9471CFFF759FA00283AD05FFA89F961
:101FF000B9F1000F2AD0B9F1020F0FD01AD3B9F1FD
:10200000030F2ED1DFF81004834503D2002000F027
:10201000A7FA02E0012000F0A3FA22E0DFF8FC03B7
:10202000834503D2002000F09BFA02E0012000F07B
:1020300097FA16E0DFF8E803834503D2002000F0AA
:102040008FFA02E0012000F08BFA0AE0DFF8D403F7
:10205000834503D2002000F083FA02E0012000F063
:102060007FFA5846FEF794FB8DF81000FFF7F2F95F
:1020700082462000FFF7BEFDCDE90201FFB2DFF886
:10208000A8035FFA89F919F8000000FB07F05FF474
:1020900080214843FFF7A4FDCDE900015046FFF73A
:1020A000A9FD02000B00DDE90001FFF7B1FDDDE94C
:1020B000022300F089FAFFF7FDFE06900698400D16
:1020C00010F01F009DF81010490108438DF814000E
:1020D0000698400B8DF81500069840098DF81600FB
:1020E0000698DFF848135FFA89F919F8011051EAE8
:1020F000C0008DF8170005AA04210820FFF7D2FAC6
:102100000090DFF82C03BDF80010018007B0BDE897
:10211000F08F2DE9F04782B000275FF00008FFF74D
:1021200099F98146FFF7B9F98246DFF8080381453E
:102130000ED3FFF734F900280AD101200700FEF77B
:10214000BBFD06000120FFF7FDF83000FFF7E4FEBD
:10215000FEF7B2FD060019208DF8000000AA01214B
:10216000A120FFF79FFA012000F074F9FFF7C6FEE7
:10217000DFF8BC020078C0B24008C0B240280DD1E0
:1021800001208046622001F07FF8FFF7B7FEA848E3
:102190000078C0B24008C0B20328F6D1662001F032
:1021A00073F8FFF7ABFEA2480078C0B24008C0B297
:1021B0000F28F6D100F07FF90500622001F064F8E5
:1021C000FFF79CFE9A480078C0B24008C0B20328CE
:1021D000F6D19848814508D35FFA8AFABAF1010F1F
:1021E00003D195488019FFF797FE652001F04CF860
:1021F000FFF784FE8E480078C0B24008C0B20F28B6
:10220000F6D100F058F90400622001F03DF8FFF724
:1022100075FE87480078C0B24008C0B20328F6D1E6
:102220005FFA88F8B8F1010F02D1632001F02CF8B1
:10223000002000F00FF9FFB2002F07D17D48814543
:102240000AD35FFA8AFABAF1010F05D10020FFF72D
:1022500079F83000FFF760FE11208DF8000000AA29
:102260000121A120FFF71EFA2800C0B200F034F9C6
:102270002000C0B200F052F9BDE8F3871CB5FFF7AB
:102280000CF90400E4B2012C18D10020019001984F
:10229000FF2803D20198401C0190F8E710208DF828
:1022A000000000AA0121A820FFF7FCF900208DF80A
:1022B000000000AA0121A820FFF7F4F913BD10B512
:1022C00082B0FFF7EAF80400E4B2012C17D1A8208D
:1022D0008DF8000000AA0121A920FFF7E3F94B20A7
:1022E0008DF8000000AA0121AA20FFF7DBF9FC20ED
:1022F0008DF8000000AA0121AB20FFF7D3F913BD30
:1023000038B54E480078002844D0FFF7A3F8040001
:10231000FFF7C3F80500EDB2012D06D14548844210
:1023200003D347480068FFF7F7FD45480068454973
:10233000884208D3424800684349884203D2C020FB
:10234000FEF79CFF13E0EDB2032D0DD13C48006871
:102350003E49884208D33A4800683D49884203D242
:102360008020FEF78BFF02E00020FEF787FF1120A0
:102370008DF8000000AA0121A920FFF793F9202081
:102380008DF8000000AA0121A520FFF78BF900209D
:102390002A49087031BD38B528480078012821D075
:1023A000FFF758F80400FFF778F80500EDB2012DAB
:1023B0000AD12048844207D3214800681E490818E2
:1023C000FFF7AAFDFFF77BFF90208DF8000000AA21
:1023D0000121A520FFF766F90020FEF74FFF01203D
:1023E0001649087031BD0221144A11701449086061
:1023F0007047000080565F2EE12F0C3980E40117F2
:10240000616A141CC060D211E1D7CE14408FE1087C
:1024100061D06F0AF4800008E2F49C09C4E9391322
:10242000068DA2190B1A4533F0880008EC880008C5
:102430005802002081BA8C012C54070006010020AC
:102440005002002080D1F00881A1031CC0557033D8
:102450008125DB331CB50400E4B2002C06D0E4B2C5
:10246000012C03D08F215648FFF73AFD00AA012125
:102470005020FFF7ACF901905248BDF804100180DC
:10248000E4B2012C06D19DF8000050F002008DF856
:10249000000005E09DF8000010F0FD008DF8000040
:1024A00000AA01215020FFF7FDF801904548BDF832
:1024B0000410018013BD00B583B000AA0121E520FE
:1024C000FFF785F901903F48BDF8041001809DF8A1
:1024D000000010F07F000EBD1CB5040000AA012111
:1024E0006E20FFF774F901903648BDF804100180A2
:1024F0009DF8000010F080008DF800009DF80000AD
:1025000020438DF8000000AA01216E20FFF7CAF8D1
:1025100001902C48BDF80410018013BD1CB50400C7
:1025200000AA01216F20FFF752F901902548BDF85C
:10253000041001809DF8000010F080008DF800006C
:102540009DF8000020438DF8000000AA01216F20B3
:10255000FFF7A8F801901B48BDF80410018013BDD7
:1025600010B582B00400E4B2002C07D0E4B2012C14
:1025700004D04FF4CF711248FFF7B2FC00AA01213A
:102580009E20FFF724F99DF8000010F0F9008DF867
:102590000000E4B2012C06D19DF8000050F00200CA
:1025A0008DF8000005E09DF8000050F004008DF863
:1025B000000000AA01219E20FFF774F813BD00005F
:1025C0006880000858020020B0B581EA030C0CF0C6
:1025D000004C40F2FF7515EA11541DBF15EA135760
:1025E000AC42AF4239E0E41923EA455343F4801387
:1025F000C90241F0004141EA505EC7021100A7FB49
:10260000020200284FF00000EEFB01204FF0000115
:10261000E3FB072118BF42F00102401800214941A5
:10262000E3FB0E01A4F580640F0302D25200404187
:10263000494154F101046CDD470872F1004250F148
:10264000000051EB0451A1F580115CBF41EA0C017F
:10265000B0BD4CEA05510020B0BD05EA1357AC42AD
:1026600014BFAF4241E050EA410E1CBF52EA430E94
:1026700002E061460020B0BD24423C441BD15FEA29
:10268000070EF6D0090302BF01460020AEF1140E7A
:10269000B1FA81F7AEEB070401FA07FE0C37C7F178
:1026A000200100FA07F7C8404EEA000E23EA45531E
:1026B00043F48013A2E733F00043B3FA83F704BF77
:1026C000B2FA82FE77440B3FE41BB7F1200E2FBF16
:1026D00002FA0EF3BB40C7F1200E22FA0EFE38BFFD
:1026E00043EA0E03BA40641C82E750EA410E14BF6D
:1026F00052EA430E6FF000014FF4001717EB430F3F
:102700008ABF194617EB410FB5E74CEA0551002087
:10271000B0BDD4F10104B4F120070FDAC4F12007F1
:10272000520828BF42F0010210FA07F501FA07F734
:10273000E1BF2A43E0403843E1400FE0352C98DC0C
:10274000C7F1200452EA400220FA07F218BF42F013
:10275000010231FA07F0A1400A43002172F1004260
:1027600050F1000051EB0C01B0BD030383B5012112
:1027700000A800F0D1FD401E012811D9002100A8B9
:1027800000F0CAFD60B10198DDE90023002847BFD1
:10279000002005490020054900F0FEFDCDE90001BB
:1027A000DDE9000103B000BD0000F0BF0000F03F14
:1027B000E0B50121102000F024F901208DF8080077
:1027C00000208DF80B0003208DF8090000208DF803
:1027D0000A000220019001A9334800F00DFA3348A5
:1027E000008850F002003149088000208DF8000078
:1027F0009DF80000002805D19DF80000401C8DF8D0
:102800000000F5E72A480088800703D50020294901
:10281000087035E00121082000F0F3F80420019051
:1028200001A9254800F0E8F92448008850F0040088
:102830002249088000208DF800009DF80000002843
:1028400005D19DF80000401C8DF80000F5E71C48FC
:102850000088400703D501201649087002E00220D5
:102860001449087000208DF8080001A9124800F0F2
:10287000C3F9124800884FF6FB7108400F490880E1
:102880000220019000208DF8080001A9064800F000
:10289000B3F9064800884FF6FD71084003490880E7
:1028A00007BD044800787047001002401410024031
:1028B0001010024004010020000C0240140C0240E1
:1028C000100C0240F0B40021002200230024002557
:1028D0000026DFF8E8723F6817F00C0739000F0098
:1028E000002F06D0042F15D0082F17D00C2F19D089
:1028F00042E0DFF8D0723F68C7F342373E0001275D
:1029000016F1010C17FA0CF74FF4004C0CFB07F70B
:10291000076041E0DFF8B07207603DE0DFF8AC72BD
:10292000076039E0DFF894723F6817F470173A00D7
:10293000DFF888723F6817F440073B00DFF89072B9
:10294000920CD25D9B0D5B1CDFF870723F6817F430
:1029500080373C00002C07D1DFF86C7207FB02F7D0
:10296000B7FBF3F7076006E0DFF8607207FB02F7DA
:10297000B7FBF3F707600FE0DFF848723F68C7F373
:1029800042373E00012716F1010C17FA0CF74FF4FD
:10299000004C0CFB07F70760DFF820723F6817F068
:1029A000F00739000909DFF82C72CF5D3D00076898
:1029B000BC463CFA05FCC0F804C0DFF800723F6872
:1029C00017F4E0673900090ADFF80872CF5D3D00AF
:1029D0004768BC463CFA05FCC0F808C0DFF8DC716B
:1029E0003F6817F460573900C90ADFF8E871CF5D16
:1029F0003D004768BC463CFA05FCC0F80CC0F0BC82
:102A0000704738B504000D00DFF8CC01044201D155
:102A1000002C05D140F22F41DFF8A40101F021F88C
:102A2000EDB2002D08D0EDB2012D05D04FF4866136
:102A3000DFF88C0101F015F8EDB2002D07D0DFF8BA
:102A40009C0100682043DFF89411086006E0DFF87D
:102A50008C010068A043DFF88411086031BD38B5EF
:102A600004000D00DFF87801044201D1002C05D1EB
:102A700040F25141DFF8480100F0F3FFEDB2002DC4
:102A800008D0EDB2012D05D040F25241DFF83001FF
:102A900000F0E7FFEDB2002D07D0DFF84801006835
:102AA0002043DFF84011086006E0DFF838010068D5
:102AB000A043DFF83011086031BD38B504000D00C7
:102AC000DFF82401044201D1002C05D140F27C4101
:102AD000DFF8EC0000F0C5FFEDB2002D08D0EDB23C
:102AE000012D05D040F27D41DFF8D40000F0B9FFA0
:102AF000EDB2002D07D0DFF8F40000682043DFF8C6
:102B0000EC10086006E0DFF8E4000068A043DFF89E
:102B1000DC10086031BD38B504000D00DFF8C000DE
:102B2000044201D1002C04D140F2BC41244800F001
:102B300098FFEDB2002D07D0EDB2012D04D040F288
:102B4000BD411F4800F08DFFEDB2002D07D0DFF82A
:102B5000A00000682043DFF89810086006E0DFF866
:102B600090000068A043DFF88810086031BD38B5D8
:102B700004000D001C48044201D1002C04D140F295
:102B8000E4410F4800F06DFFEDB2002D07D0EDB22B
:102B9000012D04D040F2E541094800F062FFEDB29A
:102BA000002D05D01348006820431249086004E056
:102BB00010480068A0430F49086031BD0838024042
:102BC000807D0008043802400024F40000127A00DE
:102BD000DC000020B4000020C06FFFFE1C38024063
:102BE000E2ADFFFF20380240C8B5194F243802403B
:102BF00014380240183802402DE9F04104000D005D
:102C0000002600275FF00008DFF88803844218D010
:102C1000DFF88403844214D0DFF88003844210D0AC
:102C2000DFF87C0384420CD0DFF87803844208D0BC
:102C3000DFF87403844204D0C121DFF8700300F090
:102C400010FF2868002804D1C221DFF8600300F0DB
:102C500008FF287900280DD0287901280AD0287982
:102C6000022807D02879032804D0C321DFF83C03C9
:102C700000F0F7FEE87900280AD0E879012807D0AB
:102C8000E879022804D0C421DFF8200300F0E9FE2F
:102C900000200600102E65D20120B04007002868F1
:102CA00038408046B8455BD1206803213200D2B25B
:102CB0005200914088432060206829793200D2B2C6
:102CC00052009140084320602879012802D02879D9
:102CD000022835D1687900280DD0687901280AD0FA
:102CE0006879022807D06879032804D0D821DFF852
:102CF000BC0200F0B6FEA06803213200D2B252003E
:102D000091408843A060A06869793200D2B2520035
:102D100091400843A060A879002807D0A87901282D
:102D200004D0DF21DFF8840200F09BFEA08801219F
:102D3000B1408843A080A088A979B1400843A08011
:102D4000E06803213200D2B2520091408843E06033
:102D5000E068E9793200D2B2520091400843E06065
:102D6000761C97E7BDE8F08138B504000D00DFF868
:102D70002402844219D0DFF82002844215D0DFF803
:102D80001C02844211D0DFF8180284420DD0DFF813
:102D90001402844209D0DFF81002844205D04FF4B7
:102DA000C471DFF8080200F05CFEADB2002D05D161
:102DB00040F28911DFF8F40100F053FE258331BDA4
:102DC00038B504000D007348844213D07248844221
:102DD00010D0724884420DD0714884420AD07148A4
:102DE000844207D07048844204D040F29B116F485F
:102DF00000F037FEADB2002D04D14FF4CE716B4818
:102E000000F02FFE658331BD2DE9F04104000D0077
:102E1000160000275FF000085E48844213D05E4829
:102E2000844210D05D4884420DD05D4884420AD06F
:102E30005C48844207D05C48844204D040F20921B7
:102E40005A4800F00EFEADB2002D31D0ADB2012DCA
:102E50002ED0ADB2022D2BD0ADB2032D28D0ADB205
:102E6000042D25D0ADB2052D22D0ADB2062D1FD038
:102E7000ADB2072D1CD0ADB2082D19D0ADB2092DC1
:102E800016D0ADB20A2D13D0ADB20B2D10D0ADB20D
:102E90000C2D0DD0ADB20D2D0AD0ADB20E2D07D038
:102EA000ADB20F2D04D040F20A21404800F0D9FD08
:102EB000F6B2002E46D0F6B2002E43D0F6B2002E67
:102EC00040D0F6B2002E3DD0F6B2002E3AD0F6B287
:102ED000002E37D0F6B2012E34D0F6B2022E31D009
:102EE000F6B2022E2ED0F6B2032E2BD0F6B2032E5F
:102EF00028D0F6B2032E25D0F6B2042E22D0F6B298
:102F0000042E1FD0F6B2052E1CD0F6B2052E19D015
:102F1000F6B2072E16D0F6B2072E13D0F6B2072E51
:102F200010D0F6B20A2E0DD0F6B20B2E0AD0F6B2A1
:102F30000E2E07D0F6B20F2E04D040F20B211B4804
:102F400000F08FFDF6B215F00700C0B2800016FA4F
:102F500000F00700ADB2E81014EB8000ADB2E9104C
:102F600014EB8101096A0F2215F00703DBB29B0005
:102F70009A4091430162ADB2E81014EB8000006A00
:102F800038438046ADB2E81014EB8000C0F82080D2
:102F9000BDE8F08100000240000402400008024049
:102FA000000C02400010024000140240E87C0008BF
:102FB00010B50400DFF8A002844208D0DFF89C02BC
:102FC000844204D08D21DFF8980200F04AFDDFF83A
:102FD000880284420AD101214FF48050FFF79BFD03
:102FE00000214FF48050FFF796FD0DE0DFF86C02F2
:102FF000844209D101214FF48040FFF7B8FD002140
:103000004FF48040FFF7B3FD10BD70B504000D0014
:103010000026DFF84402844208D0DFF840028442F0
:1030200004D0AF21DFF8380200F01BFD288800280B
:1030300010D02888B0F5806F0CD02888B0F5004FEC
:1030400008D02888B0F5404F04D0B221DFF8100234
:1030500000F007FD6888B0F5827F07D068880028F7
:1030600004D0B321DFF8F80100F0FBFCA888B0F52C
:10307000006F07D0A888002804D0B421DFF8E00151
:1030800000F0EFFCE888002807D0E888022804D088
:10309000B521DFF8CC0100F0E4FC2889002807D036
:1030A0002889012804D0B621DFF8B40100F0D9FC4A
:1030B0006889B0F5007F07D06889002804D0B7215F
:1030C000DFF89C0100F0CDFCA889002819D0A88960
:1030D000082816D0A889102813D0A889182810D03D
:1030E000A88920280DD0A88928280AD0A8893028A6
:1030F00007D0A889382804D0B821DFF8640100F08F
:10310000B0FCE889002807D0E889802804D0B921DC
:10311000DFF84C0100F0A5FC288A002804D1BA2170
:10312000DFF83C0100F09DFC2088060016F44156B3
:10313000288869880843A9880843E98808432989B9
:10314000084369890843A9890843E9890843064374
:103150002680288A208270BD38B504000D00DFF873
:10316000F800844208D0DFF8F400844204D0FB2148
:10317000DFF8EC0000F075FCEDB2002D07D0EDB2E9
:10318000012D04D0FC21DFF8D80000F06AFCEDB27C
:10319000002D04D0208850F04000208004E02088DA
:1031A0004FF6BF710840208031BD10B50400DFF834
:1031B000A800844209D0DFF8A400844205D04FF46F
:1031C000C671DFF89C0000F04CFCA08910BD38B53A
:1031D00004000D00DFF88000844209D0DFF87C0095
:1031E000844205D040F29B11DFF8740000F039FCF6
:1031F000A58131BD70B504000D000026164884423B
:1032000007D01648844204D040F2EB21144800F065
:1032100028FCADB2802D13D0ADB2402D10D0ADB290
:10322000202D0DD0ADB2102D0AD0ADB2022D07D099
:10323000ADB2012D04D04FF43B71094800F011FCF0
:103240002089284202D00120060001E0002006006B
:103250003000C0B270BD00000030014000380040B6
:10326000187E00080EB400B582B003A90091024692
:1032700000AB0121034878440A3000F033FC06BC5F
:103280005DF810FBFD55000010B582B00400E4B2FB
:10329000602C33D0E4B2612C30D0E4B2622C2DD05B
:1032A000E4B2632C2AD0E4B2642C27D0E4B2652CBB
:1032B00024D0E4B2662C21D0E4B2672C1ED0E4B254
:1032C000682C1BD0E4B2692C18D0E4B26A2C15D05B
:1032D000E4B26B2C12D0E4B26C2C0FD0E4B26D2CA3
:1032E0000CD0E4B2702C09D0E4B2712C06D0E4B258
:1032F000722C03D06B210648FEF7F2FD2000C0B20D
:10330000FEF7F6FA00900348BDF80010018013BDE7
:1033100080810008580200204268C2F30A5240F23D
:10332000FF739A4209D14168090304BF006800286D
:1033300001D1012070470220704743685B0004BF41
:103340000368002B25D040F233439A1A521A012AFF
:103350001FDB352A06DB416801F000414160002196
:10336000016013E0012102F01F039940491E9206FB
:1033700007D5426811404A4042600268114300226A
:1033800002E0026811404A40026011B14FF0FF3084
:103390007047002070470001F0B44FF0004591EAFB
:1033A000030C44BF6B4001F07FBA00BF841A71EB7D
:1033B000030603D2001BB141121973414FF4001CE4
:1033C0001CEB410F34BF7CEB430443E00C0DA4EB3A
:1033D0001356352E50DC45EAC323DB0A45EAC121EA
:1033E000C912B6F120050DDD63FA05F6EB4086EA59
:1033F0000305124218BF45F00105C01851F1000144
:103400000CD213E062FA06F5F2405540F3415A40FF
:10341000B340F3405A408018594107D349085FEA46
:1034200030005FEA350528BF45F0010501F5801140
:10343000420875F1004250F1000041EB0451F0BC2C
:103440004FF4001C1CEB410F38BF70470020090DE2
:10345000090570471CEB410F10D252EA43060BD00E
:10346000BCEB410F05D80C0DAB43661E342EB5DD09
:1034700002E0AB4380185941F0BC7047F0BC704784
:10348000012110F01F029140DFF8EC2540B2430902
:1034900042F82310704710B5202001F02EFB0028C1
:1034A00000F0C780DFF8D40501F054FCDFF8CC054C
:1034B000007810F00100002800F09D8001F076FCFB
:1034C000DFF8BC150870DFF8BC15DFF8B40500782C
:1034D000FEF7EAFA7120FFF7D7FE002001F0E6FCC4
:1034E000FEF759FF6120FFF7CFFEFEF7C7FEDFF8BA
:1034F00094050078DFF8901508700120DFF880153A
:103500000978491E88420BDADFF87C150978DFF864
:103510007425825C5140DFF870251170401CEDE786
:10352000DFF864050078DFF85C15DFF854251278C1
:10353000511811F8011C88425DD100F033FA512175
:10354000DFF8480501F0D9FD8021DFF8400501F0E2
:1035500077FE0028F8D0DFF8280500780A2190FBD4
:10356000F1F201FB12003030DFF824150870DFF8AB
:10357000100500780A2190FBF1F03030DFF81415C7
:103580000870DFF81005017889B2DFF8000501F056
:10359000B4FD8021DFF8F40401F052FE0028F8D0D9
:1035A000DFF8EC04017889B2DFF8E00401F0A5FD52
:1035B0008021DFF8D80401F043FE0028F8D0002471
:1035C000DFF8BC040078E4B2844214D2DFF8B4041B
:1035D000E4B2215C89B2DFF8B40401F08EFD8021F1
:1035E000DFF8A80401F02CFE0028F8D0012001F03B
:1035F0005DFC641CE4E7DFF884040078C0F380001D
:10360000C0B2002806D00120DFF88C140870012019
:1036100001F04CFCDFF864040078C0F34010C0B245
:10362000002803D00120DFF870140870202001F07A
:10363000BCFA10BD10B582B041F2707001F009FF04
:103640007220FFF721FEDFF854146020FEF7AFF977
:1036500000AA0121E620FEF7BAF80400FEF750FEAA
:103660006020FFF711FE01F0B2FBDFF834140870A0
:1036700000AA0121E620FEF7AAF804001C2001F0B0
:10368000E8FE00AA0121E620FEF7A1F80400DFF819
:10369000EC0301F05FFBDFF8000400780028FAD0AB
:1036A0003C20DFF8001408600020DFF8FC130860FD
:1036B0000020DFF8E81308700020DFF8DC13087042
:1036C0000020DFF8E813086013BD80B5142001F076
:1036D000C0FE7220FFF7D8FDDFF8D4130720FEF7F5
:1036E00066F9FEF70DFE6020FFF7CEFD142001F015
:1036F000B0FE01BD80B500215FF0006001F01AFF4F
:1037000001214FF48040FFF7AAF901210120FFF7C2
:10371000D4F901211F20FFF774F9FFF749F801F0F0
:103720008FFE042001F020FF002001F063FB012048
:1037300001F060FB0221012001F044FFFDF7B4FE1F
:1037400000F066F801F0D4FF01F0D9FF02F0F8FABA
:103750000121002001F036FF01230F220F2100205C
:1037600001F0B2FFDFF84C0302F010FBDFF8480372
:10377000FCF7D8FCDFF8440302F08EFCDFF84003CE
:1037800002F00DFEBD4801F02DFA0121022001F0EA
:103790003DFA0121012001F039FA0121042001F054
:1037A00035FA602002F08FFE002002F0E7FE0120D3
:1037B00002F0B0FE01F0E9FAC24802F027FF022051
:1037C00002F0E6FF01F0E1FAFEF7E5FD6120FFF708
:1037D0005BFDFEF753FDBC48006841F28931884229
:1037E0000ADB0020B8490860FFF76FFFAF480068A8
:1037F000012801D1FFF71EFFB34800686528EADB06
:10380000FEF7C9FD6120FFF73FFDFEF737FDE2E758
:1038100000B587B04FF4C060009002208DF804001E
:1038200003208DF8050000208DF8070000208DF89A
:10383000060000A9A548FFF7DFF907220921A348E0
:10384000FFF7E2FA07220A21A048FFF7DDFA5FF44A
:10385000E13002900020ADF80C000020ADF80E0021
:103860000020ADF810000C20ADF812000020ADF8DB
:1038700014000121854801F011FC02A9834801F0E0
:1038800035FB012240F22551804801F059FC2520EA
:10389000FFF7F6FD07B000BD80B5012080F310886A
:1038A000012001F082F9002080F3108801BDF0B5FD
:1038B0000022002300240025002642F21077B0FBEE
:1038C000F7FC07FB1C074FF47A7CB7FBFCFE0CFBF4
:1038D0001E775FF0640CB7FBFCFE0CFB1E775FF0FD
:1038E0000A0CB7FBFCFE0CFB1E773A0092B2871A5B
:1038F0005FF00A0CB7FBFCF74FF47A7CB7FBFCFED9
:103900000CFB1E775FF0640CB7FBFCFE0CFB1E7714
:103910005FF00A0CB7FBFCFE0CFB1E773B009BB272
:10392000C71A92B2BF1A5FF0640CB7FBFCF75FF0E6
:10393000640CB7FBFCFE0CFB1E775FF00A0CB7FBB8
:10394000FCFE0CFB1E773C00A4B2071B9BB2FF1AC7
:1039500092B2BF1A4FF47A7CB7FBFCF75FF00A0C07
:10396000B7FBFCFE0CFB1E773D00ADB2471BA4B2BB
:103970003F1B9BB2FF1A92B2BF1A42F2107CB7FBF8
:10398000FCF73E0012F130070F8113F13007CF80B2
:1039900014F130078F8015F130074F8016F1300792
:1039A0000F80F0BD38B502F01EFE143802F066FF3D
:1039B0005FF0804102F07CFF02F0F8FF0022444BF0
:1039C000FFF7EAFC03F01AF804004248210003F074
:1039D0005DF804002000002103F0C4F804D23E4842
:1039E000210003F053F804003C490D00200003F0CF
:1039F000CBF82900FFF75BFF42203849488164205B
:103A0000364908812D2035490880344840883028BF
:103A100005D12D203149488020203049088053218C
:103A20001A4801F06AFB8021184801F009FC0028BF
:103A3000F9D00025EDB2062D0EDA2848EDB230F8A7
:103A40001510124801F059FB8021104801F0F8FBD5
:103A50000028F9D06D1CEDE745210C4801F04DFB25
:103A600031BD38B504000D002A0021001C48FFF7C5
:103A7000F9FBFEE70000000000E100E02402002066
:103A800060020020080100205E0200200038014092
:103A90005C0200205D0200205F020020DC010020AB
:103AA00061020020FC000020280200202C020020DF
:103AB00000000020F800002060000020940000209A
:103AC000E800002000803B45480200200000024042
:103AD00000005EC000002041000080BF18020020EE
:103AE000948600082DE9F04FA1B0804600201746CB
:103AF0001D4602910B900DF1440A6FF000490AE057
:103B000017F8011B0298C0470028029000F0AB8212
:103B10000B98401C0B90387808B90B98A5E2252823
:103B2000EED10020059006900790089009900A9029
:103B300001E040F0010017F8011F2029F9D02329E6
:103B40000DD02B2904D02D2906D030290AD00CE025
:103B500040F0020080B2EEE740F00400FAE740F0E7
:103B60000800F7E740F01000F4E72A290ED1296891
:103B7000296051F8042B2960002A0D9204D5514286
:103B800040F004000D9180B27F1C11E000210D91E6
:103B900009E00D99494505D001EB810302EB430192
:103BA00030390D917F1C3A78A2F130010A29F0D307
:103BB00039782E2903D04FF0FF310C911DE017F812
:103BC000011F2A2907D1296829607F1C51F8042B7D
:103BD00029600C9211E000210C9109E00C994945F3
:103BE00005D001EB810302EB430130390C917F1CBE
:103BF0003A78A2F130010A29F0D3ADF838000FF677
:103C00007840397802F0D2FF08B117F8010B8DF82F
:103C10003A009DF83A00682802BF39786829622086
:103C200005D06C2804BF38786C2803D171208DF83A
:103C30003A007F1C11A8049017F8014BB4F125003D
:103C400029D01C3800F0C280001F022840F2BE803C
:103C5000133800F0E380093800F0B880801E00F0CF
:103C60004A81401E00F02381401E022840F2AE80AF
:103C7000001F00F01C81401F79D0401E00F0CE8054
:103C8000401E24D0C01E0BD0801E00F0C780C01E76
:103C900000F0C48039E125208DF8440001203DE189
:103CA0002868286050F8046B286003960C9C002C50
:103CB00004D5304602F086FF044606E02246002185
:103CC000304602F09BFF00B1841B069427E129686F
:103CD00029603C2451F8040B29600021CDE9000142
:103CE00011A80390DDE90001049E11B908B90C9AEE
:103CF000B2B10206120FA0EB02123032D2B2631E32
:103D00003A2AA8BF2732000940EA017009099A55EA
:103D100008BF00281C4603D0039AA3199A42E8D38F
:103D2000A0190390C4F13C010C980691814209DA74
:103D3000401A08904FF6EF71BDF838000840ADF812
:103D40003800ECE0002840F1EA809DF8380000F0EF
:103D50001400102840F0E3800D98059A801A089A04
:103D6000801A441A012CC0F2DA800894D7E09DF83A
:103D70003A0062281AD0682806D06A280CD06C282D
:103D80001CD0712808D019E02868286050F8041B5E
:103D900028600B980880C2E02868286050F8042B3F
:103DA00028600B98C117C2E90001B8E028682860B4
:103DB00050F8041B28600B980870B0E02868286051
:103DC00050F8041B28600B980860A8E02868C01D04
:103DD00020F007022A60D2E9000108322A60CDE90A
:103DE0000001002902D505982D210AE0BDF8380010
:103DF000810702D505982B2103E0C00705D505985A
:103E0000202100F80A10401C059011A805990818F7
:103E10000390214600A800F0E5F980E09DF83A0003
:103E20006C280DD0712818BF6A2809D12868C01DD8
:103E300020F007022A60D2E9000108322A6005E07A
:103E40002968296051F8040B29600021CDE900019F
:103E50009DF83A00682803D1DDE9000180B20BE04B
:103E6000622803D1DDE90001C0B205E0742818BF63
:103E70007A2804D1DDE900010021CDE900019DF897
:103E8000380000072ED5DDE90001002908BF002811
:103E900028D044F02000782824D10598302100F85B
:103EA0000A10401C411C059100F80A401AE09DF8D8
:103EB0003A00294600F0DCF8CDE90001002902DAD9
:103EC00005982D210AE0BDF83800810702D5059834
:103ED0002B2103E0C00705D50598202100F80A1022
:103EE000401C059011A8059908180390214600A8C8
:103EF00000F0F5F813E0012005902868286050F8DC
:103F0000041B28608DF8441009E025208DF844003A
:103F1000012005901CB18AF80140022005900D98FF
:103F20000599401A0899401A0699401A0999401AA9
:103F30000799401A0A99441A9DF83800400710D48E
:103F400020208DF84000002609E0012310AA00A9D6
:103F5000404600F07AFC002840F08580761CA6429E
:103F6000F3DB059E0DF1440B0AE01BF8011B0298E0
:103F7000C0470028029076D00B98401C0B90761E0C
:103F8000002EF2D130208DF840004FF0000B089E3B
:103F900009E0012310AA00A9404600F056FC0028C1
:103FA00061D10BF1010BB345F3DB069EDDF80CB0DC
:103FB0000AE01BF8011B0298C0470028029052D06B
:103FC0000B98401C0B90761E002EF2D130208DF8FD
:103FD00040004FF0000B099E09E0012310AA00A940
:103FE000404600F032FC00283DD10BF1010BB345F7
:103FF000F3DB03980699079E01EB000B09E01BF821
:10400000011B0298C047029068B30B98401C0B90AC
:10401000761E002EF3D130208DF840004FF0000BBB
:104020000A9E08E0012310AA00A9404600F00DFCFA
:10403000C8B90BF1010BB345F4DB9DF8380040071C
:104040007FF569AD20208DF84000002600E0761C49
:10405000A642BFF660AD012310AA00A9404600F0B9
:10406000F4FB0028F3D04FF0FF3021B0BDE8F08F13
:10407000622826D068281DD06A2808D06C2827D04E
:10408000712804D0742823D07A280CD020E0086846
:10409000C01D20F007000860D0E900230830086048
:1040A0001946104670470A680A6052F8040B0A6005
:1040B000002170470A680A6052F8040B0A6000B2D7
:1040C0000BE00A680A6052F8040B0A6040B204E090
:1040D0000A680A6052F8040B0A60C11770472DE99C
:1040E000FA4E05460A462F696F2A08BF082405D0F4
:1040F00041F02000782814BF0A2410243C26D5E97A
:104100000001642A18BF692A81468A4605D1002920
:1041100003DAD9F100096AEB4A0ABAF1000F08BFC5
:10412000B9F1000F0CD1286B50B9082C36D195F895
:104130003800000732D530203B2687F83B002DE0C1
:10414000E31748465146224602F084FDA4FB0023B3
:10415000A9EB02023032D2B2A6F1010B3A2A5E4636
:1041600003DB9DF80030513B9A1881465FEA010A53
:104170000BF8072008BFB9F1000F03D0E868F11968
:104180008842DDD3082C09D195F83800000705D501
:10419000F05D302802D0761E3020F055C6F13C008C
:1041A000A861F119E960296B884208DA081A2862C7
:1041B0004FF6EF71288F08402887BDE8F38E00295D
:1041C0000ED595F8381001F01401102908D1696B4B
:1041D0006A69891A2A6A891A0E1A012EA8BF2E62E4
:1041E000BDE8F38E2DE9F24F04468EB0D4E900010C
:1041F000CDE9020104AF9DF8380040F0200BBBF17F
:10420000610F0AD0206B002848BF062004D408BFE5
:10421000BBF1670F01D1012020636168C1F30A502F
:1042200040F2FF7290421CD1080304BF20680028AE
:1042300009D10320A0619DF8380061381A2836D3CF
:104240000FF2486108E00320A0619DF83800613852
:104250001A2829D30FF22C61E068032202F072FDC4
:10426000BEE1012816DA204602F0A7FD012811DB85
:1042700000250020BBF1610F20D1E168302201F858
:10428000012B4A1CE2609DF83820612A0CBF78227D
:1042900058220FE0626840F2FE3161F31E52451A67
:1042A00062604FF0FF30E5E70FF2D451D4E70FF230
:1042B000D851D1E70A706169891C616110B9002683
:1042C000002584E1BBF1610F40F09780206BD4E9B9
:1042D00000AB00284CBF2126461CDDE9020100226C
:1042E000002302F08BFD36B23ABF8BF00040CDE9DF
:1042F00002A0CDE902AB06F101082D1F8DF81020B8
:104300000DF1110700E0C71DB8F1010F33DBDDE946
:1043100002010022002302F089FD2CD21C2102A8F8
:1043200002F09CFDDDE90201FDF7AEFDA8F10708F2
:10433000B8F1010F814609DBFDF752FC02460B463E
:10434000DDE9020100F0A6FACDE90201F81D07211E
:1043500005E009F00F0200F8012D4FEA2919B9F123
:10436000010F01DB491EF4D5491E5CBF002200F895
:10437000012DF9D5C7E70DF11100391AB142B8BFC7
:104380000E4636B230000DF111072FD4884206DAFE
:1043900004A9411849780829A8BF0F2100DA002193
:1043A00004AA821800E0761E12F80139401E8B42E2
:1043B000F9D00F2904D104A941184A78521C4A7037
:1043C000002802D504AF761C2D1D36B2701E0DD408
:1043D000C1190A783032D2B23A2A03DB9DF838305C
:1043E0003A3B9A18401E01F80129F2D5206B0028AB
:1043F00040F1ED80701E2063E9E0DDE9020100225A
:10440000002302F0FBFC3CBF81F00041CDE902013A
:104410002DB247F2975068434B49DFF8309190FB3B
:10442000F1F52DB2C5F1070ABAF1010F90461CDB78
:10443000DDE902675FEACA7007D542464B4630465F
:104440003946FEF7C1F806460F4640464946424601
:104450004B464FEA6A0AFEF7B7F8BAF1000F8046FA
:104460008946E7D1CDE9026724E0CAF1000A0026B7
:10447000374F14E05FEACA7007D542464B463046D4
:104480003946FEF7A1F806460F46404649464246E1
:104490004B46FEF799F84FEA6A0A80468946BAF118
:1044A000000FE7D1DDE9020132463B46FDF7B0FBE4
:1044B000CDE90201BBF1660F216BDFF898900CBFCC
:1044C00005F10A0006204618142EA8BF1326302036
:1044D0008DF810000DF11107012E3DDBDDE9020121
:1044E000FDF7E8FC07F1080104220A23B0FBF3F30F
:1044F00003EB8307A0EB4700303001F8010C0A20E2
:10450000B3FBF0F000EB8007A3EB47033033521E00
:1045100001F8023DE9D1083E012E01F10807DBDB7D
:10452000DDE90201FDF7C6FCFDF764FB02460B4620
:10453000DDE9020100F0AEF900224B46FEF744F837
:10454000CDE90201CAE700BFA086010000002440B7
:104550000000F03F84D797410DF11100381A0DF19A
:10456000110702E0401E6D1E7F1C39783029F9D0FA
:10457000BBF1660F02D12DB2691C04E0BBF1650FDF
:104580000CBF01210021226B8E1836B2B042B8BF99
:10459000064636B231001AD4814204DAC85D3528A5
:1045A000A8BF392000DA3020CA19521E00E0761E5A
:1045B00012F80139491E8342F9D0392802D1C85D69
:1045C000401CC855002902D57F1E761C6D1C2DB2DB
:1045D0009DF83810009533B23A46204600F003F8B3
:1045E0000FB0BDE8F08F2DE9F04305461E46D5F823
:1045F0003080012E85B08946174602DA01260FF277
:10460000902749F02000BDF93040662808BF641C9F
:1046100017D0672840F0828014F1040FC0F2848024
:10462000444580F2818095F83800641C000702D46C
:104630004645B8BFB04624B2B8EB040848BF4FF0B7
:10464000000824B2E868A969012C25DA4A1C302345
:104650000B54B8F1010F03DA95F83810090702D5A9
:104660002E211154521C18EB040FB8BFC8F10004DE
:1046700024B2A0446142B045AA616962B8BF46460F
:10468000AB6936B2EE6132463946181802F05AFB71
:10469000A8EB0600A862C1E00818A64218DA324664
:1046A000394602F04FFBA9697118A01BB8F1010F40
:1046B000A961686203DA95F83800000705D5EA6851
:1046C0002E208854E869401CE861C5F82880A5E0E0
:1046D0002246394602F036FBA8692018361BB8F18D
:1046E000010F03DA95F83810090703D5EA682E217F
:1046F0008154401CA86136B2B045B8BF4646E86850
:10470000AB6936B23246E119181802F01BFBA869F2
:104710003018A861A8EB060068627FE0B9F1610F6C
:1047200016D14FF0700918E0464504DA95F83810B4
:10473000090758BFB046B8F1010848BF4FF000085C
:10474000B9F1670F14BF4FF045094FF0650904E058
:10475000B9F1410F08BF4FF05009A969E86817F88F
:10476000013B0B544A1CB8F1010F05DA95F83810DB
:10477000090758BFAA6117D52E211154531CB8F14F
:10478000010FAB6110DB761E36B2B045B8BF4646AE
:1047900036B232463946181802F0D4FAA8693018F1
:1047A000A861A8EB06006862E868A96909182000FA
:1047B00081F8009003D42B2048708F1C03E02D2239
:1047C0004A708F1C644200260DF1080808E00A2296
:1047D00000A802F0CBFB019808F8010B761C009CA6
:1047E00021B20129F3DA022E06DA49F02000652809
:1047F00004BF302007F8010B4EB9302007F8010B39
:1048000007E0761E02A8305C303007F8010B012E5D
:10481000F7DAE868A9690818381AE86195F83800E5
:1048200000F0140010280DD16869A9690818696A98
:104830000818E9690818A96A0818696B8842BCBF9A
:10484000081A286205B0BDE8F083F8B504460D46A5
:1048500016461F46002004E0E86A401CE8627F1EFE
:10486000002047B116F8011BA868A0470028A860DF
:10487000F2D14FF0FF30F2BD686A6C747A4C0000E0
:104880006E616E004E414E00696E6600494E4600F4
:1048900030000000F0B44FF0004591EA030F44BF30
:1048A0006B40FEF783BD00BF841A71EB030604D290
:1048B0006E40001BB141121973414FF4001C1CEBF8
:1048C000410F34BF7CEB430684E00C0DA4EB135680
:1048D000362E7DDC012E43DC45EAC32343EA5253E6
:1048E00012BFD20292025B08240545EAC12141EAC7
:1048F0005051D2EBC020994125D407D1B0FA80F6AF
:1049000010FA06F164D00020203608E0B1FA81F6F2
:10491000B140C6F1200220FA02F21143B0404FEA42
:10492000F474B4EB465434F001064FEA74040AD828
:10493000D6F50016760D04F00044F04061FA06F258
:104940005040F1404840C00A40EA415021F0004147
:1049500028BF5FEA500550F1000044EBD12137E059
:1049600045EAC323DB0A45EAC121C90AB6F120059D
:104970000EDD42EA0242120CC5F1200603FA06F6E9
:10498000EB4042EA06056D42984161F100010DE0FD
:1049900062FA06F5F240554063FA06FC82EA0C0220
:1049A000F3405A406D42904161EB030111F4801FC6
:1049B00005D1641E620502D06D004041494121F4D9
:1049C0008011430875F1004350F1000041EB0451A0
:1049D000F0BC70471CEB410F15D223F0004352EAA4
:1049E00043060BD04FEA4C0CBCEB410F04D80C0D26
:1049F000661E342EB7DDEBE7801A994150EA410676
:104A000008BF0021E4E708BF1CEB430F28BF6FF08D
:104A10000001DDE738B5040000252079002806D024
:104A20002079042803D081216D48FFF71AF86079B6
:104A3000082809D060790C2806D06079102803D0A6
:104A400082216748FFF70DF82068C00DC0050028D7
:104A500002D12068002803D183216148FFF701F8C3
:104A6000A079002806D0A079012803D084215C48D1
:104A7000FEF7F7FF55480500A079002836D05348C7
:104A800000682168884351490860514800682168DE
:104A900088434F49086020794519286821680843F0
:104AA00028604C480068216888434A4908604A48A1
:104AB00000682168884348490860607910280CD153
:104AC0004448006821680843424908604248006839
:104AD00021680843404908600EE03C4805006079C1
:104AE0004519286821680843286005E020794519A0
:104AF000286821688843286031BD70B5040000250E
:104B00000026012C3FD0022C3DD0042C3BD0082C99
:104B100039D0102C37D0202C35D0402C33D0802CDD
:104B200031D0B4F5807F2ED0B4F5007F2BD0B4F512
:104B3000806F28D0B4F5006F25D0B4F5805F22D007
:104B4000B4F5005F1FD0B4F5804F1CD0B4F5004F12
:104B500019D0B4F5803F16D0B4F5003F13D0B4F5AA
:104B6000802F10D0B4F5002F0DD0B4F5801F0AD0DF
:104B7000B4F5001F07D0B4F5800F04D040F20D113A
:104B80001748FEF76EFF11480068204006001348E2
:104B90000068204204D0002E02D00120050001E070
:104BA000002005002800C0B270BD10B50400E00D63
:104BB000C005002801D1002C04D14FF4927108489F
:104BC000FEF74FFF0548046010BD000000040140DF
:104BD00004040140080401400C0401401404014095
:104BE000507C00081CB5040000A800210160002CC6
:104BF00001D00020206000AA04219020FCF752FD83
:104C000001906848BDF80410018013BD7CB5040014
:104C10000D000026012C5AD0022C58D0042C56D05E
:104C2000082C54D0102C52D0202C50D0402C4ED0D8
:104C3000802C4CD0B4F5807F49D0B4F5007F46D0AD
:104C4000B4F5806F43D0B4F5006F40D0B4F5805F09
:104C50003DD0B4F5005F3AD0B4F5804F37D0B4F50D
:104C6000004F34D0B4F5803F31D0B4F5003F2ED0A2
:104C7000B4F5802F2BD0B4F5002F28D0B4F5801FC9
:104C800025D0B4F5001F22D0B4F5800F1FD0B4F5A5
:104C9000000F1CD0B4F1807F19D0B4F1007F16D082
:104CA000B4F1806F13D0B4F1006F10D0B4F1805F15
:104CB0000DD0B4F1005F0AD0B4F1804F07D07FF07F
:104CC0000040844203D0A8213748FDF709F9EDB22E
:104CD000002D06D0EDB2012D03D0A9213248FDF7F9
:104CE000FFF800AA04219020FCF771FD01902D48E7
:104CF000BDF8041001800020C0B204280ADA00A91F
:104D0000C0B2415CD0F10302D2B2D20091408E1900
:104D1000401CF1E7EDB2002D01D1A64300E026438F
:104D20000020C0B204280ADAD0F10301C9B2C900D8
:104D30003200CA4000A9C0B24254401CF1E700AAA8
:104D400004219020FCF7AEFC01901648BDF8041039
:104D5000018073BD30B583B00400250000AA042192
:104D6000FA20FCF734FD01900E48BDF804100180D4
:104D70000020C0B2042807DA00A9C0B2091AC97815
:104D800029706D1C401CF4E737BD00B583B001AA43
:104D90000421FA20FCF71BFD00900248BDF800102A
:104DA000018007BD580200209C83000800B583B035
:104DB00000AA0121E720FCF70AFD01900C48BDF88C
:104DC000041001809DF8000010F07F000EBD00B5BA
:104DD00083B000AA0121E620FCF7F9FC0190044809
:104DE000BDF8041001809DF8000010F07F000EBD9A
:104DF000580200201CB50400FDF753FD354911EBA6
:104E0000C00035490860FDF74CFD344911EB8000C6
:104E100033490860FDF745FD324911EBC0003249C6
:104E20000860012130480068E4B250F82400FDF722
:104E3000E8FD2B480068E4B230F81400009001202F
:104E40008DF8040000208DF8060000208DF8070082
:104E500003208DF8050000A91F480068E4B250F84F
:104E60002400FDF7C9FEFDF71CFD002803D0FDF767
:104E700018FD01280AD11A480068E4B230F814007D
:104E800015490968E4B251F824100883FDF709FDBB
:104E900002280AD112480068E4B230F814000E4922
:104EA0000968E4B251F82410088313BD0A4909685F
:104EB000C0B251F82010898A094A1268C0B232F88B
:104EC00010205140044A1268C0B252F8202091824A
:104ED000704700007C00002030020020B8880008E5
:104EE0003402002068880008380200202DE9F043D1
:104EF00085B004000D00002600275FF000085FF079
:104F00000009DFF8C40484420CD0DFF82C0384428B
:104F100008D0DFF8B003844204D0D821DFF81C03A6
:104F2000FEF79FFD2868002804D02868DFF8981352
:104F3000884204D3D921DFF80403FEF792FDA88844
:104F4000002808D0A888B0F5805F04D0DA21DFF807
:104F5000EC02FEF786FDE888002810D0E888B0F55E
:104F6000805F0CD0E888B0F5005F08D0E888B0F525
:104F7000405F04D0DB21DFF8C402FEF772FD288910
:104F800000280CD02889B0F5806F08D02889B0F5AA
:104F9000C06F04D0DC21DFF8A402FEF762FD68894F
:104FA0004FF6F371084202D16889002804D1DD214F
:104FB000DFF88802FEF755FDA889002810D0A889DF
:104FC000B0F5807F0CD0A889B0F5007F08D0A88903
:104FD000B0F5407F04D0DE21DFF86002FEF741FD2E
:104FE000208A060036F44056E88806432682A089C7
:104FF0000600DFF8CC030640A888298908436989A0
:1050000008430643A681A08A060036F44076A889A4
:105010000643A68200A8FDF755FCDFF8AC038442E6
:1050200002D10398070001E002980700A08900045C
:1050300008D5192000FB07F029684900B0FBF1F002
:10504000804607E0192000FB07F029688900B0FBC3
:10505000F1F080466420B8FBF0F000010600300952
:10506000642101FB10808146A089000409D55FEA14
:10507000C90032306421B0FBF1F010F007000643A4
:1050800008E05FEA091032306421B0FBF1F010F063
:105090000F000643268105B0BDE8F08338B5040053
:1050A0000D00DFF8900184420DD0DFF88C018442BE
:1050B00009D0DFF81002844205D040F27F11DFF8FA
:1050C0007C01FEF7CEFCEDB2002D08D0EDB2012D33
:1050D00005D04FF4C071DFF86401FEF7C2FCEDB2F9
:1050E000002D04D0A08950F40050A08104E0A089D4
:1050F0004DF6FF710840A08131BD38B504000D00A8
:10510000DFF8300184420DD0DFF82C01844209D051
:10511000DFF8B001844205D040F20621DFF81C011F
:10512000FEF79FFCADB2B5F5007F05DB40F207212D
:10513000DFF80801FEF795FCE805C00DA08031BD41
:105140002DE9F04704000D00160000275FF000086D
:105150005FF000095FF0000A364884420AD0364802
:10516000844207D05748844204D040F2B9413348C2
:10517000FEF777FCADB2282D25D0ADB240F22770F6
:10518000854220D0ADB240F2266085421BD0ADB240
:1051900040F22550854216D0ADB240F224408542FF
:1051A00011D0ADB240F6460085420CD0ADB240F60B
:1051B0006A10854207D0ADB2602D04D040F2BA41EA
:1051C0001E48FEF74EFCF6B2002E07D0F6B2012EB6
:1051D00004D040F2BB411948FEF743FCA246280028
:1051E000C0B24009C0B20700ADB215F01F00804642
:1051F000012010FA08F08146012F02D11AF10C0AA1
:1052000006E0022F02D11AF1100A01E01AF1140A85
:10521000F6B2002E06D0DAF8000059EA0000CAF80B
:10522000000005E0DAF8000030EA0900CAF80000E2
:10523000BDE8F0870038014000440040B47B00081E
:1052400070B504000D0000265F4884420AD05F4814
:10525000844207D01B48844204D040F2F3415C48AA
:10526000FEF7FFFBADB2012D21D0ADB2802D1ED0D7
:10527000ADB2402D1BD0ADB2202D18D0ADB2102D47
:1052800015D0ADB2B5F5807F11D0ADB2B5F5007FC8
:105290000DD0ADB2082D0AD0ADB2042D07D0ADB2FD
:1052A000022D04D040F2F4414948FEF7DAFB208891
:1052B000284202D00120060001E000200600300054
:1052C000C0B270BD0048004001093D002DE9F8431F
:1052D00004000D00002600275FF000085FF00009C1
:1052E000394884420AD03948844207D0354884423C
:1052F00004D040F23C513648FEF7B3FBADB2282D46
:105300002ED0ADB240F22770854229D0ADB240F226
:105310002660854224D0ADB240F2255085421FD090
:10532000ADB240F2244085421AD0ADB240F64600FC
:10533000854215D0ADB240F66A10854210D0ADB2AC
:10534000B5F5587F0CD0ADB2B5F5187F08D0ADB229
:10535000B5F5B07F04D040F23D511D48FEF781FB0A
:105360002800C0B24009C0B28046ADB215F01F009F
:105370000700012010FA07F7B8F1010F02D1A08948
:10538000074007E0B8F1020F02D1208A074001E090
:10539000A08A0740ADB2280A80B20600012010FAA8
:1053A00006F620880640002F04D0002E02D00120EF
:1053B000814601E0002081464846C0B2BDE8F28344
:1053C000F3E9FFFF0048004000380140004400407E
:1053D000B47B000810B440B2002808D50A01274B5E
:1053E00040B210F00F04E31803F8042C03E00A01A4
:1053F000234B40B2C25410BC704710B50400601E6D
:10540000B0F1807F01D301200EE0601E1D490860CD
:105410000F215FF0FF30FFF7DDFF00201A49086021
:1054200007201A490860002010BD19480068401C78
:105430001749086017480068401C16490860704703
:1054400080B54FF4FA40FFF7D8FF002010490860FC
:1054500001BD0F490968C943814206D20C4A12684E
:1054600012F1010FFAD1411A01E0C9430918084AA3
:1054700012688A42FBD170470000000018ED00E07E
:1054800000E400E014E000E018E000E010E000E0DC
:105490004C02002048020020F8B504000025002638
:1054A0000F27E078002806D0E078012803D08C216F
:1054B0003B48FEF7D6FA6078102803DB8D21384888
:1054C000FEF7CFFAA078102803DB8E213448FEF7D0
:1054D000C8FAE078002822D03248006810F4E06072
:1054E000D0F5E060000A0500D5F1040006003800A0
:1054F0000700EF406078B0400500A07838400543D1
:105500002D01294821780D540120217811F01F0127
:10551000884026492278521141F8220009E00120F2
:10552000217811F01F01884021492278521141F859
:105530002200F1BD38B504000D00B4F1005F06D0C3
:10554000B4F1006F03D0B5211548FEF78AFA194867
:10555000854203D3B6211248FEF783FA1648284045
:1055600020431649086031BD10B50400042C06D054
:1055700014F1050F03D0E1210948FEF772FA042C5B
:1055800006D10F48006850F004000D49086005E09E
:105590000B48006830F004000949086010BD0000A5
:1055A000487F00080CED00E000E400E000E100E0CE
:1055B00080E100E0FFFF010080FFFF1F08ED00E039
:1055C00010E000E07FB504000D000026E4B2002CDE
:1055D00006D0E4B2012C03D0D5215248FEF741FA9F
:1055E000EDB2002D09D0EDB2012D06D0EDB2022DA5
:1055F00003D0D6214B48FEF734FAFDF752F90121CA
:10560000494AC0B2401012EBC000E4B250F8240086
:10561000FDF7F7F901210120FDF721FAEDB2022D86
:1056200003D101208DF8040002E000208DF8040071
:105630003E48E4B2205C8DF807003D48E4B2205CAF
:105640008DF805003B48E4B2205C8DF806003A482E
:10565000E4B230F814000090FDF723F900A9374AAE
:10566000C0B2401012EBC000E4B250F82400FDF7C5
:10567000C3FA3348E4B250F8240002903148E4B24F
:10568000205C8DF80C003048E4B2205C8DF80D00F1
:105690008DF80E60EDB2012D0FD1FDF702F92B4907
:1056A000E4B2615C2A4AC0B212EB6000E4B2205C52
:1056B00001F064FC01208DF80E00E4B2012C02D050
:1056C00002A8FFF7A7F97FBDF8B504000D0016008A
:1056D0001F002048E4B2205C8DF800008DF80150D6
:1056E0008DF802608DF8037000A8FFF7D5FEF1BDBC
:1056F00080B54FF400511848FDF736FB01BD80B569
:105700004FF400511448FDF75BFB00200090009817
:10571000B0F5F05F03D20098401C0090F7E701BDA0
:1057200000000000AC850008988800089633000847
:105730006A27000892480008E4880008A4000020B6
:10574000E8880008FB690008C26B0008FA690008D5
:10575000AE680008C36B00080008024080B5102145
:10576000DFF8E80501F091FE002809D00120DFF8FC
:10577000E01508701021DFF8D40501F0E0FE0FE01D
:105780000421DFF8C80501F080FE002808D00120C0
:10579000DFF8BC1508700421DFF8B00501F0CFFE7A
:1057A00001BD80B51021DFF8AC0501F06EFE0028C8
:1057B00009D00120DFF8981508701021DFF8940552
:1057C00001F0BDFE0FE00421DFF8880501F05DFE69
:1057D000002808D00120DFF8781508700421DFF8D0
:1057E000740501F0ACFE01BD2DE9F04F8FB0DFF87C
:1057F0005C058346DFF86005069001210220FDF775
:105800005CF901210220FDF7FCF85FF0000800249C
:1058100000255FF000090020ADF808005FF0000AE5
:10582000002602208DF8200003208DF821000020A2
:105830008DF8220001208DF823002020079007A971
:105840000698FDF7D9F9022205210698FDF7DCFA42
:105850000420ADF824000020ADF826000120ADF8AA
:1058600028000C20ADF82A000020ADF82C0009A972
:10587000584601F04BFC0121584601F0FDFB012286
:105880000421584601F0B4FD1D208DF810000F20B2
:105890008DF811000F208DF8120001208DF81300F3
:1058A00004A8FFF7F9FDFBF7F8FD002808D0292030
:1058B0008DF80B000DF10B020121B420FBF7F2FE75
:1058C000DFF8980400680D900DA800F079FBDFF870
:1058D000900400680C900CA800F058FA012000F029
:1058E0003EFB0027302F6AD2DFF8640400780028DE
:1058F0000BD1BDF808004FF6FF71884205D0BDF806
:105900000800401CADF80800EEE7BDF808004FF6AF
:10591000FF71884253D00020ADF808000020DFF866
:1059200030140870082F48D35FFA88F8B8F1000FD8
:1059300006D1584601F073FC0400012080463CE08B
:105940005FFA88F8B8F1010F37D1584601F067FCCB
:105950000500A4B2ADB2AC4203D2281B401E814662
:1059600002E0281B801E8146DFF8F80300681FFA5A
:1059700089F9B0FBF9F08246300000F089FF01F0B0
:1059800015F8DFF8E423DFF8E433FCF71DFECDE97A
:105990000001504600F07CFF01F008F85FF0333260
:1059A000DFF8CC33FCF710FEDDE90023FDF7F4FC53
:1059B000FCF780FA0600002080467F1C92E74FF437
:1059C000C0604643002000F0CAFA0021584601F0AA
:1059D00053FB00220421584601F00AFD0021052056
:1059E00000F074FAFBF759FD002808D021208DF84B
:1059F0000A000DF10A020121B420FBF753FE30002A
:105A000000F046FF00F0D2FF0022DA4BFCF700F96D
:105A100000F0F4FF0390039801F0B6F800F038FFAF
:105A20000100039801F056FED34901F0C7FE07D8E4
:105A3000039801F0A9F8401CD0494843059005E0BF
:105A4000039801F0A1F8CD494843059000210020BA
:105A5000FFF7B8FD0598FBF700FD05980FB0BDE80E
:105A6000F08F2DE9F04F8FB0B8488346BA480690C2
:105A700001210220FDF721F801210220FCF7C1FFDE
:105A80005FF00008002400255FF000090020ADF859
:105A900008005FF0000A002602208DF82000032095
:105AA0008DF8210000208DF8220001208DF82300C0
:105AB0002020079007A90698FDF79EF802220521ED
:105AC0000698FDF7A1F90420ADF824000020ADF8F8
:105AD00026000120ADF828000C20ADF82A00002097
