:020000040800F2
:10000000C00A00200D8500082D7500082F75000816
:1000100031750008337500083575000800000000D0
:10002000000000000000000000000000377500081C
:1000300039750008000000003B75000843500008B7
:100040007185000875850008798500087D850008A0
:100050008185000885850008898500088D85000850
:100060009185000895850008998500089D85000800
:10007000A1850008A5850008A9850008AD850008B0
:10008000B1850008B5850008B9850008BD85000860
:100090003D750008C1850008C58500089534000835
:1000A000C9850008CD850008D1850008D5850008E0
:1000B000D985000889520008CF520008DD85000864
:1000C000E1850008E5850008E9850008ED85000860
:1000D000F18500083F750008F5850008F9850008DE
:1000E000FD850008018600080586000809860008CD
:1000F0000D8600081186000815860008198600087C
:100100001D8600082186000825860008298600082B
:100110002D860008318600083586000839860008DB
:100120003D860008F0B587B0040001F0B6F907007D
:10013000A0208DF803000DF1030201219F2001F0A2
:10014000B1FAB4F900006168484301F053FD0022A0
:10015000DFF8E43801F05CFD01F096FE0500606810
:10016000DFF8D818884204D36068DFF8D4188842D2
:1001700022D36068DFF8CC18884204D36068DFF8C7
:10018000C818884218D36068DFF8C018884204D3C2
:100190006068DFF8C41888420ED36068DFF8BC18C6
:1001A000884204D36068DFF8B818884204D3A321DA
:1001B000DFF89C0801F094FE607B002810D0607B83
:1001C00050280DD0607B10280AD0607B202807D0F3
:1001D000607B302804D0A421DFF8740801F080FE91
:1001E0002069642804D32069DFF86818884204D3A2
:1001F000A521DFF85C0801F073FEDFF8B0080068A5
:1002000040425FF4802190FBF1F04FF400614843DD
:10021000854208DBDFF894080068800C40F2FF712B
:100220004843A84204DAA621DFF8240801F058FE6A
:10023000DFF878080068C00BFF214843A1688842B6
:1002400004D2A721DFF8080801F04AFE6069DFF850
:100250005C180968B0EB114F08D3DFF8500800684C
:100260000F214843800A6169884204D2A821DFF83F
:10027000E00701F035FEFFB2002F00F08E80632012
:1002800001F036FB00208DF800009DF80000FF28EB
:1002900005D09DF80000401C8DF80000F5E701F046
:1002A0002DFEDFF80C080078C0B24008C0B240282C
:1002B000E8D1DFF8F8070068DFF8F817884228D29D
:1002C000002001F083F8DFF8E4070068DFF8E817A2
:1002D000B0FBF1F040F24C4148431A21B0FBF1F081
:1002E000A16981420FD3DFF8C4070068DFF8C8179F
:1002F000B0FBF1F0DFF8C41748431A21B0FBF1F06E
:10030000A16988422FD2BA21DFF8440701F0E8FD45
:1003100029E0012001F05AF8DFF890070068400852
:10032000DFF89417B0FBF1F040F24C4148431A213A
:10033000B0FBF1F0A169814210D3DFF870070068CB
:100340004008DFF87417B0FBF1F0DFF8701748438E
:100350001A21B0FBF1F0A169884204D2BF21DFF875
:10036000F00601F0BDFD622001F0C2FA00208DF818
:1003700000009DF80000FF2805D09DF80000401CFB
:100380008DF80000F5E701F0B9FDDFF824070078EB
:10039000C0B24008C0B20328E8D15FF4802000FB5F
:1003A00005F0DFF808170968B0FBF1F0060030002F
:1003B00080B2001210F00F008DF80A0030008DF8A6
:1003C0000B00A0684002DFF8E41609688909B0FB59
:1003D000F1F0401C8DF80800606802F004F80DF19F
:1003E00002020121A32001F0F2F99DF8020010F0B1
:1003F000FD008DF802000DF102020121A32001F0A1
:1004000051F9606836B2DFF8A416096801FB06F1FD
:1004100010EB9140A168227B02FB0100DFF81C1663
:10042000884210D3606836B2DFF88016096801FB95
:1004300006F110EB9140A168227B02FB0100DFF87E
:10044000001688426AD3606836B2DFF86016096821
:1004500001FB06F110EB9140A168227B02FB010039
:10046000DFF8E015884210D3606836B2DFF83C163A
:10047000096801FB06F110EB9140A168227B02FBA9
:100480000100DFF8C415884248D3606836B2DFF84F
:100490001C16096801FB06F110EB9140A168227B54
:1004A00002FB0100DFF8A415884210D3606836B261
:1004B000DFF8F815096801FB06F110EB9140A1681F
:1004C000227B02FB0100DFF89015884226D360688A
:1004D00036B2DFF8D815096801FB06F110EB914040
:1004E000A168227B02FB0100DFF87015884210D35F
:1004F000606836B2DFF8B415096801FB06F110EB4D
:100500009140A168227B02FB0100DFF8541588426C
:1005100004D3DC21DFF8380501F0E2FC04AA0DF178
:100520001101206900F006FC9DF811008DF81400FF
:10053000607B9DF8101008438DF815000DF1060240
:100540000DF10701606900F0BBFD9DF806009DF804
:10055000071051EA00108DF8160001AA0DF10501EF
:10056000A06900F099FC9DF805009DF8041051EA7F
:1005700000108DF81700FFB2022F02D0FFB2032F38
:100580005AD1DFF828050068DFF89017884205D1B6
:10059000B6208DF80100B6208DF80900DFF80C05B3
:1005A0000068DFF87C17884205D1AC208DF8010087
:1005B000AC208DF80900DFF8F4040068DFF8641758
:1005C000884205D1A3208DF80100A3208DF80900F1
:1005D000DFF8D8040068DFF8DC14884205D13B203E
:1005E0008DF80100B6208DF80900DFF8C00400681E
:1005F000DFF83417884205D136208DF80100AC2091
:100600008DF80900DFF8A4040068DFF8201788429D
:1006100005D131208DF80100A3208DF809000DF1DE
:1006200001020121072001F03DF80690DFF8800467
:10063000BDF81810018032E0DFF870040068DFF8C0
:10064000DC16884206D0DFF864040068DFF8641422
:10065000884202D1B6208DF80900DFF85004006806
:10066000DFF8BC16884206D0DFF840040068DFF8E7
:10067000B816884202D1AC208DF80900DFF82C04AE
:100680000068DFF8A016884206D0DFF82004006872
:10069000DFF89816884202D1A3208DF80900DFF810
:1006A0000C040068DFF8881688420ED3DFF8FC03DC
:1006B00000684008DFF86816884201D3012000E096
:1006C0000020C0B200F02CF80CE0DFF8E003006876
:1006D000DFF84C16884201D3012000E00020C0B2B0
:1006E00000F01EF814F10C0201216C2000F0DAFF7A
:1006F00002AA04210C2000F0D5FF05AA04211A202B
:1007000000F0D0FF0690DFF8A803BDF818100180B4
:10071000012000F0E3FD606800F0D2F907B0F0BD01
:100720001CB5040000208DF80000E4B2002C08D0B5
:10073000E4B2012C05D04FF4D271DFF8140301F0BC
:10074000CFFB00AA0121012001F041F80190DFF860
:100750006003BDF804100180E4B2012C06D19DF8BD
:10076000000050F040008DF8000005E09DF800000A
:1007700010F0BF008DF8000000AA0121012000F058
:1007800091FF0190DFF82803BDF80410018013BD2C
:100790002DE9F843040000208DF8000000208DF8BA
:1007A0000100082500260F27DFF89002844203D3BA
:1007B000DFF88C0284421DD3DFF88802844203D321
:1007C000DFF88402844215D3DFF88002844203D329
:1007D000DFF8840284420DD3DFF88002844203D321
:1007E000DFF87C02844205D340F2DD11DFF86002BD
:1007F00001F076FBDFF84402844206D3DFF84002C2
:10080000844202D2062081461FE0DFF8380284428B
:1008100006D3DFF83402844202D20C20814614E071
:10082000DFF82802844206D3DFF82C02844202D289
:100830001020814609E0DFF82402844205D3DFF866
:100840002002844201D220208146DFF86C02B4FBF2
:10085000F0F05FFA89F909FB00F08046DFF8C8097B
:10086000C08B804504D30F20050001208DF80000C7
:100870009DF8000000283AD1DFF8AC096DB230F8DD
:100880001500804517D3DFF8A0096DB210EB4500C5
:100890004088404506D301208DF8000001208DF8E6
:1008A0000100E5E72E007FB276B2B81B022190FB73
:1008B000F1F04519DCE7DFF870096DB210EB450087
:1008C00030F8020C804503D301208DF80000CFE7FB
:1008D0002F007FB276B2B81B022190FBF1F02D1AE7
:1008E0007FB26DB2AF42C3D100200500C0E79DF8D2
:1008F0000100002815D06DB20F2D12DADFF828099B
:100900006DB230F81500B8EB0000DFF81C196DB2BD
:1009100011EB45014988B1EB080188421BD36D1CDE
:1009200019E09DF80100002815D16DB20F2D12DAE3
:10093000DFF8F4086DB230F81500B0EB0800DFF80E
:10094000E8186DB211EB450131F8021CB8EB01015A
:10095000884200D36D1E6DB2082195FBF1F000FBBB
:100960001150C0B2BDE8F28300B583B000AA0421E3
:10097000082000F02CFF01904D48BDF804100180C4
:100980009DF8000010F01F009DF80110490311EBC5
:1009900040509DF8021010EB41109DF8031010EB31
:1009A000D1000EBD00B583B000AA01210B2000F0DC
:1009B0000EFF0190DFF87808BDF8041001809DF863
:1009C000000010F00700012801D1002010E09DF880
:1009D000000010F00700032801D1012008E09DF875
:1009E000000010F00700042801D1022000E00320DD
:1009F0000EBD00B583B000AA01216C2000F0E7FE17
:100A000001902B48BDF8041001809DF800000EBD38
:100A100000B583B000AA01210C2000F0D8FE01909F
:100A20002348BDF8041001809DF800001F490968A3
:100A30004843C00B0EBD000080842E4180565F2EBF
:100A4000E12F0C3980E40117616A141CC060D211D7
:100A50003481000831C80700E1D7CE14408FE10887
:100A600061D06F0A1CB500AA02210E2000F0AFFE73
:100A700001900F48BDF8041001809DF800009DF81A
:100A8000011011EB0021080502D551F4704101E07D
:100A90000905090D0C0024B2DFF8F803006800FB1B
:100AA00004F05FF4802290FBF2F016BDB402002047
:100AB000B8020020006CDC0240420F0064350C00DC
:100AC0002DE9F04F87B00400DFF86C07844203D3B0
:100AD000DFF8680784421DD3DFF86407844203D33C
:100AE000DFF86007844215D3DFF85C07844203D344
:100AF000DFF8580784420DD3DFF85407844203D34C
:100B0000DFF85007844205D340F25131DFF8240763
:100B100001F0E6F9DFF82007844206D3DFF81C076E
:100B2000844202D2002081461FE0DFF8140784428D
:100B300006D3DFF81007844202D20120814614E078
:100B4000DFF80407844206D3DFF80007844202D2AC
:100B50000220814609E0DFF8F806844205D3DFF879
:100B6000F406844201D203208146FFF77BFF8046D2
:100B7000FFF74EFF0500FFF73CFF060018EB0400EF
:100B8000F6B206FB0500824600F009FC471C00F0A7
:100B900084FC00283AD05FFA89F9B9F1000F2AD015
:100BA000B9F1020F0FD01AD3B9F1030F2ED1DFF82C
:100BB000A806824503D2002001F0D2FC02E0012009
:100BC00001F0CEFC22E0DFF89406824503D200203B
:100BD00001F0C6FC02E0012001F0C2FC16E0DFF8E3
:100BE0008006824503D2002001F0BAFC02E0012019
:100BF00001F0B6FC0AE0DFF86C06824503D2002063
:100C000001F0AEFC02E0012001F0AAFC5046FFF723
:100C1000BFFD8DF810009E485FFA89F919F80000B1
:100C200000FB04F000F0E6FFCDE90201FFB25FF443
:100C3000802000FB07F000F0D3FFCDE900019548CC
:100C4000006800F0D7FF02000B00DDE9000100F0B2
:100C5000DFFFDDE9022301F0B7FC01F02BF9834649
:100C60005FEA5B5010F01F009DF810104901084327
:100C70008DF814005FEA5B308DF815005FEA5B10B9
:100C80008DF81600DFF8A4055FFA89F919F800005D
:100C900050EACB008DF8170005AA0421082000F0C7
:100CA00001FD0090DFF88805BDF80010018001F01B
:100CB00030FA07B0BDE8F08F2DE9F047FFF754FE9A
:100CC0008246FFF76FFE070000F069FB461C5046A6
:100CD00000F090FF804689466E48006800F08AFF69
:100CE00004000D00F6B26A48FFB2385C00FB06F063
:100CF0005FF48021484300F073FF02000B002000E6
:100D0000290000F085FF42464B4601F05DFC01F0F2
:100D10002DFD01F0CFF8BDE8F087000000366E0130
:100D200040787D0180BA8C0180F0FA0200751903C9
:100D300081BA8C012DE9FE4305000E00170000204A
:100D40008DF808000F245FF00009642D03D3DFF84D
:100D50001805854205D34FF47E71DFF8D80401F001
:100D6000BFF800F09AFB002802D000F05CFB81463F
:100D70009DF80800002813D164B2002C10D4DFF8CD
:100D8000EC040068D4F1140119EB01010200CA401F
:100D9000954203D301208DF80800E9E7641EE7E7D8
:100DA00064B2002C02D5002464B200E064B23C704E
:100DB0000120D4F11701884000FB05F0DFF8AC14E6
:100DC000096819F105020B00D340B0FBF3F080462F
:100DD0000020C0B2032829DA5FFA88F8C0B210EB0D
:100DE0000801491E002919D05FFA88F8C0B210EB3B
:100DF0000801FF31DFF87424126819F105039446E5
:100E00003CFA03FC0CFB01F1D4F117020B00D340B8
:100E1000E91A00AAC0B222F8101005E047F6FF71E7
:100E200000AAC0B222F81010401CD2E74FF6FF70A3
:100E30000021C9B2032928DA00AAC9B232F9112067
:100E4000012A04DB00AAC9B232F9112004E000AA89
:100E5000C9B232F91120524280B2824213DA00AA9A
:100E6000C9B232F91120012A04DB00A8C9B230F856
:100E7000110004E000A8C9B230F91100404211EBA2
:100E80000802521E3270491CD3E7BDE8F783000008
:100E900058850008B40200202DE9FE4F04000D0023
:100EA000160000208DF8000000208DF801005FF092
:100EB0002C0B5FF000085FF059095FF0010A00F0A9
:100EC000ECFA002808D000F0AEFA002802D0022088
:100ED000824601E001208246DFF8900300685FFA55
:100EE0008AFAB0FBFAF0DFF88813B0FBF1F040F2B9
:100EF0004C4148431A21B0FBF1F0844212D3DFF891
:100F00006C0300685FFA8AFAB0FBFAF0DFF860134E
:100F1000B0FBF1F0DFF85C1348431A21B0FBF1F0AD
:100F2000A04205D240F24C41DFF8080300F0D8FFA0
:100F3000DFF8380300685FFA8AFAB0FBFAF0642140
:100F4000B0FBF1F09DF8001000294ED1DFF8281316
:100F50004FFA8BFB31F81B10414340F62822B1FBBE
:100F6000F2F1A14222D2DFF810134FFA8BFB11EB02
:100F70004B0131F8021C414340F62822B1FBF2F14B
:100F8000A14206D301218DF8001001218DF8011036
:100F9000D8E7D9464FFA89F94FFA88F8B9EB080132
:100FA000022291FBF2F1BBEB010BCBE7DFF8C81299
:100FB0004FFA8BFB11EB4B014988414340F6282245
:100FC000B1FBF2F18C4203D301218DF80010B9E797
:100FD000D8464FFA89F94FFA88F8B9EB080102228E
:100FE00091FBF2F111EB0B0BACE75F460021C9B2AC
:100FF000032927DA7FB2C9B2CA19521E002A05D5C1
:101000007FB2C9B2CA19521E5A2A13DADFF868220F
:101010007FB2C9B2CB1912EB430232F8022C424321
:1010200040F62823B2FBF3F2A21A01ABC9B223F8AF
:10103000112005E047F6FF7201ABC9B223F8112079
:10104000491CD4E74FF6FF710022D2B2032A27DAF7
:1010500001ABD2B233F91230012B04DB01ABD2B2B7
:1010600033F9123004E001ABD2B233F912305B42F3
:1010700089B28B4212DA01ABD2B233F91230012BB2
:1010800004DB01A9D2B231F8121004E001A9D2B2F6
:1010900031F912104942D3195B1E9B46521CD4E70A
:1010A0004FFA8BFB09229BFBF2F232704FFA8BFB5B
:1010B00009229BFBF2F302FB13B22A70BDE8F78F03
:1010C0002DE9FE4305000E00170000208DF80800F2
:1010D00009245FF00008DFF894010068B5EB104FB9
:1010E00007D3DFF8880100680F214843800AA8422F
:1010F00005D240F29C41DFF83C0100F0F1FE00F027
:10110000CCF9002801D018F101089DF8080000284A
:1011100012D164B2002C0FD4DFF85001006818F12E
:101120000F01091B0200CA40954203D301208DF82C
:101130000800EAE7641EE8E764B2002C02D5002448
:1011400064B200E064B23C70D4F10C0018EB000013
:1011500015FA00F0DFF8141109688909B0FBF1F005
:1011600081465FFA89F9B9F1080F01DBB9F1080985
:101170000020C0B2032826DA5FFA89F9C0B210EB6A
:101180000901491E082916DADFF8E0100968890903
:101190005FFA89F9C0B210EB0902D21D5143D4F1B4
:1011A0000C0218EB02020B00D340E91A00AAC0B2ED
:1011B00022F8101005E047F6FF7100AAC0B222F82D
:1011C0001010401CD5E74FF6FF700021C9B203296B
:1011D00028DA00AAC9B232F91120012A04DB00AAD8
:1011E000C9B232F9112004E000AAC9B232F91120C3
:1011F000524280B2824213DA00AAC9B232F91120F7
:10120000012A04DB00A8C9B230F8110004E000A8EC
:10121000C9B230F91100404211EB0902521E32707E
:10122000491CD3E7BDE8F7837C8400085C8500088F
:10123000B80200203481000880565F2EE12F0C395F
:1012400080E40117616A141CC060D211E1D7CE148A
:10125000408FE10861D06F0AE2F49C09C4E93913B8
:10126000068DA2190B1A453331C80700B4020020BD
:1012700040420F0064350C00787700081CB504006C
:10128000E4B2002C0ED0E4B2402C0BD0E4B2802C9F
:1012900008D0E4B2C02C05D040F2FF61DFF89C001A
:1012A00000F01EFE00AA0121182000F090FA9DF81F
:1012B000000010F03F008DF800009DF80000204372
:1012C0008DF8000000AA0121182000F0EBF9019030
:1012D000DFF86C00BDF80410018013BD1CB50400DC
:1012E00000208DF80000E4B2002C07D0E4B2012CFD
:1012F00004D04FF4FB61114800F0F2FD00AA012177
:101300001E2000F064FAE4B2012C06D19DF8000022
:1013100050F080008DF8000005E09DF8000010F00E
:101320007F008DF8000000AA01211E2000F0BAF90C
:1013300001900348BDF80410018013BD34810008FA
:10134000B80200201CB50400E4B2002C07D0E4B2BF
:10135000012C04D040F6B131424800F0C1FD00AA92
:1013600001219E2000F033FAE4B2012C06D19DF851
:10137000000050F080008DF8000005E09DF80000AE
:1013800010F07F008DF8000000AA01219E2000F0DF
:1013900089F901903248BDF80410018013BD00B5F1
:1013A00083B000AA01219E2000F011FA01902C4880
:1013B000BDF8041001809DF80000C0B2C009C0B2A1
:1013C000002801D0012000E000200EBD1CB5040063
:1013D000E4B2002C07D0E4B2012C04D040F6E53191
:1013E000204800F07DFD00AA0121B42000F0EFF9B3
:1013F000E4B2012C06D19DF8000010F0F7008DF842
:10140000000005E09DF8000050F008008DF8000095
:1014100000AA0121B42000F045F901901048BDF860
:101420000410018013BD00B583B000AA0121B420CF
:1014300000F0CDF901900A48BDF8041001809DF834
:101440000000C0F3C000C0B2002801D0002000E0BE
:1014500001200EBD044800687047034908607047CA
:10146000B802002034810008B402002000B583B027
:1014700000AA0221F02000F0AAF901900848BDF866
:10148000041001809DF800009DF8011051EA002031
:1014900080B20EBD0349087070470248007870475B
:1014A000B8020020D601002000B587B001F0F9F99C
:1014B000DFF80C17C0B251F82000DFF808170860F9
:1014C00001F0EFF9DFF8001711EB4000DFF8FC1630
:1014D000086001F0E6F9DFF8F81611EB8000DFF89C
:1014E000F416086001F0DDF9002853D101214FF412
:1014F000805001F0B4FA0121102001F082FA052297
:101500000F21DFF8D40601F07FFC05220E21DFF861
:10151000C80601F079FC05220D21DFF8BC0601F0B8
:1015200073FC02208DF8040000208DF806000220D4
:101530008DF8070003208DF805004FF4005000904F
:1015400000A9DFF8940601F057FB4FF480400090AB
:1015500000A9DFF8840601F04FFB4FF40040009033
:1015600000A9DFF8740601F047FB4FF480500090AB
:1015700001208DF8040000208DF8060001208DF870
:10158000070003208DF8050000A9DFF84C0601F0E4
:1015900033FB4EE00121012001F033FA052207213F
:1015A000DFF8380601F030FC05220621DFF82C06B2
:1015B00001F02AFC05220521DFF8200601F024FCB9
:1015C00002208DF8040000208DF8060002208DF81E
:1015D000070003208DF805002020009000A9DFF807
:1015E000FC0501F009FB4020009000A9DFF8EC05A4
:1015F00001F002FB8020009000A9DFF8E00501F077
:10160000FBFA1020009001208DF8040000208DF8D6
:10161000060001208DF8070003208DF8050000A9C1
:10162000DFF8B80501F0E8FA01214FF4805001F02D
:1016300016FADFF89005006801F0BAFC4FF48270EA
:10164000ADF80A000020ADF808000020ADF80C004D
:101650000020ADF80E000020ADF810004FF400702F
:10166000ADF812000820ADF814000020ADF8160007
:101670000720ADF8180002A9DFF84805006801F05E
:10168000C4FC0121DFF83C05006801F065FDDFF8CE
:101690003C0500680088DFF83C1509680968088384
:1016A00007B000BD2DE9F04184B004000D00160024
:1016B0000020ADF802000DF1020700208DF80400B3
:1016C0008DF8054072B6DFF8040500680088DFF881
:1016D00004150968096848830020ADF80000BDF8CA
:1016E0000000002805D1BDF80000401CADF8000046
:1016F000F5E75FF00008B8F1020F2BDA0221DFF8FE
:10170000C404006801F076FD0028F7D001A818F89D
:10171000001089B2DFF8AC04006801F058FD012127
:10172000DFF8A004006801F065FD0028F7D0DFF8BD
:101730009404006801F039FDBDF8021080B2D8F1C0
:101740000102D2B2D20090404018ADF8020018F168
:101750000108D0E75FF00008EDB2A8451FDA0221CA
:10176000DFF86004006801F045FD0028F7D018F8A4
:10177000061089B2DFF84C04006801F028FD012151
:10178000DFF84004006801F035FD0028F7D0DFF8ED
:101790003404006801F009FD18F10108DCE70221BA
:1017A000DFF82004006801F025FD0028F7D0DFF8FD
:1017B0001C0400680088DFF81C14096809680883A5
:1017C00062B638880290029804B0BDE8F0812DE935
:1017D000FE4304000D0016000020ADF802000DF1DC
:1017E00002074FF0FF0801208DF804008DF8054036
:1017F00072B6DFF8D80300680088DFF8D8130968EC
:10180000096848830020ADF80000BDF800000028FA
:1018100005D1BDF80000401CADF80000F5E75FF011
:101820000009B9F1020F2BDA0221DFF898030068F2
:1018300001F0E0FC0028F7D001A819F8001089B2E7
:10184000DFF88003006801F0C2FC0121DFF87403B7
:10185000006801F0CFFC0028F7D0DFF868030068CB
:1018600001F0A3FCBDF8021080B2D9F10102D2B29E
:10187000D20090404018ADF8020019F10109D0E7FC
:101880005FF00009EDB2A9451EDA0221CD480068DB
:1018900001F0B0FC0028F8D05FFA88F8414689B220
:1018A000C848006801F093FC0121C648006801F0B7
:1018B000A1FC0028F8D0C348006801F076FC307025
:1018C000761C19F10109DDE70221BE48006801F02C
:1018D00091FC0028F8D0BD4800680088BD4909681F
:1018E0000968088362B6388802900298BDE8FE83D2
:1018F00070B584B004000020ADF802000DF10205BF
:1019000080208DF804008DF8054072B6AF4800685D
:101910000088B0490968096848830020ADF80000D4
:10192000BDF80000002805D1BDF80000401CADF84E
:101930000000F5E70026022E25DA0221A148006802
:1019400001F058FC0028F8D001A8315C89B29D480C
:10195000006801F03CFC01219A48006801F04AFC53
:101960000028F8D09748006801F01FFCBDF802106D
:1019700080B2D6F10102D2B2D20090404018ADF848
:101980000200761CD7E702218E48006801F032FC85
:101990000028F8D08D48006800888E4909680968D9
:1019A000088362B628880290029804B070BDFEB524
:1019B00004000D000020ADF802000DF10206002029
:1019C0008DF80400FF208DF8050072B67F4800688E
:1019D000008880490968096848830020ADF8000044
:1019E000BDF80000002805D1BDF80000401CADF88E
:1019F0000000F5E70027022F25DA02217148006870
:101A000001F0F8FB0028F8D001A8395C89B26D48D4
:101A1000006801F0DCFB01216A48006801F0EAFB84
:101A20000028F8D06748006801F0BFFBBDF802103D
:101A300080B2D7F10102D2B2D20090404018ADF886
:101A400002007F1CD7E70027E4B2A74219DA02217F
:101A50005C48006801F0CEFB0028F8D0795D89B2BF
:101A60005848006801F0B3FB01215648006801F0B6
:101A7000C1FB0028F8D05348006801F096FB7F1C9A
:101A8000E2E702214F48006801F0B4FB0028F8D0DB
:101A90004E48006800884F4909680968088362B6A3
:101AA000308802900298FEBD2DE9F04184B0040018
:101AB0000D000020ADF802000DF10206FF27012005
:101AC0008DF80400FF208DF8050072B63F480068CD
:101AD000008840490968096848830020ADF8000083
:101AE000BDF80000002805D1BDF80000401CADF88D
:101AF0000000F5E75FF00008B8F1020F27DA0221D5
:101B00003048006801F076FB0028F8D001A818F8EA
:101B1000001089B22B48006801F059FB01212948C7
:101B2000006801F067FB0028F8D02648006801F043
:101B30003CFBBDF8021080B2D8F10102D2B2D20053
:101B400090404018ADF8020018F10108D4E75FF0AA
:101B50000008E4B2A0451DDA02211A48006801F02D
:101B600049FB0028F8D0FFB2390089B21548006857
:101B700001F02DFB01211348006801F03BFB002818
:101B8000F8D01048006801F010FB28706D1C18F1A7
:101B90000108DEE702210B48006801F02BFB00285A
:101BA000F8D00A48006800880A490968096808836B
:101BB00062B630880290029804B0BDE8F08100005F
:101BC000880100209C02002040850008A40200201B
:101BD00094010020A00200200010024000000240FA
:101BE000010040F10980F446404200F005F851F050
:101BF00000416047010000BF09D0B0FA80F1884081
:101C0000C91CC1F58461090501EBD021400570476D
:101C10002DE9F04140F2FF7581EA030C0CF0004C15
:101C200015EA11541DBF15EA1357AC42AF42E9E063
:101C3000BC41C1F31301C3F31303801A994143F468
:101C4000801304D2641E4000494180185941C902E2
:101C500041EA5051B1FBF3F603FB1611A2FB0675E6
:101C6000D7EBC020A94102D2761E80185941C90283
:101C700041EA5051B1FBF3FE03FB1E11A2FB0E75AE
:101C8000D7EBC020A94103D2AEF1010E8018594113
:101C9000890241EA9051760546EA8E2EB1FBF3F6B1
:101CA00003FB1611A2FB0675D7EB8020A94102D2D7
:101CB000761E80185941C90241EA50514EEA060E7B
:101CC000B1FBF3F603FB1611A2FB0675D7EBC020A0
:101CD000A94102D2761E80185941C90241EA5051E9
:101CE000B1FBF3F703FB1711A2FB0735D3EBC020C1
:101CF000A94167F100070CBF004247F0010766F3F6
:101D0000D5274FEA1E31B80814F5806414DDBD07ED
:101D100075F1004250EB0E5051EB045111F5801F4C
:101D20005CBF41EA0C01BDE8F0814CF07F6141F0FD
:101D3000E0410020BDE8F081BD076D0840EA0E508B
:101D400041F48011D4F10104B4F120060ADAC4F19F
:101D500020060200E04001FA06F3E1401843B240D9
:101D600015430EE0342C14DCC6F1200445EA40058E
:101D70006D0820FA06F2154321FA06F0A1400D4342
:101D8000002175F1004250F1000051EB0C01BDE85B
:101D9000F08100205FEA0C01BDE8F081CFB9921814
:101DA0005B41B3FA83F704BFB2FA82F6BF190B3F67
:101DB000B7F120062FBF02FA06F3BB40C7F1200699
:101DC00022FA06F638BF3343BA401CB1E419641E48
:101DD0002FE77F4231F00041B1FA81F404BFB0FA3D
:101DE00080F6A4190B3CB4F120062FBF00FA06F1CF
:101DF000A140C4F1200620FA06F638BF3143A040C6
:101E00003C1B16E7AC421ABF05EA1357AF4214E079
:101E100050EA41061CBF52EA4306BFE750EA4107B9
:101E2000304661461CBF41EA0551BDE8F08152EAE7
:101E3000430C08BFC143BDE8F08100204FF40016F9
:101E400016EB410F98BF16EB430F08BF16EB410F7F
:101E500024BFC14305E016EB430F0CBF61464CEABB
:101E60000551BDE8F08150F8041B61B150F8042B16
:101E7000D30744BFA9F101039A180023091F42F8B0
:101E8000043BFAD1EFE77047F446400D40EAC12029
:101E9000490006D200F014F8004248BF6FF000403D
:101EA000604700F00DF84FF0004188428CBF0846B3
:101EB00040426047400D40EAC120490080F00D805B
:101EC00040F00040490DA1F58061491C05D4D1F1D5
:101ED0001F0154BFC840C01770474FF00000704743
:101EE00038B504000D002A002100094801F0BAF9B4
:101EF0002A002100064801F0B5F9F9E780B500AAEB
:101F00000121C020FFF763FC0249086001BD000009
:101F100060830008B80200202DE9F04F87B004006C
:101F2000DFF8D004844203D3DFF8CC0484421CD30E
:101F3000DFF8C804844203D3DFF8C404844214D316
:101F4000DFF8C004844203D3DFF8BC0484420CD31E
:101F5000DFF8B804844203D3DFF8B404844204D326
:101F60005021DFF8B004FFF7BBFFDFF8880484429C
:101F700006D3DFF88404844202D2002081461FE0A9
:101F8000DFF87804844206D3DFF87404844202D276
:101F90000120814614E0DFF86C04844206D3DFF8A8
:101FA0006804844202D20220814609E0DFF85C0422
:101FB000844205D3DFF85804844201D203208146CD
:101FC000FEF750FD8046FEF723FD0500FEF711FDEC
:101FD000060018EB0400F6B206FB05008346FFF787
:101FE000DEF9471CFFF759FA00283AD05FFA89F961
:101FF000B9F1000F2AD0B9F1020F0FD01AD3B9F1FD
:10200000030F2ED1DFF81004834503D2002000F027
:10201000A7FA02E0012000F0A3FA22E0DFF8FC03B7
:10202000834503D2002000F09BFA02E0012000F07B
:1020300097FA16E0DFF8E803834503D2002000F0AA
:102040008FFA02E0012000F08BFA0AE0DFF8D403F7
:10205000834503D2002000F083FA02E0012000F063
:102060007FFA5846FEF794FB8DF81000FFF7F2F95F
:1020700082462000FFF7BEFDCDE90201FFB2DFF886
:10208000A8035FFA89F919F8000000FB07F05FF474
:1020900080214843FFF7A4FDCDE900015046FFF73A
:1020A000A9FD02000B00DDE90001FFF7B1FDDDE94C
:1020B000022300F089FAFFF7FDFE06900698400D16
:1020C00010F01F009DF81010490108438DF814000E
:1020D0000698400B8DF81500069840098DF81600FB
:1020E0000698DFF848135FFA89F919F8011051EAE8
:1020F000C0008DF8170005AA04210820FFF7D2FAC6
:102100000090DFF82C03BDF80010018007B0BDE897
:10211000F08F2DE9F04782B000275FF00008FFF74D
:1021200099F98146FFF7B9F98246DFF8080381453E
:102130000ED3FFF734F900280AD101200700FEF77B
:10214000BBFD06000120FFF7FDF83000FFF7E4FEBD
:10215000FEF7B2FD060019208DF8000000AA01214B
:10216000A120FFF79FFA012000F074F9FFF7C6FEE7
:10217000DFF8BC020078C0B24008C0B240280DD1E0
:1021800001208046622001F07FF8FFF7B7FEA848E3
:102190000078C0B24008C0B20328F6D1662001F032
:1021A00073F8FFF7ABFEA2480078C0B24008C0B297
:1021B0000F28F6D100F07FF90500622001F064F8E5
:1021C000FFF79CFE9A480078C0B24008C0B20328CE
:1021D000F6D19848814508D35FFA8AFABAF1010F1F
:1021E00003D195488019FFF797FE652001F04CF860
:1021F000FFF784FE8E480078C0B24008C0B20F28B6
:10220000F6D100F058F90400622001F03DF8FFF724
:1022100075FE87480078C0B24008C0B20328F6D1E6
:102220005FFA88F8B8F1010F02D1632001F02CF8B1
:10223000002000F00FF9FFB2002F07D17D48814543
:102240000AD35FFA8AFABAF1010F05D10020FFF72D
:1022500079F83000FFF760FE11208DF8000000AA29
:102260000121A120FFF71EFA2800C0B200F034F9C6
:102270002000C0B200F052F9BDE8F3871CB5FFF7AB
:102280000CF90400E4B2012C18D10020019001984F
:10229000FF2803D20198401C0190F8E710208DF828
:1022A000000000AA0121A820FFF7FCF900208DF80A
:1022B000000000AA0121A820FFF7F4F913BD10B512
:1022C00082B0FFF7EAF80400E4B2012C17D1A8208D
:1022D0008DF8000000AA0121A920FFF7E3F94B20A7
:1022E0008DF8000000AA0121AA20FFF7DBF9FC20ED
:1022F0008DF8000000AA0121AB20FFF7D3F913BD30
:1023000038B54E480078002844D0FFF7A3F8040001
:10231000FFF7C3F80500EDB2012D06D14548844210
:1023200003D347480068FFF7F7FD45480068454973
:10233000884208D3424800684349884203D2C020FB
:10234000FEF79CFF13E0EDB2032D0DD13C48006871
:102350003E49884208D33A4800683D49884203D242
:102360008020FEF78BFF02E00020FEF787FF1120A0
:102370008DF8000000AA0121A920FFF793F9202081
:102380008DF8000000AA0121A520FFF78BF900209D
:102390002A49087031BD38B528480078012821D075
:1023A000FFF758F80400FFF778F80500EDB2012DAB
:1023B0000AD12048844207D3214800681E490818E2
:1023C000FFF7AAFDFFF77BFF90208DF8000000AA21
:1023D0000121A520FFF766F90020FEF74FFF01203D
:1023E0001649087031BD0221144A11701449086061
:1023F0007047000080565F2EE12F0C3980E40117F2
:10240000616A141CC060D211E1D7CE14408FE1087C
:1024100061D06F0A947E0008E2F49C09C4E9391384
:10242000068DA2190B1A4533548500085085000803
:10243000B802002081BA8C012C540700D70100207B
:10244000B002002080D1F00881A1031CC055703378
:102450008125DB331CB50400E4B2002C06D0E4B2C5
:10246000012C03D08F215648FFF73AFD00AA012125
:102470005020FFF7ACF901905248BDF804100180DC
:10248000E4B2012C06D19DF8000050F002008DF856
:10249000000005E09DF8000010F0FD008DF8000040
:1024A00000AA01215020FFF7FDF801904548BDF832
:1024B0000410018013BD00B583B000AA0121E520FE
:1024C000FFF785F901903F48BDF8041001809DF8A1
:1024D000000010F07F000EBD1CB5040000AA012111
:1024E0006E20FFF774F901903648BDF804100180A2
:1024F0009DF8000010F080008DF800009DF80000AD
:1025000020438DF8000000AA01216E20FFF7CAF8D1
:1025100001902C48BDF80410018013BD1CB50400C7
:1025200000AA01216F20FFF752F901902548BDF85C
:10253000041001809DF8000010F080008DF800006C
:102540009DF8000020438DF8000000AA01216F20B3
:10255000FFF7A8F801901B48BDF80410018013BDD7
:1025600010B582B00400E4B2002C07D0E4B2012C14
:1025700004D04FF4CF711248FFF7B2FC00AA01213A
:102580009E20FFF724F99DF8000010F0F9008DF867
:102590000000E4B2012C06D19DF8000050F00200CA
:1025A0008DF8000005E09DF8000050F004008DF863
:1025B000000000AA01219E20FFF774F813BD00005F
:1025C000807D0008B8020020B0B581EA030C0CF051
:1025D000004C40F2FF7515EA11541DBF15EA135760
:1025E000AC42AF4239E0E41923EA455343F4801387
:1025F000C90241F0004141EA505EC7021100A7FB49
:10260000020200284FF00000EEFB01204FF0000115
:10261000E3FB072118BF42F00102401800214941A5
:10262000E3FB0E01A4F580640F0302D25200404187
:10263000494154F101046CDD470872F1004250F148
:10264000000051EB0451A1F580115CBF41EA0C017F
:10265000B0BD4CEA05510020B0BD05EA1357AC42AD
:1026600014BFAF4241E050EA410E1CBF52EA430E94
:1026700002E061460020B0BD24423C441BD15FEA29
:10268000070EF6D0090302BF01460020AEF1140E7A
:10269000B1FA81F7AEEB070401FA07FE0C37C7F178
:1026A000200100FA07F7C8404EEA000E23EA45531E
:1026B00043F48013A2E733F00043B3FA83F704BF77
:1026C000B2FA82FE77440B3FE41BB7F1200E2FBF16
:1026D00002FA0EF3BB40C7F1200E22FA0EFE38BFFD
:1026E00043EA0E03BA40641C82E750EA410E14BF6D
:1026F00052EA430E6FF000014FF4001717EB430F3F
:102700008ABF194617EB410FB5E74CEA0551002087
:10271000B0BDD4F10104B4F120070FDAC4F12007F1
:10272000520828BF42F0010210FA07F501FA07F734
:10273000E1BF2A43E0403843E1400FE0352C98DC0C
:10274000C7F1200452EA400220FA07F218BF42F013
:10275000010231FA07F0A1400A43002172F1004260
:1027600050F1000051EB0C01B0BD030383B5012112
:1027700000A800F0D1FD401E012811D9002100A8B9
:1027800000F0CAFD60B10198DDE90023002847BFD1
:10279000002005490020054900F0FEFDCDE90001BB
:1027A000DDE9000103B000BD0000F0BF0000F03F14
:1027B000E0B50121102000F024F901208DF8080077
:1027C00000208DF80B0003208DF8090000208DF803
:1027D0000A000220019001A9334800F00DFA3348A5
:1027E000008850F002003149088000208DF8000078
:1027F0009DF80000002805D19DF80000401C8DF8D0
:102800000000F5E72A480088800703D50020294901
:10281000087035E00121082000F0F3F80420019051
:1028200001A9254800F0E8F92448008850F0040088
:102830002249088000208DF800009DF80000002843
:1028400005D19DF80000401C8DF80000F5E71C48FC
:102850000088400703D501201649087002E00220D5
:102860001449087000208DF8080001A9124800F0F2
:10287000C3F9124800884FF6FB7108400F490880E1
:102880000220019000208DF8080001A9064800F000
:10289000B3F9064800884FF6FD71084003490880E7
:1028A00007BD044800787047001002401410024031
:1028B00010100240D5010020000C0240140C024010
:1028C000100C0240F0B40021002200230024002557
:1028D0000026DFF8E8723F6817F00C0739000F0098
:1028E000002F06D0042F15D0082F17D00C2F19D089
:1028F00042E0DFF8D0723F68C7F342373E0001275D
:1029000016F1010C17FA0CF74FF4004C0CFB07F70B
:10291000076041E0DFF8B07207603DE0DFF8AC72BD
:10292000076039E0DFF894723F6817F470173A00D7
:10293000DFF888723F6817F440073B00DFF89072B9
:10294000920CD25D9B0D5B1CDFF870723F6817F430
:1029500080373C00002C07D1DFF86C7207FB02F7D0
:10296000B7FBF3F7076006E0DFF8607207FB02F7DA
:10297000B7FBF3F707600FE0DFF848723F68C7F373
:1029800042373E00012716F1010C17FA0CF74FF4FD
:10299000004C0CFB07F70760DFF820723F6817F068
:1029A000F00739000909DFF82C72CF5D3D00076898
:1029B000BC463CFA05FCC0F804C0DFF800723F6872
:1029C00017F4E0673900090ADFF80872CF5D3D00AF
:1029D0004768BC463CFA05FCC0F808C0DFF8DC716B
:1029E0003F6817F460573900C90ADFF8E871CF5D16
:1029F0003D004768BC463CFA05FCC0F80CC0F0BC82
:102A0000704738B504000D00DFF8CC01044201D155
:102A1000002C05D140F22F41DFF8A40100F097FD12
:102A2000EDB2002D08D0EDB2012D05D04FF4866136
:102A3000DFF88C0100F08BFDEDB2002D07D0DFF840
:102A40009C0100682043DFF89411086006E0DFF87D
:102A50008C010068A043DFF88411086031BD38B5EF
:102A600004000D00DFF87801044201D1002C05D1EB
:102A700040F25141DFF8480100F069FDEDB2002D50
:102A800008D0EDB2012D05D040F25241DFF83001FF
:102A900000F05DFDEDB2002D07D0DFF848010068C1
:102AA0002043DFF84011086006E0DFF838010068D5
:102AB000A043DFF83011086031BD38B504000D00C7
:102AC000DFF82401044201D1002C05D140F27C4101
:102AD000DFF8EC0000F03BFDEDB2002D08D0EDB2C8
:102AE000012D05D040F27D41DFF8D40000F02FFD2C
:102AF000EDB2002D07D0DFF8F40000682043DFF8C6
:102B0000EC10086006E0DFF8E4000068A043DFF89E
:102B1000DC10086031BD38B504000D00DFF8C000DE
:102B2000044201D1002C04D140F2BC41244800F001
:102B30000EFDEDB2002D07D0EDB2012D04D040F214
:102B4000BD411F4800F003FDEDB2002D07D0DFF8B6
:102B5000A00000682043DFF89810086006E0DFF866
:102B600090000068A043DFF88810086031BD38B5D8
:102B700004000D001C48044201D1002C04D140F295
:102B8000E4410F4800F0E3FCEDB2002D07D0EDB2B8
:102B9000012D04D040F2E541094800F0D8FCEDB227
:102BA000002D05D01348006820431249086004E056
:102BB00010480068A0430F49086031BD0838024042
:102BC000907A0008043802400024F40000127A00D1
:102BD000A001002078010020C06FFFFE1C380240D9
:102BE000E2ADFFFF20380240C8B5194F243802403B
:102BF00014380240183802402DE9F04104000D005D
:102C0000002600275FF00008DFF88803844218D010
:102C1000DFF88403844214D0DFF88003844210D0AC
:102C2000DFF87C0384420CD0DFF87803844208D0BC
:102C3000DFF87403844204D0C121DFF8700300F090
:102C400086FC2868002804D1C221DFF8600300F068
:102C50007EFC287900280DD0287901280AD028790F
:102C6000022807D02879032804D0C321DFF83C03C9
:102C700000F06DFCE87900280AD0E879012807D037
:102C8000E879022804D0C421DFF8200300F05FFCBB
:102C900000200600102E65D20120B04007002868F1
:102CA00038408046B8455BD1206803213200D2B25B
:102CB0005200914088432060206829793200D2B2C6
:102CC00052009140084320602879012802D02879D9
:102CD000022835D1687900280DD0687901280AD0FA
:102CE0006879022807D06879032804D0D821DFF852
:102CF000BC0200F02CFCA06803213200D2B25200CA
:102D000091408843A060A06869793200D2B2520035
:102D100091400843A060A879002807D0A87901282D
:102D200004D0DF21DFF8840200F011FCA08801212B
:102D3000B1408843A080A088A979B1400843A08011
:102D4000E06803213200D2B2520091408843E06033
:102D5000E068E9793200D2B2520091400843E06065
:102D6000761C97E7BDE8F08138B504000D00DFF868
:102D70002402844219D0DFF82002844215D0DFF803
:102D80001C02844211D0DFF8180284420DD0DFF813
:102D90001402844209D0DFF81002844205D04FF4B7
:102DA000C471DFF8080200F0D2FBADB2002D05D1EE
:102DB00040F28911DFF8F40100F0C9FB258331BD31
:102DC00038B504000D007348844213D07248844221
:102DD00010D0724884420DD0714884420AD07148A4
:102DE000844207D07048844204D040F29B116F485F
:102DF00000F0ADFBADB2002D04D14FF4CE716B48A5
:102E000000F0A5FB658331BD2DE9F04104000D0004
:102E1000160000275FF000085E48844213D05E4829
:102E2000844210D05D4884420DD05D4884420AD06F
:102E30005C48844207D05C48844204D040F20921B7
:102E40005A4800F084FBADB2002D31D0ADB2012D57
:102E50002ED0ADB2022D2BD0ADB2032D28D0ADB205
:102E6000042D25D0ADB2052D22D0ADB2062D1FD038
:102E7000ADB2072D1CD0ADB2082D19D0ADB2092DC1
:102E800016D0ADB20A2D13D0ADB20B2D10D0ADB20D
:102E90000C2D0DD0ADB20D2D0AD0ADB20E2D07D038
:102EA000ADB20F2D04D040F20A21404800F04FFB94
:102EB000F6B2002E46D0F6B2002E43D0F6B2002E67
:102EC00040D0F6B2002E3DD0F6B2002E3AD0F6B287
:102ED000002E37D0F6B2012E34D0F6B2022E31D009
:102EE000F6B2022E2ED0F6B2032E2BD0F6B2032E5F
:102EF00028D0F6B2032E25D0F6B2042E22D0F6B298
:102F0000042E1FD0F6B2052E1CD0F6B2052E19D015
:102F1000F6B2072E16D0F6B2072E13D0F6B2072E51
:102F200010D0F6B20A2E0DD0F6B20B2E0AD0F6B2A1
:102F30000E2E07D0F6B20F2E04D040F20B211B4804
:102F400000F005FBF6B215F00700C0B2800016FADB
:102F500000F00700ADB2E81014EB8000ADB2E9104C
:102F600014EB8101096A0F2215F00703DBB29B0005
:102F70009A4091430162ADB2E81014EB8000006A00
:102F800038438046ADB2E81014EB8000C0F82080D2
:102F9000BDE8F08100000240000402400008024049
:102FA000000C02400010024000140240F8790008B2
:102FB00010B50400DFF8A002844208D0DFF89C02BC
:102FC000844204D08D21DFF8980200F0C0FADFF8C7
:102FD000880284420AD101214FF48050FFF79BFD03
:102FE00000214FF48050FFF796FD0DE0DFF86C02F2
:102FF000844209D101214FF48040FFF7B8FD002140
:103000004FF48040FFF7B3FD10BD70B504000D0014
:103010000026DFF84402844208D0DFF840028442F0
:1030200004D0AF21DFF8380200F091FA2888002898
:1030300010D02888B0F5806F0CD02888B0F5004FEC
:1030400008D02888B0F5404F04D0B221DFF8100234
:1030500000F07DFA6888B0F5827F07D06888002884
:1030600004D0B321DFF8F80100F071FAA888B0F5B8
:10307000006F07D0A888002804D0B421DFF8E00151
:1030800000F065FAE888002807D0E888022804D014
:10309000B521DFF8CC0100F05AFA2889002807D0C2
:1030A0002889012804D0B621DFF8B40100F04FFAD6
:1030B0006889B0F5007F07D06889002804D0B7215F
:1030C000DFF89C0100F043FAA889002819D0A889EC
:1030D000082816D0A889102813D0A889182810D03D
:1030E000A88920280DD0A88928280AD0A8893028A6
:1030F00007D0A889382804D0B821DFF8640100F08F
:1031000026FAE889002807D0E889802804D0B92168
:10311000DFF84C0100F01BFA288A002804D1BA21FC
:10312000DFF83C0100F013FA2088060016F441563F
:10313000288869880843A9880843E98808432989B9
:10314000084369890843A9890843E9890843064374
:103150002680288A208270BD38B504000D00DFF873
:10316000F800844208D0DFF8F400844204D0FB2148
:10317000DFF8EC0000F0EBF9EDB2002D07D0EDB276
:10318000012D04D0FC21DFF8D80000F0E0F9EDB209
:10319000002D04D0208850F04000208004E02088DA
:1031A0004FF6BF710840208031BD10B50400DFF834
:1031B000A800844209D0DFF8A400844205D04FF46F
:1031C000C671DFF89C0000F0C2F9A08910BD38B5C7
:1031D00004000D00DFF88000844209D0DFF87C0095
:1031E000844205D040F29B11DFF8740000F0AFF983
:1031F000A58131BD70B504000D000026164884423B
:1032000007D01648844204D040F2EB21144800F065
:103210009EF9ADB2802D13D0ADB2402D10D0ADB21D
:10322000202D0DD0ADB2102D0AD0ADB2022D07D099
:10323000ADB2012D04D04FF43B71094800F087F97D
:103240002089284202D00120060001E0002006006B
:103250003000C0B270BD00000030014000380040B6
:10326000287B00080EB400B582B003A90091024685
:1032700000AB0121034878440A3000F053FA06BC41
:103280005DF810FB6152000010B582B00400E4B29A
:10329000602C33D0E4B2612C30D0E4B2622C2DD05B
:1032A000E4B2632C2AD0E4B2642C27D0E4B2652CBB
:1032B00024D0E4B2662C21D0E4B2672C1ED0E4B254
:1032C000682C1BD0E4B2692C18D0E4B26A2C15D05B
:1032D000E4B26B2C12D0E4B26C2C0FD0E4B26D2CA3
:1032E0000CD0E4B2702C09D0E4B2712C06D0E4B258
:1032F000722C03D06B210648FEF7F2FD2000C0B20D
:10330000FEF7F6FA00900348BDF80010018013BDE7
:103310000C7E0008B80200204268C2F30A5240F254
:10332000FF739A4209D14168090304BF006800286D
:1033300001D1012070470220704743685B0004BF41
:103340000368002B25D040F233439A1A521A012AFF
:103350001FDB352A06DB416801F000414160002196
:10336000016013E0012102F01F039940491E9206FB
:1033700007D5426811404A4042600268114300226A
:1033800002E0026811404A40026011B14FF0FF3084
:103390007047002070470001F0B44FF0004591EAFB
:1033A000030C44BF6B4000F029BC00BF841A71EBD2
:1033B000030603D2001BB141121973414FF4001CE4
:1033C0001CEB410F34BF7CEB430443E00C0DA4EB3A
:1033D0001356352E50DC45EAC323DB0A45EAC121EA
:1033E000C912B6F120050DDD63FA05F6EB4086EA59
:1033F0000305124218BF45F00105C01851F1000144
:103400000CD213E062FA06F5F2405540F3415A40FF
:10341000B340F3405A408018594107D349085FEA46
:1034200030005FEA350528BF45F0010501F5801140
:10343000420875F1004250F1000041EB0451F0BC2C
:103440004FF4001C1CEB410F38BF70470020090DE2
:10345000090570471CEB410F10D252EA43060BD00E
:10346000BCEB410F05D80C0DAB43661E342EB5DD09
:1034700002E0AB4380185941F0BC7047F0BC704784
:10348000012110F01F029140944A40B2430942F8D2
:103490002310704780B5202000F0D9FC002835D0DB
:1034A0008F4800F0F7FD8E480078C0F38000C0B26E
:1034B000002805D001208B490870012000F072FE21
:1034C00087480078C0F34010C0B2002802D0012025
:1034D000844908708248007810F00100002812D05A
:1034E00000F080FE8049086080497F480068C0B2D3
:1034F000FEF7DAFA7120FFF7C7FE002000F052FE57
:1035000001207B490860202000F0F1FC01BD80B55E
:1035100000F072F877480068052806D17648006800
:10352000B0F5E17F01DD01F04FFA71480068012834
:1035300001D101F07BF901F0ABFA70480068012875
:1035400002D100F063FEE5E701F05EF9E2E738B58D
:1035500004000D002A0021006948FFF783FEFEE702
:1035600000B587B04FF4C060009002208DF80400D1
:1035700003208DF8050000208DF8070001208DF84C
:10358000060000A95F48FFF737FB072209215D48C5
:10359000FFF73AFC07220A215A48FFF735FC4FF49F
:1035A000165002904FF48050ADF80C000020ADF89A
:1035B0000E004FF48060ADF810000C20ADF8120042
:1035C0000020ADF8140001214F4801F041FB02A991
:1035D0004D4801F065FA012240F225514A4801F0B8
:1035E00066FB012240F22771474801F060FB25206D
:1035F000FFF746FF07B000BD80B500215FF0006017
:1036000001F0ACFC01214FF48040FFF728FA0121C2
:103610000720FFF7F6F9FFF7CBF801F038FD04209B
:1036200001F0B6FC002000F061FD012000F05EFD1D
:103630000221012001F05CFDFDF736FFFFF790FF4E
:1036400001F0ECFD01F0F1FD02F010F90121002084
:1036500001F04EFD01230F220F21002001F0CAFDD1
:103660002A4802F029F92A48FCF75CFD294802F0B3
:10367000A9FA294802F029FC194800F053FC01215D
:10368000022000F063FC0121012000F05FFC012119
:10369000042000F05BFC0121202000F057FC60209A
:1036A00002F0A7FC002002F0FFFC012002F0C8FCA1
:1036B00000F00BFD194802F031FD022002F0F0FD90
:1036C00000F003FD002016490870002014494870DE
:1036D0004FF4FA6001F0E4FC01BD000000E100E0FD
:1036E0008C020020BE020020C8010020D80100206A
:1036F0008802002080020020A80200207C02002016
:10370000308300080000024000380140CC01002056
:103710001001002058010020AC01002000005C4294
:10372000440100202DE9F04F93B0804602AE002006
:1037300092461D460291B0610DF130090AE01AF877
:10374000011B0298C0470028029000F0A981B069CF
:10375000401CB0619AF8000008B9B069A2E12528C0
:10376000EDD10020F0603061706101E040F00100B7
:103770001AF8011F2029F9D023290DD02B2904D0B4
:103780002D2906D030290AD00CE040F0020080B28A
:10379000EEE740F00400FAE740F00800F7E740F0F9
:1037A0001000F4E72A290FD12968296051F8042B69
:1037B0002960002A326204D5514240F0040031628F
:1037C00080B20AF1010A15E0002131620CE0316A91
:1037D0006FF00043994205D001EB810302EB4301F6
:1037E000303931620AF1010A9AF80020A2F1300161
:1037F0000A29ECD39AF800102E2903D04FF0FF319C
:10380000F16122E01AF8011F2A2908D129682960EC
:103810000AF1010A51F8042B2960F26115E0002138
:10382000F1610CE0F1696FF00043994205D001EBC2
:10383000810302EB43013039F1610AF1010A9AF880
:103840000020A2F130010A29ECD3B0840FF2A43099
:103850009AF8001002F09AFD08B11AF8010B8DF8E1
:103860002E009DF82E00682804BF9AF800006828F2
:1038700004D162208DF82E000AF1010A0CA8B06074
:103880001AF8014B252C13D0582C38D0632C00F09B
:103890009080642C18BF692C69D06F2C2FD0702CAD
:1038A00023D0732C0AD0752C18BF782C27D08AE02F
:1038B0000120F06025208DF830008EE02868286017
:1038C00050F8044B28607460F769002F04D5204637
:1038D00002F068FD074606E03A460021204602F065
:1038E0007DFD00B1071B376177E02868286050F83C
:1038F000041B286001910CA87060782155E09DF8A8
:103900002E006C280DD0712818BF6A2809D12868AC
:10391000C01D20F007022A60D2E9000108322A60A7
:1039200004E02968296051F8040B296001909DF892
:103930002E00682802D101A8008803E0622802D185
:1039400001A80078019096F82400000728D5019876
:1039500030B344F02000782822D1F068302100F8FC
:103960000910401C411CF16000F8094018E09DF866
:103970002E00294600F099F80028019002D5F06841
:103980002D2109E0B08C810702D5F0682B2103E0DE
:10399000C00705D5F068202100F80910401CF06030
:1039A0000CA8F16808187060214601A800F0A3F87F
:1039B00013E00120F0602868286050F8041B28609C
:1039C0008DF8301009E00120F06025208DF83000DE
:1039D0001CB10220F06089F80140306AF168401A99
:1039E0007169401A3169441A96F8240040070FD4CF
:1039F00020208DF80000002708E0012300AA01A97B
:103A0000404600F0DFF800284AD17F1CA742F4DBD3
:103A1000F7680DF1300B0AE01BF8011B0298C04754
:103A2000002802903CD0B069401CB0617F1E002F7E
:103A3000F2D130208DF800004FF0000B776908E0DC
:103A4000012300AA01A9404600F0BCF840BB0BF1DD
:103A5000010BBB45F4DB3769D6F804B009E01BF86D
:103A6000011B0298C0470290D0B1B069401CB06100
:103A70007F1E002FF3D196F8240040077FF56AAE31
:103A800020208DF8000000E07F1CA742BFF662AE48
:103A9000012300AA01A9404600F094F80028F3D0C1
:103AA0004FF0FF3013B0BDE8F08F622815D06828C2
:103AB0000CD06C2818BF742816D07A2814D10A6844
:103AC0000A6052F8040B0A60002170470A680A6015
:103AD00052F8040B0A6000B20BE00A680A6052F860
:103AE000040B0A6040B204E00A680A6052F8040B52
:103AF0000A60C1177047F0B4C2686F2908BF082474
:103B000005D041F02003782B14BF0A241024182379
:103B10000668642918BF6929374602D1002E48BFBC
:103B20007F425FB9056A4DB9082C27D190F828105B
:103B3000090723D530211723D1751FE0B7FBF4F611
:103B400004FB16773037FFB25D1E3A2FA4BFA1F1F8
:103B5000510C6744AF542B46370003D085689E183C
:103B6000B542EBD3082C09D190F82810090705D5E8
:103B7000995C302902D05B1E302199549A188260DA
:103B8000C3F11801026A4161914208DA511A816158
:103B90004FF6EF72018D11400185F0BC7047002A8D
:103BA0000ED590F8282002F01402102A08D1426A9B
:103BB0000369D21A8369D21A531A012BA8BF8361F1
:103BC000F0BC7047F8B504460D4616461F46002067
:103BD00004E0E869401CE8617F1E002047B116F848
:103BE000011B6868A04700286860F2D14FF0FF30E1
:103BF000F2BD0000686C747A4C000000841A71EB0E
:103C0000030604D26E40001BB141121973414FF4F8
:103C1000001C1CEB410F34BF7CEB430684E00C0D11
:103C2000A4EB1356362E7DDC012E43DC45EAC3237C
:103C300043EA525312BFD20292025B08240545EABE
:103C4000C12141EA5051D2EBC020994125D407D17E
:103C5000B0FA80F610FA06F164D00020203608E0B1
:103C6000B1FA81F6B140C6F1200220FA02F2114306
:103C7000B0404FEAF474B4EB465434F001064FEA16
:103C800074040AD8D6F50016760D04F00044F0400E
:103C900061FA06F25040F1404840C00A40EA415003
:103CA00021F0004128BF5FEA500550F1000044EBCD
:103CB000D12137E045EAC323DB0A45EAC121C90A1D
:103CC000B6F120050EDD42EA0242120CC5F12006D3
:103CD00003FA06F6EB4042EA06056D42984161F1AF
:103CE00000010DE062FA06F5F240554063FA06FC69
:103CF00082EA0C02F3405A406D42904161EB0301AD
:103D000011F4801F05D1641E620502D06D00404190
:103D1000494121F48011430875F1004350F100003E
:103D200041EB0451F0BC70471CEB410F15D223F05E
:103D3000004352EA43060BD04FEA4C0CBCEB410F58
:103D400004D80C0D661E342EB7DDEBE7801A9941BE
:103D500050EA410608BF0021E4E708BF1CEB430F0F
:103D600028BF6FF00001DDE738B504000025207999
:103D7000002806D02079042803D081216848FFF765
:103D8000E6FB6079082809D060790C2806D06079B4
:103D9000102803D082216248FFF7D9FB2068C00DAC
:103DA000C005002802D12068002803D183215C4887
:103DB000FFF7CDFBA079002806D0A079012803D019
:103DC00084215748FFF7C3FB50480500A07900281D
:103DD00036D04E480068216888434C4908604C48FA
:103DE0000068216888434A49086020794519286895
:103DF000216808432860474800682168884345498E
:103E00000860454800682168884343490860607934
:103E100010280CD13F480068216808433D490860DC
:103E20003D480068216808433B4908600EE0374878
:103E3000050060794519286821680843286005E075
:103E400020794519286821688843286031BD38B534
:103E500004000025012C3ED0022C3CD0042C3AD08A
:103E6000082C38D0102C36D0202C34D0402C32D016
:103E7000802C30D0B4F5807F2DD0B4F5007F2AD0CF
:103E8000B4F5806F27D0B4F5006F24D0B4F5805F0F
:103E900021D0B4F5005F1ED0B4F5804F1BD0B4F52F
:103EA000004F18D0B4F5803F15D0B4F5003F12D0C4
:103EB000B4F5802F0FD0B4F5002F0CD0B4F5801FCF
:103EC00009D0B4F5001F06D0B4F5800F03D0E62169
:103ED0001348FFF73CFB11480068204202D0012044
:103EE000050001E0002005002800C0B232BD10B579
:103EF0000400E00DC005002801D1002C03D1FC21F5
:103F00000748FFF724FB0548046010BD000401408A
:103F100004040140080401400C0401401404014061
:103F2000C87800081CB5040000A800210160002C1E
:103F300001D00020206000AA04219020FDF7B2FBF0
:103F400001906848BDF80410018013BD7CB50400E1
:103F50000D000026012C5AD0022C58D0042C56D02B
:103F6000082C54D0102C52D0202C50D0402C4ED0A5
:103F7000802C4CD0B4F5807F49D0B4F5007F46D07A
:103F8000B4F5806F43D0B4F5006F40D0B4F5805FD6
:103F90003DD0B4F5005F3AD0B4F5804F37D0B4F5DA
:103FA000004F34D0B4F5803F31D0B4F5003F2ED06F
:103FB000B4F5802F2BD0B4F5002F28D0B4F5801F96
:103FC00025D0B4F5001F22D0B4F5800F1FD0B4F572
:103FD000000F1CD0B4F1807F19D0B4F1007F16D04F
:103FE000B4F1806F13D0B4F1006F10D0B4F1805FE2
:103FF0000DD0B4F1005F0AD0B4F1804F07D07FF04C
:104000000040844203D0A8213748FDF769FFEDB294
:10401000002D06D0EDB2012D03D0A9213248FDF7C5
:104020005FFF00AA04219020FDF7D1FB01902D48ED
:10403000BDF8041001800020C0B204280ADA00A9EB
:10404000C0B2415CD0F10302D2B2D20091408E19CD
:10405000401CF1E7EDB2002D01D1A64300E026435C
:104060000020C0B204280ADAD0F10301C9B2C900A5
:104070003200CA4000A9C0B24254401CF1E700AA75
:1040800004219020FDF70EFB01901648BDF80410A6
:10409000018073BD30B583B00400250000AA04215F
:1040A000FA20FDF794FB01900E48BDF80410018042
:1040B0000020C0B2042807DA00A9C0B2091AC978E2
:1040C00029706D1C401CF4E737BD00B583B001AA10
:1040D0000421FA20FDF77BFB00900248BDF8001098
:1040E000018007BDB8020020B08000081CB50400A4
:1040F000FEF7D7FB354911EBC00035490860FEF7E4
:10410000D0FB344911EB800033490860FEF7C9FB4E
:10411000324911EBC0003249086001213048006883
:10412000E4B250F82400FEF76CFC2B480068E4B2BF
:1041300030F81400009001208DF8040000208DF864
:10414000060000208DF8070003208DF8050000A967
:104150001F480068E4B250F82400FEF74DFDFEF75A
:10416000A0FB002803D0FEF79CFB01280AD11A48C7
:104170000068E4B230F8140015490968E4B251F857
:1041800024100883FEF78DFB02280AD1124800682C
:10419000E4B230F814000E490968E4B251F8241072
:1041A000088313BD0A490968C0B251F82010898AF2
:1041B000094A1268C0B232F810205140044A12680D
:1041C000C0B252F820209182704700002C010020DC
:1041D000900200201C85000894020020CC84000876
:1041E0009802002000B583B000AA0121E720FDF766
:1041F000EEFA01900448BDF8041001809DF800001B
:1042000010F07F000EBD0000B802002080B5DFF87E
:10421000F8070068002807D0022814D012D3042819
:1042200000F0BC8021D31FE1FEF7B5F86120FFF755
:104230002BF8FEF723F83C20DFF8D017086000F0D9
:1042400014F911E110E1DFF8C807006800280BD16C
:104250000120DFF8C01708600020DFF8AC17086005
:104260000220DFF8B4170860FEE0DFF8B00700684E
:1042700000287BD1DFF8A8074078DFF8A81708707E
:104280000220C0B2DFF8A017DFF8A027126811EBF8
:10429000820151F8041CC91C88420CDADFF884172B
:1042A0000978DFF87C27C0B2825C5140DFF87427C0
:1042B0001170401CE5E7DFF86C070078DFF8601745
:1042C000DFF86427DFF864371B6812EB830252F8CB
:1042D000042C5118C978884220D10320C0B2DFF8DD
:1042E0004817DFF84827126811EB820151F8041CC7
:1042F000C91C884229DADFF82817C0B2415CDFF810
:104300003027DFF830371B789954DFF82817097801
:10431000491CDFF820271170401CDFE70320C0B2E2
:10432000DFF80417DFF80427126811EB820151F857
:10433000041CC91C884208DADFF8F8160978491C01
:10434000DFF8F0261170401CE9E7DFF8EC060068A2
:10435000401EDFF8D8160968884203DA0020DFF82B
:10436000CC1608600120DFF8B4160860DFF89C0660
:104370000068002811D1DFF8B4060068002804D0D6
:104380000020DFF88416086007E00420DFF87816C4
:1043900008600220DFF8A416086065E0DFF89C06DC
:1043A000006802282FD1DFF898060068DFF894161D
:1043B0000968491E884226D1DFF874060078DFF8C4
:1043C0006416087001205F280BDADFF858160978A8
:1043D000DFF85C26825C5140DFF848261170401CF3
:1043E000F1E7DFF840060078DFF8441681F85F0057
:1043F0000520DFF848160860FDF7CDFF6120FEF7C5
:1044000043FFFDF73BFFFDF7C6FF6120FEF73CFFD2
:10441000FDF734FFDFF830060068002824D1DFF80C
:104420001C06006805281FD00020DFF8DC15086096
:10443000DFF80C060068401CDFF804160860DFF89F
:1044400000060068DFF8FC150968884207D10020E3
:10445000DFF8EC1508600A20DFF8D81508704FF473
:104460007A70DFF8E415086001BD80B5DFF8DC057F
:10447000DFF8B815096850F82100002827D0DFF8C8
:10448000A805DFF8A815096850F82110C9B2DFF8AF
:10449000BC05DFF89825126850F8220000F01CF8DF
:1044A0000120DFF864150860DFF87C05DFF87C1573
:1044B000096850F82100001DDFF894150860DFF846
:1044C0006C050068401CDFF86415086003E00020FC
:1044D000DFF85815086001BD38B504000D0007204D
:1044E000DFF870150860C620DFF86C15087004202E
:1044F000DFF8641548708020DFF85C1588702012A2
:10450000DFF85415C870DFF850050471DFF848056E
:104510004571DFF844054078DFF83C15897848405C
:10452000DFF83415C9784840DFF82C150979484080
:10453000DFF8241549794840DFF81C158871DFF849
:1045400018050078DFF8141508800120DFF8101531
:104550000860012240F22771DFF8080500F0A7FB90
:1045600031BD10B5DFF800450120DFF8B014086058
:104570000520DFF8E0140860C620DFF8DC140870BE
:104580000220DFF8D4144870B020DFF8CC14887013
:104590000020DFF8C414C870B220DFF8BC14087122
:1045A0000120DFF8BC1408600820DFF8A4140860BC
:1045B0000020DFF8B8140870DFF89C040078DFF8FA
:1045C0009C140880012240F22771DFF8980400F063
:1045D0006EFBDFF8340400680028FAD0DFF83C04F2
:1045E0000068012809DBDFF8280400680028F5D1FD
:1045F0000020DFF81414086005E1DFF82404C07817
:10460000DFF86C140870DFF818040079DFF8601424
:104610004870DFF80C044079DFF854148870DFF834
:1046200000048079DFF84814C8700120DFF8EC132B
:1046300008600520DFF81C140860C620DFF8181495
:1046400008700220DFF810144870B620DFF8081454
:1046500088700020DFF80014C870B420DFF8F81369
:1046600008710120DFF8F81308600820DFF8E01374
:104670000860DFF8E4030078DFF8E0130880012227
:1046800040F22771DFF8DC0300F011FBDFF88C0348
:104690000068012809DBDFF8780300680028F5D1FD
:1046A0000020DFF864130860ADE0DFF87403C07821
:1046B000DFF8BC130871DFF868030079DFF8B01386
:1046C0004871DFF85C034079DFF8A4138871DFF8E4
:1046D00050038079DFF89813C8710120DFF83C138C
:1046E00008600720DFF86C130860C620DFF8681345
:1046F00008700420DFF860134870B720DFF8581303
:1047000088700620DFF85013C87000F03FF9DFF81A
:10471000481308710020DFF840134871DFF83803B0
:104720000079202804D19520DFF82C13887103E04C
:10473000B520DFF8241388710120DFF82413086006
:104740000520C3490860C4480078C4490880012294
:1047500040F22771C34800F0AAFA4FF4FA7000F053
:104760009FFCAE480068012807DBA94800680028C4
:10477000F7D10020A449086045E0A9488078F728CF
:1047800041D1A748C07800283DD10120A249086046
:1047900000209D49086014F8010CC0B2A6490860C9
:1047A00000200A282DDA032101FB00410978C9B253
:1047B00011F003019C4A42F820109B4951F8201047
:1047C000AC4A032303FB0022D175032101FB004106
:1047D000B1F8011089B29D4A42F820109B4951F866
:1047E00020100912A34A032303FB002211769749E4
:1047F00051F820109F4A032303FB00225176401CEE
:10480000CFE700F08EF810BD80B5002088494870D1
:10481000874840789749C872042085498870844841
:10482000807894490873FFF79CFE01BD38B58E4C23
:1048300091480078C62865D18F4840784FF4807140
:104840008D4A927801FB002004285BD18A480079C8
:104850007949086000207849096888421ADA86494F
:10486000052202FB001149796F4A42F82010824963
:10487000052202FB0011097A4FF480727E4B052558
:1048800005FB00335B7A02FB0131704A42F82010CD
:10489000401CE0E701F0CEFD67480168C9B2601E28
:1048A00001F078FE00250A2D14DA5F4850F8251033
:1048B000C9B2032000FB054001F06CFE634850F8CC
:1048C000251089B2032000FB0540401C01F0A8FE22
:1048D0006D1CE8E701F0BEFDCF206749087000209D
:1048E000FFF760FC7220FEF7CFFC63496020FDF704
:1048F0005EF8FDF705FD6020FEF7C6FC5F48007816
:104900000028FBD05C480078AF2806D15A48C07810
:104910000A2802D100205A4908600020594908603D
:1049200031BD80B50020082806DA5149415C514A62
:104930008218D173401CF6E7374800684D498873E8
:104940004C4800783749087001205F2808DA35495B
:104950000978484A825C5140324A1170401CF4E7A1
:1049600030480078434981F85F007220FEF78CFCE4
:1049700040496020FDF71BF8FDF7C2FC6020FEF700
:1049800083FC3E4800780028FBD001BD3848007801
:10499000542809D1364840784F2805D134488078CA
:1049A000432801D120200EE031480078552809D154
:1049B0002F484078462805D12D488078422801D1DB
:1049C000202000E00020704780B57220FEF75CFCDC
:1049D00017496020FCF7EBFFFDF792FC6020FEF723
:1049E00053FC264800780028FBD0274A0421FA20EF
:1049F000FCF7EDFE00902548BDF800100180012075
:104A00000E49086001BD000054020020740200201D
:104A10006C020020580200207C0200207802002056
:104A200038020020BC020020E80000205C020020C8
:104A300060000020D4010020BC0100208002002082
:104A400068020020C401002070020020C000002085
:104A5000600200206402002044020020043801406B
:104A6000C00100200038014001000808BD020020FC
:104A70004C02002000000020D8010020BE020020CF
:104A8000A80200208802002084020020B802002032
:104A90004AF6AA2001490860704700000030004033
:104AA0002DE9F04385B004000D00002600275FF0DB
:104AB00000085FF00009DFF8FC0384420CD0DFF847
:104AC000E802844208D0DFF8E802844204D0D8210A
:104AD000DFF8D802FEF73BFD2868002804D02868DC
:104AE000DFF8D012884204D3D921DFF8C002FEF7E4
:104AF0002EFDA888002808D0A888B0F5805F04D0D3
:104B0000DA21DFF8A802FEF722FDE888002810D09D
:104B1000E888B0F5805F0CD0E888B0F5005F08D079
:104B2000E888B0F5405F04D0DB21DFF88002FEF7B3
:104B30000EFD288900280CD02889B0F5806F08D098
:104B40002889B0F5C06F04D0DC21DFF86002FEF7E1
:104B5000FEFC68894FF6F371084202D1688900288B
:104B600004D1DD21DFF84402FEF7F1FCA88900281A
:104B700010D0A889B0F5807F0CD0A889B0F5007F4F
:104B800008D0A889B0F5407F04D0DE21DFF81C02F0
:104B9000FEF7DDFC208A060036F44056E88806431E
:104BA0002682A0890600DFF804030640A888298928
:104BB0000843698908430643A681A08A060036F4A3
:104BC0004076A8890643A68200A8FDF77BFEDFF8A1
:104BD000E402844202D10398070001E00298070032
:104BE000A089000408D5192000FB07F029684900B6
:104BF000B0FBF1F0804607E0192000FB07F02968C0
:104C00008900B0FBF1F080466420B8FBF0F00001B1
:104C100006003009642101FB10808146A089000450
:104C200009D55FEAC90032306421B0FBF1F010F021
:104C30000700064308E05FEA091032306421B0FB48
:104C4000F1F010F00F000643268105B0BDE8F083B7
:104C500038B504000D00DFF84C0184420DD0DFF8B8
:104C60004801844209D0DFF84801844205D040F26F
:104C70007F11DFF83801FEF76AFCEDB2002D08D095
:104C8000EDB2012D05D04FF4C071DFF82001FEF721
:104C90005EFCEDB2002D04D0A08950F40050A0813C
:104CA00004E0A0894DF6FF710840A08131BD2DE9D7
:104CB000F04704000D00160000275FF000085FF0C9
:104CC00000095FF0000A374884420AD0364884421F
:104CD00007D03748844204D040F2B9413348FEF748
:104CE00036FCADB2282D25D0ADB240F227708542FA
:104CF00020D0ADB240F2266085421BD0ADB240F26A
:104D00002550854216D0ADB240F22440854211D0E4
:104D1000ADB240F6460085420CD0ADB240F66A1006
:104D2000854207D0ADB2602D04D040F2BA411F4891
:104D3000FEF70DFCF6B2002E07D0F6B2012E04D01D
:104D400040F2BB411948FEF702FCA2462800C0B25F
:104D50004009C0B20700ADB215F01F008046012027
:104D600010FA08F08146012F02D11AF10C0A06E070
:104D7000022F02D11AF1100A01E01AF1140AF6B258
:104D8000002E06D0DAF8000059EA0000CAF8000048
:104D900005E0DAF8000030EA0900CAF80000BDE8D2
:104DA000F08700000038014000440040587C0008B3
:104DB0000048004001093D002DE9F84304000D00C2
:104DC000002600275FF000085FF0000939488442A0
:104DD0000AD03948844207D03548844204D040F292
:104DE0003C513648FEF7B3FBADB2282D2ED0ADB204
:104DF00040F22770854229D0ADB240F2266085424C
:104E000024D0ADB240F2255085421FD0ADB240F261
:104E1000244085421AD0ADB240F64600854215D0F6
:104E2000ADB240F66A10854210D0ADB2B5F5587FEC
:104E30000CD0ADB2B5F5187F08D0ADB2B5F5B07FE6
:104E400004D040F23D511D48FEF781FB2800C0B25E
:104E50004009C0B28046ADB215F01F000700012026
:104E600010FA07F7B8F1010F02D1A089074007E057
:104E7000B8F1020F02D1208A074001E0A08A074062
:104E8000ADB2280A80B20600012010FA06F620888A
:104E90000640002F04D0002E02D00120814601E000
:104EA000002081464846C0B2BDE8F283F3E9FFFF27
:104EB000004800400038014000440040587C000891
:104EC000F8B50400002500260F27E078002806D05A
:104ED000E078012803D08C213B48FEF738FB60784E
:104EE000102803DB8D213848FEF731FBA07810280D
:104EF00003DB8E213448FEF72AFBE078002822D01D
:104F00003248006810F4E060D0F5E060000A050067
:104F1000D5F10400060038000700EF406078B0408B
:104F20000500A078384005432D01294821780D540B
:104F30000120217811F01F01884026492278521162
:104F400041F8220009E00120217811F01F0188407A
:104F500021492278521141F82200F1BD38B50400F0
:104F60000D00B4F1005F06D0B4F1006F03D0B5219D
:104F70001548FEF7ECFA1948854203D3B6211248CA
:104F8000FEF7E5FA1648284020431649086031BD6F
:104F900010B50400042C06D014F1050F03D0E12154
:104FA0000948FEF7D4FA042C06D10F48006850F0E7
:104FB00004000D49086005E00B48006830F004006B
:104FC0000949086010BD0000F07C00080CED00E00D
:104FD00000E400E000E100E080E100E0FFFF01000C
:104FE00080FFFF1F08ED00E010E000E010B440B2C9
:104FF000002808D50A01344B40B210F00F04E31822
:1050000003F8042C03E00A01304B40B2C25410BC38
:10501000704710B50400601EB0F1807F01D30120FD
:105020000EE0601E2A4908600F215FF0FF30FFF795
:10503000DDFF00202749086007202749086000207D
:1050400010BD26480068012804DB24480068401E83
:105050002249086022480068012804DB20480068D3
:10506000401E1F4908601F480068012804DB1D48D6
:105070000068401E1B4908601B480068401C1A4914
:1050800008601A480068401C18490860704780B5DD
:105090004FF4FA40FFF7BDFF00201349086001BD3F
:1050A00011490968C943814206D20F4A126812F1B8
:1050B000010FFAD1411A01E0C94309180A4A1268DE
:1050C0008A42FBD17047000018ED00E000E400E0E8
:1050D00014E000E018E000E010E000E06C020020C6
:1050E0007002002074020020AC020020A802002000
:1050F0007FB504000D000026E4B2002C06D0E4B217
:10510000012C03D0D5215248FEF721FAEDB2002D33
:1051100009D0EDB2012D06D0EDB2022D03D0D6217B
:105120004B48FEF714FAFDF7BCFB0121494AC0B217
:10513000401012EBC000E4B250F82400FDF761FC0F
:1051400001210120FDF78BFCEDB2022D03D10120DE
:105150008DF8040002E000208DF804003E48E4B21F
:10516000205C8DF807003D48E4B2205C8DF8050016
:105170003B48E4B2205C8DF806003A48E4B230F8CF
:1051800014000090FDF78DFB00A9374AC0B2401013
:1051900012EBC000E4B250F82400FDF72DFD3348B7
:1051A000E4B250F8240002903148E4B2205C8DF85B
:1051B0000C003048E4B2205C8DF80D008DF80E60D4
:1051C000EDB2012D0FD1FDF76CFB2B49E4B2615C10
:1051D0002A4AC0B212EB6000E4B2205C01F0B8FAD7
:1051E00001208DF80E00E4B2012C02D002A8FEF7D7
:1051F000BBFD7FBDF8B504000D0016001F00204860
:10520000E4B2205C8DF800008DF801508DF802604A
:105210008DF8037000A8FFF753FEF1BD80B54FF481
:1052200000511848FDF7A0FD01BD80B54FF40051B5
:105230001448FDF7C5FD002000900098B0F5F05F20
:1052400003D20098401C0090F7E701BD0000000069
:10525000BC820008FC840008963300086A27000816
:10526000A263000848850008680100204C850008FA
:105270004F670008C66E00084E670008DA63000832
:10528000C76E00080008024080B51021DFF8E8056D
:1052900001F0E5FC002809D00120DFF8E0150870D6
:1052A0001021DFF8D40501F034FD0FE00421DFF810
:1052B000C80501F0D4FC002808D00120DFF8BC1597
:1052C00008700421DFF8B00501F023FD01BD80B5B1
:1052D0001021DFF8AC0501F0C2FC002809D0012044
:1052E000DFF8981508701021DFF8940501F011FD22
:1052F0000FE00421DFF8880501F0B1FC002808D098
:105300000120DFF8781508700421DFF8740501F03A
:1053100000FD01BD2DE9F04F8FB0DFF85C0583463D
:10532000DFF86005069001210220FDF7C6FB012190
:105330000220FDF766FB5FF00008002400255FF007
:1053400000090020ADF808005FF0000A00260220E6
:105350008DF8200003208DF8210000208DF8220018
:1053600001208DF823002020079007A90698FDF75B
:1053700043FC022205210698FDF746FD0420ADF806
:1053800024000020ADF826000120ADF828000C20F4
:10539000ADF82A000020ADF82C0009A9584601F00C
:1053A0009FFA0121584601F051FA01220421584682
:1053B00001F008FC1D208DF810000F208DF8110061
:1053C0000F208DF8120001208DF8130004A8FFF7BC
:1053D00077FDFCF762F8002808D029208DF80B0033
:1053E0000DF10B020121B420FCF75CF9DFF8980401
:1053F00000680D900DA800F079FBDFF890040068BC
:105400000C900CA800F058FA012000F03EFB002799
:10541000302F6AD2DFF86404007800280BD1BDF881
:1054200008004FF6FF71884205D0BDF80800401C07
:10543000ADF80800EEE7BDF808004FF6FF718842AE
:1054400053D00020ADF808000020DFF830140870B9
:10545000082F48D35FFA88F8B8F1000F06D15846F4
:1054600001F0C7FA0400012080463CE05FFA88F8AA
:10547000B8F1010F37D1584601F0BBFA0500A4B2CC
:10548000ADB2AC4203D2281B401E814602E0281B6D
:10549000801E8146DFF8F80300681FFA89F9B0FB27
:1054A000F9F08246300001F0FFFC01F00DFDDFF85D
:1054B000E423DFF8E433FDF787F8CDE90001504637
:1054C00001F0F2FC01F000FD5FF03332DFF8CC3385
:1054D000FDF77AF8DDE90023FDF75EFFFCF7EAFC53
:1054E0000600002080467F1C92E74FF4C0604643D0
:1054F000002000F0CAFA0021584601F0A7F9002266
:105500000421584601F05EFB0021052000F074FAEA
:10551000FBF7C3FF002808D021208DF80A000DF109
:105520000A020121B420FCF7BDF8300001F0BCFCF8
:1055300001F0CAFC0022DA4BFCF76AFB01F0ECFC3C
:105540000390039801F030FD01F0AEFC01000398D8
:1055500001F03CFDD34901F0ADFD07D8039801F0FF
:1055600023FD401CD0494843059005E0039801F015
:105570001BFDCD494843059000210020FFF7B8FDF1
:105580000598FBF76AFF05980FB0BDE8F08F2DE98D
:10559000F04F8FB0B8488346BA48069001210220E8
:1055A000FDF78BFA01210220FDF72BFA5FF00008CE
:1055B000002400255FF000090020ADF808005FF02E
:1055C000000A002602208DF8200003208DF821001B
:1055D00000208DF8220001208DF823002020079064
:1055E00007A90698FDF708FB022205210698FDF79A
:1055F0000BFC0420ADF824000020ADF826000120AB
:10560000ADF828000C20ADF82A000020ADF82C00E1
:1056100009A9584601F064F90121584601F016F92C
:1056200001220421584601F0CDFA1D208DF810000A
:105630000F208DF811000F208DF8120001208DF839
:10564000130004A8FFF73CFC984800680D900DA8D3
:1056500000F04CFA964800680C900CA800F02CF969
:10566000012000F012FA0027302F64D2834800781E
:1056700000280BD1BDF808004FF6FF71884205D015
:10568000BDF80800401CADF80800EFE7BDF80800C1
:105690004FF6FF7188424ED00020ADF80800002080
:1056A00076490870082F44D35FFA88F8B8F1000FE4
:1056B00006D1584601F09DF904000120804638E0EB
:1056C0005FFA88F8B8F1010F33D1584601F091F92B
:1056D0000500A4B2ADB2AC4203D2281B401E8146E5
:1056E00002E0281B801E8146694800681FFA89F97C
:1056F000B0FBF9F08246300001F0D6FB01F0E4FB8C
:10570000644A654BFCF760FFCDE90001504601F0AB
:10571000CBFB01F0D9FB5FF03332604BFCF754FF59
:10572000DDE90023FDF738FEFCF7C4FB060000208E
:1057300080467F1C98E74FF4C0604643002000F08D
:10574000A4F90021584601F081F8002204215846AE
:1057500001F038FA0021052000F04EF9300001F088
:10576000A3FB01F0B1FB00224D4BFCF751FA01F015
:10577000D3FB0390039801F017FC01F095FB0100A7
:10578000039801F023FC474901F094FC07D80398E3
:1057900001F00AFC401C44494843059005E0039889
:1057A00001F002FC40494843059000210020FFF72A
:1057B0009FFC05980FB0BDE8F08F70B582B0FBF785
:1057C00055FE0400002003280DDA3A4931F8201074
:1057D000A4B28C4205D1374911EB800080780500D6
:1057E00001E0401CEFE7FFF7D2FE2F49B0FBF1F6D6
:1057F000EDB2012D2FD1F6B2182E24DBF6B21B2EFE
:1058000021DA29208DF8000000AA0121B420FBF73D
:1058100049FFFFF7BCFE2449B0FBF1F00600F6B2E9
:10582000182E05DBF6B21B2E02DA0020050001E07F
:105830000120050021208DF8000000AA0121B420DC
:10584000FBF730FF07E0F6B20C2E04DBF6B20E2EAB
:1058500001DA01200500FDF724F8022801D1032018
:1058600005002800C0B2FBF715FE73BD80B5FFF739
:10587000A4FFFFF74FFD01BD00040040BF02002060
:1058800000080040000402406085000864850008AC
:10589000D00100209A9999999999D93F3333E33FE0
:1058A00080842E410100003F40420F0068850008BF
:1058B0006C850008288500081CB5040000208DF8C0
:1058C00000002078052804D06D21DFF8F002FCF7F5
:1058D00007FB607801280AD06078022807D060783A
:1058E000032804D06E21DFF8D402FCF7F9FAA0787F
:1058F000002870D0A07808286DD0A07810286AD031
:10590000A078182867D0A078202864D0A07828280C
:1059100061D0A07830285ED0A07838285BD0A078FD
:10592000402858D0A078482855D0A078502852D088
:10593000A07858284FD0A07860284CD0A07868284C
:1059400049D0A078702846D0A078782843D0A07895
:10595000802840D0A07888283DD0A07890283AD0E0
:10596000A078982837D0A078A02834D0A078A8288C
:1059700031D0A078B0282ED0A078B8282BD0A0782D
:10598000C02828D0A078C82825D0A078D02822D038
:10599000A078D8281FD0A078E0281CD0A078E828CC
:1059A00019D0A078F02816D0A078FF2813D0A078BE
:1059B000002810D0A07808280DD0A07810280AD090
:1059C000A078182807D0A078202804D06F21DFF80D
:1059D000EC01FCF785FA6078A17808438DF80000A7
:1059E00000AA01212078FBF75DFE0190DFF8D001CD
:1059F000BDF80410018013BD30B583B004000D0064
:105A000000208DF80000E4B2052C04D0AB21DFF8B3
:105A1000AC01FCF765FAEDB2002D07D0EDB2012D17
:105A200004D0AC21DFF89401FCF75AFA00AA012156
:105A30002000C0B2FBF7CBFE0190DFF88401BDF877
:105A4000041001809DF8000010F004008DF80000A3
:105A5000EDB2012D06D19DF8000050F09B008DF8AD
:105A6000000005E09DF8000050F0A3008DF8000054
:105A700000AA01212000C0B2FBF714FE0190DFF85C
:105A80004001BDF80410018037BD1CB50400E4B22C
:105A9000002C06D0E4B2012C03D0F3214748FCF7D8
:105AA0001FFA00AA01210620FBF791FE019044484D
:105AB000BDF804100180E4B2002C06D09DF800006F
:105AC00050F080008DF8000005E09DF8000010F017
:105AD0007F008DF8000000AA01210620FBF7E2FDFF
