:020000040800F2
:10000000180E0020859800082596000827960008FD
:10001000299600082B9600082D9600080000000085
:100020000000000000000000000000002F96000803
:10003000319600080000000033960008CF49000800
:10004000ED980008F1980008F5980008F998000864
:10005000FD98000801990008059900080999000811
:100060000D990008119900081599000819990008C0
:100070001D99000821990008259900082999000870
:100080002D99000831990008359900083999000820
:10009000359600083D9900084199000899320008FA
:1000A00045990008499900084D99000851990008A0
:1000B00055990008C54B00080B4C000859990008D9
:1000C0005D99000861990008659900086999000820
:1000D0006D9900083D96000871990008759900080F
:1000E000799900087D990008819900088599000890
:1000F000899900088D990008919900089599000840
:10010000999900089D990008A1990008A5990008EF
:10011000A9990008AD990008B1990008B59900089F
:10012000B9990008F0B587B0040001F0B2F90700F2
:10013000A0208DF803000DF1030201219F2001F0A2
:10014000ADFAB4F900006168484301F0C3FC002235
:10015000DFF8E43801F0CCFC01F004FE0500606833
:10016000DFF8D818884204D36068DFF8D4188842D2
:1001700022D36068DFF8CC18884204D36068DFF8C7
:10018000C818884218D36068DFF8C018884204D3C2
:100190006068DFF8C41888420ED36068DFF8BC18C6
:1001A000884204D36068DFF8B818884204D3A321DA
:1001B000DFF89C0801F002FE607B002810D0607B15
:1001C00050280DD0607B10280AD0607B202807D0F3
:1001D000607B302804D0A421DFF8740801F0EEFD24
:1001E0002069642804D32069DFF86818884204D3A2
:1001F000A521DFF85C0801F0E1FDDFF8B008006838
:1002000040425FF4802190FBF1F04FF400614843DD
:10021000854208DBDFF894080068800C40F2FF712B
:100220004843A84204DAA621DFF8240801F0C6FDFD
:10023000DFF878080068C00BFF214843A1688842B6
:1002400004D2A721DFF8080801F0B8FD6069DFF8E3
:100250005C180968B0EB114F08D3DFF8500800684C
:100260000F214843800A6169884204D2A821DFF83F
:10027000E00701F0A3FDFFB2002F00F08E806320A5
:1002800001F032FB00208DF800009DF80000FF28EF
:1002900005D09DF80000401C8DF80000F5E701F046
:1002A0009BFDDFF80C080078C0B24008C0B24028BF
:1002B000E8D1DFF8F8070068DFF8F817884228D29D
:1002C000002001F07FF8DFF8E4070068DFF8E817A6
:1002D000B0FBF1F040F24C4148431A21B0FBF1F081
:1002E000A16981420FD3DFF8C4070068DFF8C8179F
:1002F000B0FBF1F0DFF8C41748431A21B0FBF1F06E
:10030000A16988422FD2BA21DFF8440701F056FDD7
:1003100029E0012001F056F8DFF890070068400856
:10032000DFF89417B0FBF1F040F24C4148431A213A
:10033000B0FBF1F0A169814210D3DFF870070068CB
:100340004008DFF87417B0FBF1F0DFF8701748438E
:100350001A21B0FBF1F0A169884204D2BF21DFF875
:10036000F00601F02BFD622001F0BEFA00208DF8AE
:1003700000009DF80000FF2805D09DF80000401CFB
:100380008DF80000F5E701F027FDDFF8240700787D
:10039000C0B24008C0B20328E8D15FF4802000FB5F
:1003A00005F0DFF808170968B0FBF1F0060030002F
:1003B00080B2001210F00F008DF80A0030008DF8A6
:1003C0000B00A0684002DFF8E41609688909B0FB59
:1003D000F1F0401C8DF80800606801F008FF0DF195
:1003E00002020121A32001F0EEF99DF8020010F0B5
:1003F000FD008DF802000DF102020121A32001F0A1
:100400004DF9606836B2DFF8A416096801FB06F101
:1004100010EB9140A168227B02FB0100DFF81C1663
:10042000884210D3606836B2DFF88016096801FB95
:1004300006F110EB9140A168227B02FB0100DFF87E
:10044000001688426AD3606836B2DFF86016096821
:1004500001FB06F110EB9140A168227B02FB010039
:10046000DFF8E015884210D3606836B2DFF83C163A
:10047000096801FB06F110EB9140A168227B02FBA9
:100480000100DFF8C415884248D3606836B2DFF84F
:100490001C16096801FB06F110EB9140A168227B54
:1004A00002FB0100DFF8A415884210D3606836B261
:1004B000DFF8F815096801FB06F110EB9140A1681F
:1004C000227B02FB0100DFF89015884226D360688A
:1004D00036B2DFF8D815096801FB06F110EB914040
:1004E000A168227B02FB0100DFF87015884210D35F
:1004F000606836B2DFF8B415096801FB06F110EB4D
:100500009140A168227B02FB0100DFF8541588426C
:1005100004D3DC21DFF8380501F050FC04AA0DF10A
:100520001101206900F006FC9DF811008DF81400FF
:10053000607B9DF8101008438DF815000DF1060240
:100540000DF10701606900F0B7FD9DF806009DF808
:10055000071051EA00108DF8160001AA0DF10501EF
:10056000A06900F095FC9DF805009DF8041051EA83
:1005700000108DF81700FFB2022F02D0FFB2032F38
:100580005AD1DFF828050068DFF89017884205D1B6
:10059000B6208DF80100B6208DF80900DFF80C05B3
:1005A0000068DFF87C17884205D1AC208DF8010087
:1005B000AC208DF80900DFF8F4040068DFF8641758
:1005C000884205D1A3208DF80100A3208DF80900F1
:1005D000DFF8D8040068DFF8DC14884205D13B203E
:1005E0008DF80100B6208DF80900DFF8C00400681E
:1005F000DFF83417884205D136208DF80100AC2091
:100600008DF80900DFF8A4040068DFF8201788429D
:1006100005D131208DF80100A3208DF809000DF1DE
:1006200001020121072001F039F80690DFF880046B
:10063000BDF81810018032E0DFF870040068DFF8C0
:10064000DC16884206D0DFF864040068DFF8641422
:10065000884202D1B6208DF80900DFF85004006806
:10066000DFF8BC16884206D0DFF840040068DFF8E7
:10067000B816884202D1AC208DF80900DFF82C04AE
:100680000068DFF8A016884206D0DFF82004006872
:10069000DFF89816884202D1A3208DF80900DFF810
:1006A0000C040068DFF8881688420ED3DFF8FC03DC
:1006B00000684008DFF86816884201D3012000E096
:1006C0000020C0B200F02CF80CE0DFF8E003006876
:1006D000DFF84C16884201D3012000E00020C0B2B0
:1006E00000F01EF814F10C0201216C2000F0D6FF7E
:1006F00002AA04210C2000F0D1FF05AA04211A202F
:1007000000F0CCFF0690DFF8A803BDF818100180B8
:10071000012000F0DFFD606800F0D2F907B0F0BD05
:100720001CB5040000208DF80000E4B2002C08D0B5
:10073000E4B2012C05D04FF4D271DFF8140301F0BC
:100740003DFB00AA0121012001F03DF80190DFF8F6
:100750006003BDF804100180E4B2012C06D19DF8BD
:10076000000050F040008DF8000005E09DF800000A
:1007700010F0BF008DF8000000AA0121012000F058
:100780008DFF0190DFF82803BDF80410018013BD30
:100790002DE9F843040000208DF8000000208DF8BA
:1007A0000100082500260F27DFF89002844203D3BA
:1007B000DFF88C0284421DD3DFF88802844203D321
:1007C000DFF88402844215D3DFF88002844203D329
:1007D000DFF8840284420DD3DFF88002844203D321
:1007E000DFF87C02844205D340F2DD11DFF86002BD
:1007F00001F0E4FADFF84402844206D3DFF8400255
:10080000844202D2062081461FE0DFF8380284428B
:1008100006D3DFF83402844202D20C20814614E071
:10082000DFF82802844206D3DFF82C02844202D289
:100830001020814609E0DFF82402844205D3DFF866
:100840002002844201D220208146DFF86C02B4FBF2
:10085000F0F05FFA89F909FB00F08046DFF8C00983
:10086000C08B804504D30F20050001208DF80000C7
:100870009DF8000000283AD16DB2DFF8A40930F8E5
:100880001500804517D36DB2DFF8940910EB4500D1
:100890004088404506D301208DF8000001208DF8E6
:1008A0000100E5E72E007FB276B2B81B022190FB73
:1008B000F1F04519DCE76DB2DFF8640910EB450093
:1008C00030F8020C804503D301208DF80000CFE7FB
:1008D0002F007FB276B2B81B022190FBF1F02D1AE7
:1008E0007FB26DB2AF42C3D100200500C0E79DF8D2
:1008F0000100002815D06DB20F2D12DA6DB2DFF8AD
:10090000200930F81500B8EB00006DB2DFF81019BF
:1009100011EB45014988B1EB080188421BD36D1CDE
:1009200019E09DF80100002815D16DB20F2D12DAE3
:100930006DB2DFF8EC0830F81500B0EB08006DB2CE
:10094000DFF8DC1811EB450131F8021CB8EB0101AE
:10095000884200D36D1E6DB2082195FBF1F000FBBB
:100960001150C0B2BDE8F28300B583B000AA0421E3
:10097000082000F028FF01904D48BDF804100180C8
:100980009DF8000010F01F009DF80110490311EBC5
:1009900040509DF8021010EB41109DF8031010EB31
:1009A000D1000EBD00B583B000AA01210B2000F0DC
:1009B0000AFF0190DFF87008BDF8041001809DF86F
:1009C000000010F00700012801D1002010E09DF880
:1009D000000010F00700032801D1012008E09DF875
:1009E000000010F00700042801D1022000E00320DD
:1009F0000EBD00B583B000AA01216C2000F0E3FE1B
:100A000001902B48BDF8041001809DF800000EBD38
:100A100000B583B000AA01210C2000F0D4FE0190A3
:100A20002348BDF8041001809DF800001F490968A3
:100A30004843C00B0EBD000080842E4180565F2EBF
:100A4000E12F0C3980E40117616A141CC060D211D7
:100A50000894000831C80700E1D7CE14408FE108A0
:100A600061D06F0A1CB500AA02210E2000F0ABFE77
:100A700001900F48BDF8041001809DF800009DF81A
:100A8000011011EB0021080502D551F4704101E07D
:100A90000905090D0C0024B2DFF8F003006800FB23
:100AA00004F05FF4802290FBF2F016BDE80900200C
:100AB000EC090020006CDC0240420F0064350C00A1
:100AC0002DE9F04F87B00400DFF86407844203D3B8
:100AD000DFF8600784421DD3DFF85C07844203D34C
:100AE000DFF85807844215D3DFF85407844203D354
:100AF000DFF8500784420DD3DFF84C07844203D35C
:100B0000DFF84807844205D340F25131DFF81C0773
:100B100001F054F9DFF81807844206D3DFF8140710
:100B2000844202D2002081461FE0DFF80C07844295
:100B300006D3DFF80807844202D20120814614E080
:100B4000DFF8FC06844206D3DFF8F806844202D2BE
:100B50000220814609E0DFF8F006844205D3DFF881
:100B6000EC06844201D203208146FFF77BFF8046DA
:100B7000FFF74EFF0500FFF73CFF060018EB0400EF
:100B8000F6B206FB0500824600F005FC471C00F0AB
:100B900080FC00283AD05FFA89F9B9F1000F2AD019
:100BA000B9F1020F0FD01AD3B9F1030F2ED1DFF82C
:100BB000A006824503D2002001F0D6FB02E001200E
:100BC00001F0D2FB22E0DFF88C06824503D2002040
:100BD00001F0CAFB02E0012001F0C6FB16E0DFF8DD
:100BE0007806824503D2002001F0BEFB02E001201E
:100BF00001F0BAFB0AE0DFF86406824503D2002068
:100C000001F0B2FB02E0012001F0AEFB5046FFF71D
:100C1000BFFD8DF810005FFA89F99B4819F80000B4
:100C200000FB04F000F056FFCDE90201FFB25FF4D3
:100C3000802000FB07F000F043FFCDE9000193485E
:100C4000006800F047FF02000B00DDE9000100F042
:100C50004FFFDDE9022301F0BBFB01F099F8834669
:100C60005FEA5B5010F01F009DF810104901084327
:100C70008DF814005FEA5B308DF815005FEA5B10B9
:100C80008DF816005FFA89F9DFF8980519F8000069
:100C900050EACB008DF8170005AA0421082000F0C7
:100CA000FDFC0090DFF88005BDF80010018001F028
:100CB0009EF907B0BDE8F08F2DE9F047FFF754FE2D
:100CC0008246FFF76FFE070000F065FB461C5046AA
:100CD00000F000FF804689466C48006800F0FAFE8C
:100CE00004000D00F6B2FFB26748385C00FB06F066
:100CF0005FF48021484300F0E3FE02000B00200077
:100D0000290000F0F5FE42464B4601F061FB01F080
:100D100041FC01F03DF8BDE8F087000000366E01AF
:100D200040787D0180BA8C0180F0FA0200751903C9
:100D300081BA8C012DE9FE4305000E00170000204A
:100D40008DF808000F245FF00009642D03D3DFF84D
:100D50001005854205D34FF47E71DFF8D00401F011
:100D60002DF800F096FB002802D000F058FB8146D9
:100D70009DF80800002812D164B2002C0FD4DFF8CF
:100D8000E4040068D4F1140119EB0101C840854264
:100D900003D301208DF80800EAE7641EE8E764B297
:100DA000002C03D50020040040B201E064B2200012
:100DB0003C700120D4F11701884000FB05F0DFF8FA
:100DC000A414096819F10502D140B0FBF1F0804686
:100DD0000020C0B2032825DA5FFA88F8C0B210EB11
:100DE0000801491E002915D05FFA88F8C0B210EB3F
:100DF0000801FF31DFF86C24126819F10503DA40AD
:100E00005143D4F11702D140691AC0B200AA22F8A6
:100E1000101005E0C0B200A947F6FF7221F81020BB
:100E2000401CD6E74FF6FF700021C9B2032928DA2B
:100E3000C9B200AA32F91120012A04DBC9B200AA02
:100E400032F9112004E0C9B200AA32F9112052424D
:100E500080B2824213DAC9B200AA32F91120012A03
:100E600004DBC9B200A830F8110004E0C9B200A840
:100E700030F91100404211EB0802521E3270491C39
:100E8000D3E7BDE8F7830000D4980008E809002004
:100E90002DE9FE4F04000D00160000208DF8000023
:100EA00000208DF801005FF02C0B5FF000085FF070
:100EB00059095FF0010A00F0ECFA002808D000F0B0
:100EC000AEFA002802D00220824601E001208246CC
:100ED000DFF8900300685FFA8AFAB0FBFAF0DFF8F7
:100EE0008813B0FBF1F040F24C4148431A21B0FBAB
:100EF000F1F0844212D3DFF86C0300685FFA8AFADB
:100F0000B0FBFAF0DFF86013B0FBF1F0DFF85C1330
:100F100048431A21B0FBF1F0A04205D240F24C4107
:100F2000DFF8080300F04AFFDFF8380300685FFAD3
:100F30008AFAB0FBFAF06421B0FBF1F09DF80010E2
:100F400000294ED14FFA8BFBDFF8241331F81B1028
:100F5000414340F62822B1FBF2F1A14222D24FFADE
:100F60008BFBDFF80C1311EB4B0131F8021C4143F2
:100F700040F62822B1FBF2F1A14206D301218DF8FF
:100F8000001001218DF80110D8E7D9464FFA89F9F0
:100F90004FFA88F8B9EB0801022291FBF2F1BBEBA2
:100FA000010BCBE74FFA8BFBDFF8C41211EB4B01BF
:100FB0004988414340F62822B1FBF2F18C4203D329
:100FC00001218DF80010B9E7D8464FFA89F94FFA98
:100FD00088F8B9EB0801022291FBF2F111EB0B0B3F
:100FE000ACE75F460021C9B2032927DA7FB2C9B254
:100FF000CA19521E002A05D57FB2C9B2CA19521E9B
:101000005A2A13DA7FB2C9B2CA19DFF8643213EB75
:10101000420232F8022C424340F62823B2FBF3F29C
:10102000A21AC9B201AB23F8112005E0C9B201AA86
:1010300047F6FF7322F81130491CD4E74FF6FF71D1
:101040000022D2B2032A27DAD2B201AB33F912302E
:10105000012B04DBD2B201AB33F9123004E0D2B27F
:1010600001AB33F912305B4289B28B4212DAD2B251
:1010700001AB33F91230012B04DBD2B201A931F8F4
:10108000121004E0D2B201A931F912104942D31969
:101090005B1E9B46521CD4E74FFA8BFB09229BFB3D
:1010A000F2F232704FFA8BFB09229BFBF2F302FB48
:1010B00013B22A70BDE8F78F2DE9FE4305000E003C
:1010C000170000208DF8080009245FF00008DFF801
:1010D00094010068B5EB104F07D3DFF88801006872
:1010E0000F214843800AA84205D240F29C41DFF814
:1010F0003C0100F063FE00F0CCF9002801D018F1AB
:1011000001089DF80800002811D164B2002C0ED40B
:10111000DFF85001006818F10F01091BC840854233
:1011200003D301208DF80800EBE7641EE9E764B201
:10113000002C03D50020040040B201E064B220007E
:101140003C70D4F10C0018EB000015FA00F0DFF849
:10115000141109688909B0FBF1F081465FFA89F939
:10116000B9F1080F01DBB9F108090020C0B203286A
:1011700025DA5FFA89F9C0B210EB0901491E082986
:1011800015DADFF8E010096889095FFA89F9C0B259
:1011900010EB0902D21D5143D4F10C0218EB0202EC
:1011A000D140691AC0B200AA22F8101005E0C0B2FE
:1011B00000A947F6FF7221F81020401CD6E74FF631
:1011C000FF700021C9B2032928DAC9B200AA32F996
:1011D0001120012A04DBC9B200AA32F9112004E06F
:1011E000C9B200AA32F91120524280B2824213DA07
:1011F000C9B200AA32F91120012A04DBC9B200A841
:1012000030F8110004E0C9B200A830F911004042E2
:1012100011EB0902521E3270491CD3E7BDE8F78377
:10122000CC970008D8980008EC0900200894000822
:1012300080565F2EE12F0C3980E40117616A141C7F
:10124000C060D211E1D7CE14408FE10861D06F0A9F
:10125000E2F49C09C4E93913068DA2190B1A45332F
:1012600031C80700E809002040420F0064350C0037
:10127000688D00081CB50400E4B2002C0ED0E4B266
:10128000402C0BD0E4B2802C08D0E4B2C02C05D0A6
:1012900040F2FF61DFF89C0000F090FD00AA012100
:1012A000182000F090FA9DF8000010F03F008DF833
:1012B00000009DF8000020438DF8000000AA0121E5
:1012C000182000F0EBF90190DFF86C00BDF8041075
:1012D000018013BD1CB5040000208DF80000E4B2AD
:1012E000002C07D0E4B2012C04D04FF4FB6111486C
:1012F00000F064FD00AA01211E2000F064FAE4B2AF
:10130000012C06D19DF8000050F080008DF80000FF
:1013100005E09DF8000010F07F008DF8000000AAA5
:1013200001211E2000F0BAF901900348BDF8041015
:10133000018013BD08940008EC0900201CB50400CE
:10134000E4B2002C07D0E4B2012C04D040F6B13155
:10135000424800F033FD00AA01219E2000F033FA3C
:10136000E4B2012C06D19DF8000050F080008DF809
:10137000000005E09DF8000010F07F008DF80000EF
:1013800000AA01219E2000F089F901903248BDF8A1
:101390000410018013BD00B583B000AA01219E2076
:1013A00000F011FA01902C48BDF8041001809DF85E
:1013B0000000C0B2C009C0B2002801D0012000E086
:1013C00000200EBD1CB50400E4B2002C07D0E4B22E
:1013D000012C04D040F6E531204800F0EFFC00AAD3
:1013E0000121B42000F0EFF9E4B2012C06D19DF800
:1013F000000010F0F7008DF8000005E09DF80000F7
:1014000050F008008DF8000000AA0121B42000F07F
:1014100045F901901048BDF80410018013BD00B5D6
:1014200083B000AA0121B42000F0CDF901900A4850
:10143000BDF8041001809DF80000C0F3C000C0B2E8
:10144000002801D0002000E001200EBD0448006803
:101450007047034908607047EC09002008940008B1
:10146000E809002000B583B000AA0221F02000F0B6
:10147000AAF901900848BDF8041001809DF8000009
:101480009DF8011051EA002080B20EBD034908709A
:101490007047024800787047EC0900206D01002079
:1014A00000B587B001F011F9C0B2DFF8F41551F8BA
:1014B0002000DFF8F015086001F007F9DFF8E81503
:1014C00011EB4000DFF8E415086001F0FEF8DFF8EA
:1014D000E01511EB8000DFF8DC15086001F0F5F88D
:1014E000002853D101214FF4805001F0C3F90121AC
:1014F000102001F091F905220F21DFF8BC0501F061
:101500008FFB05220E21DFF8B00501F089FB0522D3
:101510000D21DFF8A40501F083FB02208DF8040003
:1015200000208DF8060002208DF8070003208DF8BA
:1015300005004FF40050009000A9DFF87C0501F091
:1015400067FA4FF48040009000A9DFF86C0501F0C5
:101550005FFA4FF40040009000A9DFF85C0501F04D
:1015600057FA4FF48050009001208DF804000020BD
:101570008DF8060001208DF8070003208DF8050086
:1015800000A9DFF8340501F043FA4EE00121012003
:1015900001F042F905220721DFF8200501F040FBA8
:1015A00005220621DFF8140501F03AFB052205218A
:1015B000DFF8080501F034FB02208DF8040000205C
:1015C0008DF8060002208DF8070003208DF8050035
:1015D0002020009000A9DFF8E40401F019FA40206F
:1015E000009000A9DFF8D40401F012FA80200090E6
:1015F00000A9DFF8C80401F00BFA102000900120C8
:101600008DF8040000208DF8060001208DF80700F9
:1016100003208DF8050000A9DFF8A00401F0F8F917
:1016200001214FF4805001F025F9DFF878040068BB
:1016300001F0CAFB4FF48270ADF80A000020ADF84B
:1016400008000020ADF80C000020ADF80E000020CE
:10165000ADF810004FF40070ADF812000820ADF89E
:1016600014000020ADF816000720ADF8180002A9FC
:10167000DFF83004006801F0D4FB0121DFF8240416
:10168000006801F075FCDFF82C0400680068DFF8E2
:101690001C1409680988018307B000BD2DE9F041D9
:1016A00084B004000D0016000020ADF802000DF11A
:1016B000020700208DF804008DF8054072B6DFF8AF
:1016C000F40300680068DFF8E413096809884183BF
:1016D0000020ADF80000BDF80000002805D1BDF8DD
:1016E0000000401CADF80000F5E75FF00008B8F11D
:1016F000020F2BDA0221DFF8AC03006801F086FC50
:101700000028F7D001A818F8001089B2DFF8940378
:10171000006801F068FC0121DFF88803006801F02F
:1017200075FC0028F7D0DFF87C03006801F049FC65
:10173000BDF8021080B2D8F10102D2B2D2009040BE
:101740004018ADF8020018F10108D0E75FF000087A
:10175000EDB2A8451FDA0221DFF84803006801F066
:1017600055FC0028F7D018F8061089B2DFF83403CA
:10177000006801F038FC0121DFF82803006801F05F
:1017800045FC0028F7D0DFF81C03006801F019FCC5
:1017900018F10108DCE70221DFF80803006801F016
:1017A00035FC0028F7D0DFF80C0300680068DFF88C
:1017B000FC1209680988018362B638880290029891
:1017C00004B0BDE8F0812DE9FE4304000D001600D1
:1017D0000020ADF802000DF102074FF0FF080120D4
:1017E0008DF804008DF8054072B6DFF8C802006875
:1017F0000068DFF8B8120968098841830020ADF855
:101800000000BDF80000002805D1BDF80000401C14
:10181000ADF80000F5E75FF00009B9F1020F2BDA2F
:101820000221DFF88002006801F0F0FB0028F7D009
:1018300001A819F8001089B2DFF86802006801F009
:10184000D2FB0121DFF85C02006801F0DFFB002819
:10185000F7D0DFF85002006801F0B3FBBDF80210CA
:1018600080B2D9F10102D2B2D20090404018ADF856
:10187000020019F10109D0E75FF00009EDB2A945B6
:101880001EDA02218748006801F0C0FB0028F8D06A
:101890005FFA88F8414689B28248006801F0A3FBEC
:1018A00001218048006801F0B1FB0028F8D07D4894
:1018B000006801F086FB3070761C19F10109DDE744
:1018C00002217848006801F0A1FB0028F8D079488F
:1018D00000680068754909680988018362B638881C
:1018E00002900298BDE8FE8370B584B00400002029
:1018F000ADF802000DF1020580208DF804008DF88E
:10190000054072B66B480068006868490968098834
:1019100041830020ADF80000BDF80000002805D18B
:10192000BDF80000401CADF80000F5E70026022ECF
:1019300025DA02215B48006801F068FB0028F8D036
:1019400001A8315C89B25748006801F04CFB0121C5
:101950005448006801F05AFB0028F8D0514800684C
:1019600001F02FFBBDF8021080B2D6F10102D2B215
:10197000D20090404018ADF80200761CD7E7022153
:101980004848006801F042FB0028F8D04948006848
:101990000068464909680988018362B62888029070
:1019A000029804B070BDFEB504000D000020ADF833
:1019B00002000DF1020600208DF80400FF208DF8D2
:1019C000050072B63B480068006838490968098814
:1019D00041830020ADF80000BDF80000002805D1CB
:1019E000BDF80000401CADF80000F5E70027022F0D
:1019F00025DA02212B48006801F008FB0028F8D006
:101A000001A8395C89B22748006801F0ECFA01218D
:101A10002448006801F0FAFA0028F8D0214800684C
:101A200001F0CFFABDF8021080B2D7F10102D2B2B4
:101A3000D20090404018ADF802007F1CD7E7002785
:101A4000E4B2A74219DA02211648006801F0DEFA72
:101A50000028F8D0795D89B21248006801F0C3FA15
:101A600001211048006801F0D1FA0028F8D00D4893
:101A7000006801F0A6FA7F1CE2E70221094800682D
:101A800001F0C4FA0028F8D00A4800680068074945
:101A900009680988018362B6308802900298FEBD09
:101AA0001C010020C0090020B8980008C8090020C7
:101AB00028010020C409002000100240000002405C
:101AC000010040F10980F446404200F005F851F071
:101AD00000416047010000BF09D0B0FA80F18840A2
:101AE000C91CC1F58461090501EBD021400570478F
:101AF000F0B540F2FF7581EA030C0CF0004C15EADA
:101B000011541DBF15EA1357AC42AF42E5E0BC418A
:101B1000C1F31301C3F31303801A994143F48013F3
:101B200004D2641E4000494180185941C90241EA6B
:101B30005051B1FBF3F603FB1611A2FB0675D7EB70
:101B4000C020A94102D2761E80185941C90241EA3B
:101B50005051B1FBF3FE03FB1E11A2FB0E75D7EB38
:101B6000C020A94103D2AEF1010E8018594189026B
:101B700041EA9051760546EA8E2EB1FBF3F603FB5F
:101B80001611A2FB0675D7EB8020A94102D2761E62
:101B900080185941C90241EA50514EEA060EB1FB84
:101BA000F3F603FB1611A2FB0675D7EBC020A94183
:101BB00002D2761E80185941C90241EA5051B1FB48
:101BC000F3F703FB1711A2FB0735D3EBC020A941A4
:101BD00067F100070CBF004247F0010766F3D52705
:101BE0004FEA1E31B80814F5806412DDBD0775F1A7
:101BF000004250EB0E5051EB045111F5801F5CBFB9
:101C000041EA0C01F0BD4CF07F6141F0E041002061
:101C1000F0BDBD076D0840EA0E5041F48011D4F1CB
:101C20000104B4F120060ADAC4F120060200E04003
:101C300001FA06F3E1401843B24015430EE0342C9C
:101C400013DCC6F1200445EA40056D0820FA06F2CF
:101C5000154321FA06F0A1400D43002175F1004221
:101C600050F1000051EB0C01F0BD00205FEA0C01C7
:101C7000F0BDCFB992185B41B3FA83F704BFB2FA53
:101C800082F6BF190B3FB7F120062FBF02FA06F309
:101C9000BB40C7F1200622FA06F638BF3343BA40EC
:101CA0001CB1E419641E33E77F4231F00041B1FA00
:101CB00081F404BFB0FA80F6A4190B3CB4F12006FD
:101CC0002FBF00FA06F1A140C4F1200620FA06F663
:101CD00038BF3143A0403C1B1AE7AC421ABF05EAAB
:101CE0001357AF4212E050EA41061CBF52EA4306C6
:101CF000BFE750EA4107304661461CBF41EA055143
:101D0000F0BD52EA430C08BFC143F0BD00204FF4C0
:101D1000001616EB410F98BF16EB430F08BF16EBEA
:101D2000410F24BFC14305E016EB430F0CBF6146D2
:101D30004CEA0551F0BD10B450F8041B81B10268A3
:101D40001218001D50F8043BDC0744BFA9F1010440
:101D5000E31852F8044B43F8044B091FF9D1EBE7A1
:101D600010BC7047F446400D40EAC120490006D23D
:101D700000F014F8004248BF6FF00040604700F0E8
:101D80000DF84FF0004188428CBF08464042604742
:101D9000400D40EAC120490080F00D8040F0004035
:101DA000490DA1F58061491C05D4D1F11F0154BF33
:101DB000C840C01770474FF00000704738B50400A6
:101DC0000D002A002100094801F058F92A002100DD
:101DD000064801F053F9F9E780B500AA0121C020B7
:101DE000FFF7F1FC0249086001BD00000097000800
:101DF000EC0900202DE9F04F87B00400DFF8FC0368
:101E0000844203D3DFF8F80384421CD3DFF8F403E1
:101E1000844203D3DFF8F003844214D3DFF8EC03E9
:101E2000844203D3DFF8E80384420CD3DFF8E403F1
:101E3000844203D3DFF8E003844204D35021DFF867
:101E4000DC03FFF7BBFFDFF8B403844206D3DFF8FF
:101E5000B003844202D2002081461FE0DFF8A403D1
:101E6000844206D3DFF8A003844202D201208146D7
:101E700014E0DFF89803844206D3DFF89403844229
:101E800002D20220814609E0DFF88803844205D3AC
:101E9000DFF88403844201D203208146FEF7E2FD8D
:101EA0008046FEF7B5FD0500FEF7A3FD060018EB22
:101EB0000400F6B206FB05008346FFF76CFA471CE8
:101EC000FFF7E7FA00283AD05FFA89F9B9F1000F75
:101ED0002AD0B9F1020F0FD01AD3B9F1030F2ED1C6
:101EE000DFF83C03834503D2002000F03DFA02E016
:101EF000012000F039FA22E0DFF82803834503D2FD
:101F0000002000F031FA02E0012000F02DFA16E086
:101F1000DFF81403834503D2002000F025FA02E025
:101F2000012000F021FA0AE0DFF80003834503D224
:101F3000002000F019FA02E0012000F015FA5846DE
:101F4000FEF726FC8DF81000FFF780FA824620008D
:101F5000FFF7C0FDCDE90201FFB25FFA89F9DFF8B2
:101F6000D00219F8000000FB07F05FF4802148431D
:101F7000FFF7A6FDCDE900015046FFF7ABFD0200DB
:101F80000B00DDE90001FFF7B3FDDDE9022300F0FE
:101F90001FFAFFF7FDFE06900698400D10F01F0097
:101FA0009DF81010490108438DF814000698400B65
:101FB0008DF81500069840098DF8160006985FFA0E
:101FC00089F9DFF8701219F8011051EAC0008DF894
:101FD000170005AA04210820FFF760FB0090DFF836
:101FE0005802BDF80010018007B0BDE8F08F2DE960
:101FF000F04782B000275FF00008FFF727FA81461C
:10200000FFF747FA8246DFF8340281450ED3FFF727
:10201000C2F900280AD101200700FEF74DFE060094
:102020000120FFF78BF93000FFF7E4FEFEF744FED6
:10203000060019208DF8000000AA0121A120FFF759
:102040002DFB012000F00AF9FFF7C6FEDFF8E801DA
:102050000078C0B24008C0B240280DD101208046AF
:10206000622001F01DF8FFF7B7FE73480078C0B298
:102070004008C0B20328F6D1662001F011F8FFF73E
:10208000ABFE6D480078C0B24008C0B20F28F6D150
:1020900000F015F90500622001F002F8FFF79CFE40
:1020A00065480078C0B24008C0B20328F6D1634842
:1020B000814508D35FFA8AFABAF1010F03D160486B
:1020C0008019FFF797FE652000F0EAFFFFF784FE16
:1020D00059480078C0B24008C0B20F28F6D100F0CD
:1020E000EEF80400622000F0DBFFFFF775FE5248B7
:1020F0000078C0B24008C0B20328F6D15FFA88F871
:10210000B8F1010F02D1632000F0CAFF002000F0F7
:10211000A5F8FFB2002F07D1484881450AD35FFADE
:102120008AFABAF1010F05D10020FFF707F9300054
:10213000FFF760FE11208DF8000000AA0121A12008
:10214000FFF7ACFA2800C0B200F0CAF82000C0B215
:1021500000F0E8F8BDE8F38738B53A480078002881
:1021600044D0FFF773F90400FFF793F90500EDB2CF
:10217000012D06D13148844203D333480068FFF76C
:1021800039FE314800683149884208D32E4800683A
:102190002F49884203D2C020FFF76CF813E0EDB25C
:1021A000032D0DD1284800682A49884208D32648C3
:1021B00000682949884203D28020FFF75BF802E0DB
:1021C0000020FFF757F811208DF8000000AA012128
:1021D000A920FFF763FA20208DF8000000AA012152
:1021E000A520FFF75BFA17480021017031BD1549A2
:1021F00002220A70144908607047000080565F2E62
:10220000E12F0C3980E40117616A141CC060D211FF
:10221000E1D7CE14408FE10861D06F0A788F0008B3
:10222000E2F49C09C4E93913068DA2190B1A45334F
:10223000D0980008CC980008EC09002081BA8C01E5
:102240002C5407006E010020E409002080D1F00822
:1022500081A1031CC05570338125DB331CB50400FC
:10226000E4B2002C06D0E4B2012C03D08F215648F2
:10227000FFF7A4FD00AA01215020FFF7A4FA019066
:102280005248BDF804100180E4B2012C06D19DF83B
:10229000000050F002008DF8000005E09DF80000FD
:1022A00010F0FD008DF8000000AA01215020FFF77A
:1022B000F5F901904548BDF80410018013BD00B543
:1022C00083B000AA0121E520FFF77DFA01903F4885
:1022D000BDF8041001809DF8000010F07F000EBDD5
:1022E0001CB5040000AA01216E20FFF76CFA0190D2
:1022F0003648BDF8041001809DF8000010F0800001
:102300008DF800009DF8000020438DF8000000AA21
:1023100001216E20FFF7C2F901902C48BDF804108E
:10232000018013BD1CB5040000AA01216F20FFF736
:102330004AFA01902548BDF8041001809DF800007C
:1023400010F080008DF800009DF8000020438DF80B
:10235000000000AA01216F20FFF7A0F901901B489F
:10236000BDF80410018013BD10B582B00400E4B2C2
:10237000002C07D0E4B2012C04D04FF4CF711248E6
:10238000FFF71CFD00AA01219E20FFF71CFA9DF813
:10239000000010F0F9008DF80000E4B2012C06D125
:1023A0009DF8000050F002008DF8000005E09DF857
:1023B000000050F004008DF8000000AA01219E20CA
:1023C000FFF76CF913BD0000CC8E0008EC0900206B
:1023D000B0B581EA030C0CF0004C40F2FF7515EA31
:1023E00011541DBF15EA1357AC42AF4239E0E4194E
:1023F00023EA455343F48013C90241F0004141EA06
:10240000505EC7021100A7FB020200284FF0000037
:10241000EEFB01204FF00001E3FB072118BF42F063
:102420000102401800214941E3FB0E01A4F580643C
:102430000F0302D252004041494154F101046CDDC6
:10244000470872F1004250F1000051EB0451A1F530
:1024500080115CBF41EA0C01B0BD4CEA055100207F
:10246000B0BD05EA1357AC4214BFAF4241E050EA99
:10247000410E1CBF52EA430E02E061460020B0BD8F
:1024800024423C441BD15FEA070EF6D0090302BF89
:1024900001460020AEF1140EB1FA81F7AEEB07044D
:1024A00001FA07FE0C37C7F1200100FA07F7C84010
:1024B0004EEA000E23EA455343F48013A2E733F0BB
:1024C0000043B3FA83F704BFB2FA82FE77440B3FAE
:1024D000E41BB7F1200E2FBF02FA0EF3BB40C7F189
:1024E000200E22FA0EFE38BF43EA0E03BA40641CE7
:1024F00082E750EA410E14BF52EA430E6FF000012A
:102500004FF4001717EB430F8ABF194617EB410F23
:10251000B5E74CEA05510020B0BDD4F10104B4F197
:1025200020070FDAC4F12007520828BF42F0010249
:1025300010FA07F501FA07F7E1BF2A43E0403843F4
:10254000E1400FE0352C98DCC7F1200452EA40024C
:1025500020FA07F218BF42F0010231FA07F0A14059
:102560000A43002172F1004250F1000051EB0C01CE
:10257000B0BD50F8041B61B150F8042BD30744BF21
:10258000A9F101039A18002342F8043B091FFAD16C
:10259000EFE7704783B5012100A800F0C9FD401E98
:1025A000012811D9002100A800F0C2FD60B10198F6
:1025B000DDE90023002847BF002005490020054928
:1025C00000F0F6FDCDE90001DDE9000103B000BD3A
:1025D0000000F0BF0000F03FE0B50121102000F046
:1025E0001BF901208DF8080000208DF80B00032056
:1025F0008DF8090000208DF80A000220019001A941
:10260000334800F005FA3348008850F002003149A1
:10261000088000208DF800009DF80000002805D1FA
:102620009DF80000401C8DF80000F5E72A4800885E
:10263000800703D529480021017035E001210820D9
:1026400000F0EAF80420019001A9254800F0E0F923
:102650002448008850F004002249088000208DF8AA
:1026600000009DF80000002805D19DF80000401CE6
:102670008DF80000F5E71C480088400703D517488F
:102680000121017002E015480221017000208DF83F
:10269000080001A9124800F0BBF9124800884FF663
:1026A000FB7108400F4908800220019000208DF83E
:1026B000080001A9064800F0ABF9064800884FF66B
:1026C000FD7108400349088007BD04480078704741
:1026D0000010024014100240101002406C01002053
:1026E000000C0240140C0240100C0240F0B4002117
:1026F00000220023002400250026DFF8D8723F685E
:1027000017F00C0739000F00002F06D0042F15D04A
:10271000082F17D00C2F19D042E0DFF8C0723F68A5
:10272000C7F342373E00012716F1010C17FA0CF7E8
:102730004FF4004C0CFB07F7076041E0DFF8A07294
:1027400007603DE0DFF89C72076039E0DFF88472D3
:102750003F6817F470173A00DFF878723F6817F493
:1027600040073B00920CDFF88072D25D9B0D5B1C32
:10277000DFF860723F6817F480373C00002C07D107
:10278000DFF85C7207FB02F7B7FBF3F7076006E0C0
:10279000DFF8507207FB02F7B7FBF3F707600FE0B3
:1027A000DFF838723F68C7F342373E00012716F161
:1027B000010C17FA0CF74FF4004C0CFB07F70760FD
:1027C000DFF810723F6817F0F00739000909DFF8E9
:1027D0001C72CF5D3D000768EF404760DFF8F47181
:1027E0003F6817F4E0673900090ADFF80072CF5D2F
:1027F0003D004768EF408760DFF8D8713F6817F405
:1028000060573900C90ADFF8E471CF5D3D004768C1
:10281000EF40C760F0BC704738B504000D00DFF82A
:10282000D001044201D1002C05D140F22F41DFF844
:10283000A80100F0C2FDEDB2002D08D0EDB2012DCF
:1028400005D04FF48661DFF8900100F0B6FDEDB2DF
:10285000002D07D0DFF89C0100682043DFF89411B9
:10286000086006E0DFF88C010068A043DFF88411FF
:10287000086031BD38B504000D00DFF87C0104426A
:1028800001D1002C05D140F25141DFF84C0100F09C
:1028900094FDEDB2002D08D0EDB2012D05D040F22F
:1028A0005241DFF8340100F088FDEDB2002D07D071
:1028B000DFF8480100682043DFF84011086006E0B7
:1028C000DFF838010068A043DFF83011086031BD3F
:1028D00038B504000D00DFF82801044201D1002CB6
:1028E00005D140F27C41DFF8F00000F066FDEDB26A
:1028F000002D08D0EDB2012D05D040F27D41DFF86A
:10290000D80000F05AFDEDB2002D07D0DFF8F4003A
:1029100000682043DFF8EC10086006E0DFF8E40010
:102920000068A043DFF8DC10086031BD38B5040052
:102930000D00DFF8C400044201D1002C04D140F2A4
:10294000BC41254800F039FDEDB2002D07D0EDB2B5
:10295000012D04D040F2BD411F4800F02EFDEDB224
:10296000002D07D0DFF8A00000682043DFF89810A2
:10297000086006E0DFF890000068A043DFF88810E8
:10298000086031BD38B504000D001D48044201D176
:10299000002C04D140F2E4410F4800F00EFDEDB2EE
:1029A000002D07D0EDB2012D04D040F2E5410A48D8
:1029B00000F003FDEDB2002D05D01448006820435F
:1029C0001249086004E011480068A0430F490860FC
:1029D00031BD000008380240408B00080438024036
:1029E0000024F40000127A00340100200C010020C1
:1029F000C06FFFFE1C380240E2ADFFFF20380240EE
:102A0000C8B5194F24380240143802401838024023
:102A10002DE9F04104000D00002600275FF00008BA
:102A2000DFF88803844218D0DFF88403844214D08E
:102A3000DFF88003844210D0DFF87C0384420CD09E
:102A4000DFF87803844208D0DFF87403844204D0AE
:102A5000C121DFF8700300F0B0FC2868002804D121
:102A6000C221DFF8600300F0A8FC287900280DD00F
:102A7000287901280AD02879022807D02879032844
:102A800004D0C321DFF83C0300F097FCE87900286C
:102A90000AD0E879012807D0E879022804D0C421B7
:102AA000DFF8200300F089FC00200600102E65D21C
:102AB0000120B0400700286838408046B8455BD107
:102AC000206803213200D2B2520091408843206036
:102AD000206829793200D2B2520091400843206028
:102AE0002879012802D02879022835D16879002870
:102AF0000DD0687901280AD06879022807D0687952
:102B0000032804D0D821DFF8BC0200F056FCA068EE
:102B100003213200D2B2520091408843A060A068E5
:102B200069793200D2B2520091400843A060A8797E
:102B3000002807D0A879012804D0DF21DFF884021B
:102B400000F03BFCA0880121B1408843A080A08810
:102B5000A979B1400843A080E06803213200D2B2D5
:102B6000520091408843E060E068E9793200D2B2D7
:102B7000520091400843E060761C97E7BDE8F08181
:102B800038B504000D00DFF82402844219D0DFF8C4
:102B90002002844215D0DFF81C02844211D0DFF8F5
:102BA000180284420DD0DFF81402844209D0DFF805
:102BB0001002844205D04FF4C471DFF8080200F01F
:102BC000FCFBADB2002D05D140F28911DFF8F40114
:102BD00000F0F3FB258331BD38B504000D007348C8
:102BE000844213D07248844210D0724884420DD07F
:102BF000714884420AD07148844207D070488442A8
:102C000004D040F29B116F4800F0D7FBADB2002D0D
:102C100004D14FF4CE716B4800F0CFFB658331BD1A
:102C20002DE9F04104000D00160000275FF00008B8
:102C30005E48844213D05E48844210D05D4884428E
:102C40000DD05D4884420AD05C48844207D05C487D
:102C5000844204D040F209215A4800F0AEFBADB2E4
:102C6000002D31D0ADB2012D2ED0ADB2022D2BD022
:102C7000ADB2032D28D0ADB2042D25D0ADB2052DB7
:102C800022D0ADB2062D1FD0ADB2072D1CD0ADB2F3
:102C9000082D19D0ADB2092D16D0ADB20A2D13D022
:102CA000ADB20B2D10D0ADB20C2D0DD0ADB20D2D9F
:102CB0000AD0ADB20E2D07D0ADB20F2D04D040F228
:102CC0000A21404800F079FBF6B2002E46D0F6B259
:102CD000002E43D0F6B2002E40D0F6B2002E3DD0EA
:102CE000F6B2002E3AD0F6B2002E37D0F6B2012E50
:102CF00034D0F6B2022E31D0F6B2022E2ED0F6B279
:102D0000032E2BD0F6B2032E28D0F6B2032E25D0F8
:102D1000F6B2042E22D0F6B2042E1FD0F6B2052E43
:102D20001CD0F6B2052E19D0F6B2072E16D0F6B288
:102D3000072E13D0F6B2072E10D0F6B20A2E0DD001
:102D4000F6B20B2E0AD0F6B20E2E07D0F6B20F2E28
:102D500004D040F20B211B4800F02FFBF6B215F017
:102D60000700C0B2800016FA00F00700ADB2E8100C
:102D700014EB8000ADB2E91014EB8101096A0F2257
:102D800015F00703DBB29B009A4091430162ADB29C
:102D9000E81014EB8000006A38438046ADB2E810BA
:102DA00014EB8000C0F82080BDE8F08100000240F4
:102DB0000004024000080240000C024000100240E3
:102DC00000140240888A000810B50400DFF8A00251
:102DD000844208D0DFF89C02844204D08D21DFF8C1
:102DE000980200F0EAFADFF8880284420AD1012151
:102DF0004FF48050FFF79AFD00214FF48050FFF709
:102E000095FD0DE0DFF86C02844209D101214FF4F9
:102E10008040FFF7B7FD00214FF48040FFF7B2FD7F
:102E200010BD70B504000D000026DFF84402844296
:102E300008D0DFF84002844204D0AF21DFF8380226
:102E400000F0BBFA2888002810D02888B0F5806FE1
:102E50000CD02888B0F5004F08D02888B0F5404F36
:102E600004D0B221DFF8100200F0A7FA6888B0F5AC
:102E7000827F07D06888002804D0B321DFF8F801EA
:102E800000F09BFAA888B0F5006F07D0A88800284A
:102E900004D0B421DFF8E00100F08FFAE8880028C0
:102EA00007D0E888022804D0B521DFF8CC0100F073
:102EB00084FA2889002807D02889012804D0B6215F
:102EC000DFF8B40100F079FA6889B0F5007F07D027
:102ED0006889002804D0B721DFF89C0100F06DFA62
:102EE000A889002819D0A889082816D0A8891028F0
:102EF00013D0A889182810D0A88920280DD0A88917
:102F000028280AD0A889302807D0A889382804D0D2
:102F1000B821DFF8640100F050FAE889002807D0F2
:102F2000E889802804D0B921DFF84C0100F045FA87
:102F3000288A002804D1BA21DFF83C0100F03DFACC
:102F40002088060016F44156288869880843A98815
:102F50000843E98808432989084369890843A989FE
:102F60000843E989084306432680288A208270BDE9
:102F700038B504000D00DFF8F800844208D0DFF80F
:102F8000F400844204D0FB21DFF8EC0000F015FAD5
:102F9000EDB2002D07D0EDB2012D04D0FC21DFF8F9
:102FA000D80000F00AFAEDB2002D04D0208850F0CD
:102FB0004000208004E020884FF6BF710840208048
:102FC00031BD10B50400DFF8A800844209D0DFF855
:102FD000A400844205D04FF4C671DFF89C0000F0D5
:102FE000ECF9A08910BD38B504000D00DFF88000B1
:102FF000844209D0DFF87C00844205D040F29B1166
:10300000DFF8740000F0D9F9A58131BD70B5040076
:103010000D0000261648844207D01648844204D08A
:1030200040F2EB21144800F0C8F9ADB2802D13D066
:10303000ADB2402D10D0ADB2202D0DD0ADB2102DBF
:103040000AD0ADB2022D07D0ADB2012D04D04FF49D
:103050003B71094800F0B1F92089284202D00120D3
:10306000060001E0002006003000C0B270BD000084
:103070000030014000380040F88B00080EB400B565
:1030800082B003A90091024600AB012103487844B5
:103090000A3000F0ABF906BC5DF810FBAD6700002C
:1030A00010B582B00400E4B2602C33D0E4B2612CDD
:1030B00030D0E4B2622C2DD0E4B2632C2AD0E4B23A
:1030C000642C27D0E4B2652C24D0E4B2662C21D045
:1030D000E4B2672C1ED0E4B2682C1BD0E4B2692C99
:1030E00018D0E4B26A2C15D0E4B26B2C12D0E4B242
:1030F0006C2C0FD0E4B26D2C0CD0E4B2702C09D043
:10310000E4B2712C06D0E4B2722C03D06B210648D5
:10311000FEF754FE2000C0B2FEF7E6FB0090034825
:10312000BDF80010018013BD24900008EC090020B8
:103130004268C2F30A5240F2FF739A4209D14168D1
:10314000090304BF0068002801D101207047022054
:10315000704743685B0004BF0368002B25D040F232
:1031600033439A1A521A012A1FDB352A06DB4168BB
:1031700001F0004141600021016013E0012102F0F3
:103180001F039940491E920607D5426811404A40E4
:10319000426002681143002202E0026811404A4086
:1031A000026011B14FF0FF307047002070470303F9
:1031B00070B44FF0004591EA030C44BF6B4000F03F
:1031C000EBBF00BF841A71EB030603D2001BB141B1
:1031D000121973414FF4001C1CEB410F34BF7CEB00
:1031E000430443E00C0DA4EB1356352E50DC45EAA6
:1031F000C323DB0A45EAC121C912B6F120050DDD62
:1032000063FA05F6EB4086EA0305124218BF45F063
:103210000105C01851F100010CD213E062FA06F565
:10322000F2405540F3415A40B340F3405A408018B1
:10323000594107D349085FEA30005FEA350528BFE6
:1032400045F0010501F58011420875F1004250F189
:10325000000041EB045170BC4FF4001C1CEB410F0B
:1032600038BF70470020090D090570471CEB410F5E
:1032700010D252EA43060BD0BCEB410F05D80C0D1F
:10328000AB43661E342EB5DD02E0AB4380185941D6
:1032900070BC704770BC704780B5202001F0A5F865
:1032A00000280DD0042001F0D0F9002805D04748AF
:1032B00001210170012001F0ADFA202001F0E5F8B4
:1032C00001BD80B500215FF0006001F00FFB01211E
:1032D0000720FFF7A1FAFFF77FF901F07EFB04203A
:1032E00001F01EFB002001F039FA012001F036FA4E
:1032F0000221012001F09AFBFEF7D2F801F02CFC2C
:1033000001F031FC01F059FF0121002001F08EFB9A
:1033100001230F220F21002001F00AFC2C4801F0AC
:1033200073FF2C48FCF7FEFE2B4802F0F3F82B4805
:1033300002F072FA2A4801F0C3F80121042001F0DA
:10334000D3F8142002F0FCFA002002F053FB012015
:1033500002F01CFB01F06CF902F086FB2148002111
:1033600001702048002141704FF47A7001F03EFB5B
:10337000002001F04FFA7220FFF792FE1949142045
:10338000FEF711FBFEF7E8FE6020FFF789FE0F480D
:1033900000780028FBD00D480021017011484078CA
:1033A000401C104948700F4840780028DCD10D4877
:1033B0000078401C0B490870D6E738B504000D00B2
:1033C0002A0021000848FFF759FEFEE70C0A0020FA
:1033D0006001002050000020EC000020400100208F
:1033E000B0090020D8000020D09600082DE9F04F49
:1033F000A1B0824602AE002017461D4602917062BF
:103400000DF144080AE017F8011B0298D04702901A
:10341000002800F0DA82706A401C7062387808B9BF
:10342000706AD4E22528EED10020F060306170612E
:10343000B061F061306201E040F0010017F8011F57
:103440002029F9D023290DD02B2904D02D2906D0ED
:1034500030290AD00CE040F0020080B2EEE740F0E4
:103460000400FAE740F00800F7E740F01000F4E746
:103470002A290DD129680A1D2A600968F1620029EC
:1034800004D5494240F00400F16280B27F1C13E091
:103490000021F1620BE0F16A6FF00043994205D020
:1034A00001EB810302EB43013039F1627F1C3A7872
:1034B000A2F130010A29EED339782E2903D04FF03A
:1034C000FF31B1621EE017F8011F2A2906D12968D1
:1034D0000A1D2A607F1C0968B16213E00021B162F5
:1034E0000BE0B16A6FF00043994205D001EB810314
:1034F00002EB43013039B1627F1C3A78A2F130010E
:103500000A29EED330860FF66040397802F0FAFAD5
:1035100008B117F8010B8DF83A009DF83A006828B9
:1035200002BF39786829622005D06C2804BF38783A
:103530006C2803D171208DF83A007F1C11A8B0606F
:103540003978B1F1250029D01C3800F0C080001F67
:10355000022840F2BC80133800F0E480093800F003
:10356000B680801E00F07781401E00F02081401E52
:10357000022840F2AC80001F00F01981401F7BD070
:10358000401E00F0CF80401E22D0C01E0BD0801EF7
:1035900000F0C880C01E00F0C58064E1F068411CE6
:1035A000F160252169E12868011D29600068B26A7F
:1035B0007060002A02D502F0B1FA07E0002102F0A3
:1035C000C9FA00281ABF7168401AB06A306156E122
:1035D0002868011D296000210068CDE900014FF035
:1035E0003C0E11A87060DDE9000111B908B9B26A9A
:1035F000CAB10206120FA0EB02123032AEF1010383
:10360000D2B29E463A2AA8BF2732000903F8082002
:1036100040EA0170090908BF002804D0726811ABA4
:1036200073449A42E5D311A971447160CEF13C0014
:10363000B16A3061884207DA081AB0614FF6EF715B
:10364000308E084030861AE1002940F1188196F842
:10365000301001F01401102940F01181F16AF26874
:10366000891AB269891AA1EB000EBEF1010FC0F2EE
:103670000681C6F818E002E19DF83A00622818D0E9
:10368000682806D06A280BD06C2819D0712807D07A
:1036900016E02868011D29600068716A0180EEE06B
:1036A0002A68101D28601268706AC117C2E90001FB
:1036B000E5E02868011D29600068716A0170DEE09C
:1036C0002868011D29600068716A0160D7E02868D8
:1036D000C01D20F00700286000F108022A60D0E930
:1036E0000023CDE90023002B04D5F068421CF260D2
:1036F0002D220DE0308E820704D5F068421CF26066
:103700002B2205E0C00705D5F068421CF26020229C
:1037100000F80820F06811AA8018706000A800F076
:10372000E3F9ACE09DF83A006C2808BF2A6811D094
:10373000712808BF2A6802D02A686A280AD1D21DD7
:1037400022F007022A60144604F108022A60D4E934
:10375000002303E0131D2B6000231268CDE9002332
:10376000682808BF92B207D0622808BFD2B203D03F
:10377000742818BF7A2802D10023CDE9002396F8D7
:10378000300000075FD5DDE90023002B08BF002AC9
:1037900059D041F02000782855D1F068302200F847
:1037A0000820401C421CF26000F808104BE09DF815
:1037B0003A0062280CD0682810D06A281AD06C28E9
:1037C00023D0712816D074281FD07A280CD01CE082
:1037D0002868021D2A6090F900201AE02868021D5E
:1037E0002A60B0F9002014E02868021D2A60002336
:1037F00002680FE02868C01D20F00700286000F173
:1038000008022A60D0E9002304E02868021D2A602B
:103810000268D317CDE90023002B04DAF068421CBC
:10382000F2602D220DE0308E820704D5F068421C34
:10383000F2602B2205E0C00705D5F068421CF2605B
:10384000202200F80820F06811AA8018706000A8F3
:1038500000F0C0F813E0F068411CF16029680A1D0F
:103860002A60096809E0F068421CF260252200F82D
:10387000082021B1F068421CF26000F80810F06ADC
:10388000F168401AB169401A3169401AF169401A69
:103890007169401A316AA0EB010996F830007F1C6B
:1038A000400710D420208DF84000002409E00123B7
:1038B00010AA00A9504600F040FC002840F0858086
:1038C000641C4C45F3DBF4680DF1440B0AE01BF873
:1038D000011B0298D0470290002876D0706A401CE5
:1038E0007062641E002CF2D130208DF840004FF041
:1038F000000BB46909E0012310AA00A9504600F0AA
:103900001CFC002861D10BF1010BA345F3DB3469EA
:10391000D6F804B00AE01BF8011B0298D0470290C9
:10392000002852D0706A401C7062641E002CF2D1D4
:1039300030208DF840004FF0000BF46909E00123BE
:1039400010AA00A9504600F0F8FB00283DD10BF169
:10395000010BA345F3DB30697168746900EB010B5F
:1039600009E01BF8011B0298D047029068B3706A07
:10397000401C7062641E002CF3D130208DF8400092
:103980004FF0000B346A08E0012310AA00A950464A
:1039900000F0D3FBC8B90BF1010BA345F4DB96F89B
:1039A000300040077FF53AAD20208DF8400000241C
:1039B00000E0641C4C45BFF631AD012310AA00A9FC
:1039C000504600F0BAFB0028F3D04FF0FF3021B092
:1039D000BDE8F08F2DE9FA47064682B035690A4600
:1039E0006F2A08BF082705D041F02000782814BFAF
:1039F0000A271027D6E900013C2480468946642A1C
:103A000018BF692A05D1002903DAD8F1000869EB4B
:103A10004909B9F1000F08BFB8F1000F0CD1306BA4
:103A200050B9082F3BD196F83800000737D5302021
:103A30003B2485F83B0032E0CDE90089FB17404686
:103A400049463A4602F0B2F8B846A8FB0023DDE941
:103A50000089A8EB02023032A4F1010AD2B2544626
:103A60003A2A03DB9DF80830513B9A180AF80520E2
:103A700080465FEA010908BFB8F1000F03D0F06883
:103A800061198842D8D3082F09D196F83800000769
:103A900005D5605D302802D0641E30206055C4F129
:103AA0003C00B0616119F160316B884207DA081A95
:103AB00030624FF6EF71308F0840308710E00029F8
:103AC0000ED596F8381001F01401102908D1716B49
:103AD0007269891A326A891A081A0128A8BF3062E5
:103AE00004B0BDE8F08700002DE9F24F04468EB027
:103AF000D4E90001CDE9020104AE9DF8380040F0A0
:103B00002000009061280AD0206B002848BF0620C2
:103B100004D404BF0098672801D1012020636168A4
:103B2000C1F30A5040F2FF7290421CD1080304BF57
:103B30002068002809D10320A0619DF83800613871
:103B40001A2836D30FF2346108E00320A0619DF8F3
:103B5000380061381A2829D30FF21861E06803226F
:103B600002F09CF8B5E1012816DA204602F0D1F8FF
:103B7000012811DB002700200099612920D1E1688C
:103B8000302201F8012B4A1CE2609DF83820612A9E
:103B90000CBF782258220FE0626840F2FE3161F3D8
:103BA0001E52471A62604FF0FF30E5E70FF2C05136
:103BB000D4E70FF2C451D1E70A706169891C6161D1
:103BC00010B9002500277BE10098612840F096801D
:103BD000206B00284CBF2125451CDDE902012DB2D8
:103BE0006E1CD4E900890022002302F0B3F83ABF2A
:103BF00089F00040CDE90280CDE902893F1F8DF8B0
:103C000010200DF1110801E000F20708012E32DB4F
:103C1000DDE902010022002302F0B4F82BD21C21BE
:103C200002A802F0C7F8DDE90201FEF79BF8F61FD3
:103C30008146012E09DBFDF743FF02460B46DDE915
:103C4000020100F09FFACDE9020108F20700072106
:103C500005E009F00F0200F8012D4FEA2919B9F12A
:103C6000010F01DB491EF4D5491E5CBF002200F89C
:103C7000012DF9D5C8E70DF11100A8EB00010DF1F8
:103C80001106A942B8BF0D462DB228002FD4884294
:103C900006DA04A9411849780829A8BF0F2100DADB
:103CA000002104AA821800E06D1E12F80139401E9E
:103CB0008B42F9D00F2904D104A941184A78521C2B
:103CC0004A70002802D504AE6D1C3F1D2DB2681E3F
:103CD0000DD481190A783032D2B23A2A03DB9DF82A
:103CE00038303A3B9A1801F80129401EF2D5206B72
:103CF000002840F1E580681E2063E1E0DDE9020173
:103D00000022002302F026F83CBF81F00041CDE9FB
:103D100002013FB247F2975078434849DFF820B19B
:103D200090FBF1F73FB2C7F107069246012E19DB6F
:103D3000DDE90289F00707D552465B464046494611
:103D4000FEF746FB80468946761050465946524655
:103D50005B46FEF73DFB82468B46002EEAD1CDE95D
:103D6000028921E076429046DFF8D89012E0F00711
:103D700007D552465B4640464946FEF729FB80463A
:103D8000894676105046594652465B46FEF720FB60
:103D900082468B46002EEAD1DDE9020142464B46BF
:103DA000FDF7A6FECDE90201009866280CBF07F1D9
:103DB0000A000620216B4518142DA8BF13253020BA
:103DC0008DF810000DF11106DFF87C90012D3DDB20
:103DD000DDE90201FDF7DCFF06F1080104220A23F8
:103DE000B0FBF3F303EB8306A0EB4600303001F8A1
:103DF000010D0A20B3FBF0F000EB8006A3EB4603B5
:103E0000303301F8013D521EE9D1083D01F10806A9
:103E1000012DDBDBDDE90201FDF7BAFFFDF75AFEFC
:103E200002460B46DDE9020100F0ACF900224B46E8
:103E3000FEF7CEFACDE90201CAE700BFA086010075
:103E4000000024400000F03F84D797410DF111009D
:103E5000301A0DF1110602E0401E7F1E761C3178EB
:103E60003029F9D00099662902D13FB2791C03E0CC
:103E700065290CBF01210021226B8D182DB2A842AB
:103E8000B8BF05462DB229001AD4814204DA885DF4
:103E90003528A8BF392000DA30208A19521E00E0E8
:103EA0006D1E12F80139491E8342F9D0392802D11A
:103EB000885D401C8855002902D5761E6D1C7F1C2C
:103EC0003FB29DF8381000972BB23246204600F0E2
:103ED00003F80FB0BDE8F08F2DE9F043054685B03B
:103EE0001E46D5F8308089461746012E02DA012693
:103EF0000FF28C2749F02000BDF93040662808BF3A
:103F0000641C17D0672840F0818014F1040FC0F2C0
:103F10008380444580F2808095F83800641C000757
:103F200002D44645B8BFB04624B2B8EB040848BF37
:103F30004FF00008E868A96924B2012C25DA302383
:103F40004A1C0B54B8F1010F03DA95F83810090731
:103F500002D52E211154521CAA6118EB040FB8BFD0
:103F6000C8F1000424B26142A0446962B045B8BF00
:103F7000464636B2EE613246AB693946181801F052
:103F80008DFEA8EB0600A862C0E00818A64218DA69
:103F90003246394601F082FEA9697118A961A01B59
:103FA0006862B8F1010F03DA95F83800000705D50B
:103FB000E8682E220A54E869401CE861C5F82880A8
:103FC000A4E02246394601F069FEA8692018361B94
:103FD000B8F1010F03DA95F83810090703D5E9683D
:103FE0002E224254401C36B2A861B045B8BF4646A6
:103FF000EB6836B23246E119C01801F04FFEA869ED
:104000003018A861A8EB060068627FE0B9F1610F83
:1040100016D14FF0700918E0464504DA95F83810CB
:10402000090758BFB046B8F1010848BF4FF0000873
:10403000B9F1670F14BF4FF045094FF0650904E06F
:10404000B9F1410F08BF4FF05009A969E86817F8A6
:10405000013B0B544A1CB8F1010F05DA95F83810F2
:10406000090758BFAA6117D52E211154531CAB6103
:10407000B8F1010F10DB761E36B2B045B8BF464628
:1040800036B232463946181801F008FEA8693018D1
:10409000A861A8EB06006862A869E96847182000D3
:1040A00007F8019B03D42B2007F8010B03E02D2117
:1040B00007F8011B644200260DF1080808E00A22F7
:1040C00000A801F0FDFE019808F8010B761C009C89
:1040D00021B20129F3DA022E06DA49F02000652820
:1040E00004BF302007F8010B4EB9302007F8010B50
:1040F00007E0761E02A8305C303007F8010B012E75
:10410000F7DAA869E9684018381AE86195F83800C4
:1041100000F0140010280DD16869A9690818696AAF
:104120000818E9690818A96A0818696B8842BCBFB1
:10413000081A286205B0BDE8F083F8B504460D46BC
:1041400016461F46002004E0E86A401CE8627F1E15
:10415000002047B116F8011BA868A047A8600028F6
:10416000F2D14FF0FF30F2BD686A6C747A4C0000F7
:104170006E616E004E414E00696E6600494E46000B
:104180003000000170B44FF0004591EA030F44BFC6
:104190006B40FFF717B800BF841A71EB030604D217
:1041A0006E40001BB141121973414FF4001C1CEB0F
:1041B000410F34BF7CEB430684E00C0DA4EB135697
:1041C000362E7DDC012E43DC45EAC32343EA5253FD
:1041D00012BFD20292025B08240545EAC12141EADE
:1041E0005051D2EBC020994125D407D1B0FA80F6C6
:1041F00010FA06F164D00020203608E0B1FA81F60A
:10420000B140C6F1200220FA02F21143B0404FEA59
:10421000F474B4EB465434F001064FEA74040AD83F
:10422000D6F50016760D04F00044F04061FA06F26F
:104230005040F1404840C00A40EA415021F000415E
:1042400028BF5FEA500550F1000044EBD12137E070
:1042500045EAC323DB0A45EAC121C90AB6F12005B4
:104260000EDD42EA0242120CC5F1200603FA06F600
:10427000EB4042EA06056D42984161F100010DE014
:1042800062FA06F5F240554063FA06FC82EA0C0237
:10429000F3405A406D42904161EB030111F4801FDD
:1042A00005D1641E620502D06D004041494121F4F0
:1042B0008011430875F1004350F1000041EB0451B7
:1042C00070BC70471CEB410F15D223F0004352EA3B
:1042D00043060BD04FEA4C0CBCEB410F04D80C0D3D
:1042E000661E342EB7DDEBE7801A994150EA41068D
:1042F00008BF0021E4E708BF1CEB430F28BF6FF0A5
:104300000001DDE738B5040000252079002806D03B
:104310002079042803D081216848FFF74EF860799E
:10432000082809D060790C2806D06079102803D0BD
:1043300082216248FFF741F82068C00DC0050028BF
:1043400002D12068002803D183215C48FFF735F8AB
:10435000A079002806D0A079012803D084215748ED
:10436000FFF72BF850480500A079002836D04E48BA
:104370000068216888434C4908604C4800682168FF
:1043800088434A490860207945192868216808430C
:1043900028604748006821688843454908604548C7
:1043A00000682168884343490860607910280CD16F
:1043B0003F480068216808433D4908603D4800685F
:1043C000216808433B4908600EE0374805006079E2
:1043D0004519286821680843286005E020794519B7
:1043E000286821688843286031BD38B5040000255D
:1043F000012C3ED0022C3CD0042C3AD0082C38D0D2
:10440000102C36D0202C34D0402C32D0802C30D000
:10441000B4F5807F2DD0B4F5007F2AD0B4F5806F3D
:1044200027D0B4F5006F24D0B4F5805F21D0B4F567
:10443000005F1ED0B4F5804F1BD0B4F5004F18D0EC
:10444000B4F5803F15D0B4F5003F12D0B4F5802FFD
:104450000FD0B4F5002F0CD0B4F5801F09D0B4F5FF
:10446000001F06D0B4F5800F03D0E6211348FEF7F5
:10447000A4FF11480068204202D00120050001E09D
:10448000002005002800C0B232BD10B50400E00DC8
:10449000C005002801D1002C03D1FC210748FEF7FC
:1044A0008CFF0548046010BD000401400404014075
:1044B000080401400C04014014040140D0890008A4
:1044C0001CB5040000A800210160002C01D00020D0
:1044D000206000AA04219020FDF7E0F801909D489B
:1044E000BDF80410018013BD7CB504000D0000264A
:1044F000012C5AD0022C58D0042C56D0082C54D061
:10450000102C52D0202C50D0402C4ED0802C4CD08F
:10451000B4F5807F49D0B4F5007F46D0B4F5806F04
:1045200043D0B4F5006F40D0B4F5805F3DD0B4F512
:10453000005F3AD0B4F5804F37D0B4F5004F34D097
:10454000B4F5803F31D0B4F5003F2ED0B4F5802FC4
:104550002BD0B4F5002F28D0B4F5801F25D0B4F5AA
:10456000001F22D0B4F5800F1FD0B4F5000F1CD06F
:10457000B4F1807F19D0B4F1007F16D0B4F1806F10
:1045800013D0B4F1006F10D0B4F1805F0DD0B4F14E
:10459000005F0AD0B4F1804F07D07FF00040844222
:1045A00003D0A8216C48FDF709FCEDB2002D06D020
:1045B000EDB2012D03D0A9216748FDF7FFFB00AA4A
:1045C00004219020FDF7FFF801906248BDF8041027
:1045D00001800020C0B204280ADAC0B200A9415C00
:1045E000D0F10302D2B2D20091408E19401CF1E703
:1045F000EDB2002D01D1A64300E026430020C0B259
:1046000004280ADAD0F10301C9B2C90036FA01F16F
:10461000C0B200AA8154401CF1E700AA04219020F6
:10462000FDF73CF801904B48BDF80410018073BDC4
:1046300000B583B001AA0421FA20FDF7C4F8009068
:104640004448BDF80010018007BD7CB50400002679
:10465000012C5BD0022C59D0042C57D0082C55D0FB
:10466000102C53D0202C51D0402C4FD0802C4DD02A
:10467000B4F5807F4AD0B4F5007F47D0B4F5806FA1
:1046800044D0B4F5006F41D0B4F5805F3ED0B4F5AE
:10469000005F3BD0B4F5804F38D0B4F5004F35D033
:1046A000B4F5803F32D0B4F5003F2FD0B4F5802F61
:1046B0002CD0B4F5002F29D0B4F5801F26D0B4F546
:1046C000001F23D0B4F5800F20D0B4F5000F1DD00B
:1046D000B4F1807F1AD0B4F1007F17D0B4F1806FAD
:1046E00014D0B4F1006F11D0B4F1805F0ED0B4F1EA
:1046F000005F0BD0B4F1804F08D07FF000408442BF
:1047000004D04FF495711448FDF758FB00AA04211A
:10471000FA20FDF758F801900E48BDF8041001800A
:104720000020C0B204280ADAC0B200A9415CD0F16E
:104730000302D2B2D20091408E19401CF1E726420A
:1047400002D00120050001E0002005002800C0B2D1
:1047500076BD0000EC090020C09200081CB50400E2
:10476000FDF7B3FF354911EBC00035490860FDF78F
:10477000ACFF344911EB800033490860FDF7A5FF19
:10478000324911EBC000324908600121E4B23048DF
:10479000006850F82400FEF73FF8E4B22A480068A9
:1047A00030F81400009001208DF8040000208DF8EE
:1047B000060000208DF8070003208DF8050000A9F1
:1047C000E4B21F48006850F82400FEF721F9FDF715
:1047D0007CFF002803D0FDF778FF01280AD1E4B25E
:1047E0001748006850F82400E4B21749096831F806
:1047F00014100183FDF769FF02280AD1E4B21048C2
:10480000006850F82400E4B20F49096831F8141028
:10481000018313BDC0B20A49096851F82010898A82
:10482000C0B2094A126832F810205140C0B2044A9E
:10483000126852F82020918270470000C0000020CA
:10484000B409002094980008B809002030980008A6
:10485000BC090020F8B50400002500260F27E078E9
:10486000002806D0E078012803D08C213A48FEF7D2
:10487000A4FD6078102803DB8D213748FEF79DFDED
:10488000A078102803DB8E213348FEF796FDE078F0
:10489000002820D03148006810F4E060D0F5E060D6
:1048A000000A0500D5F104000600EF406078B04032
:1048B0000500A078384005432D012078284945544B
:1048C0002078401127490122237813F01F039A40D2
:1048D00041F8202009E02078401123490122237863
:1048E00013F01F039A4041F82020F1BD38B50400B1
:1048F0000D00B4F1005F06D0B4F1006F03D0B52114
:104900001548FEF75AFD1948854203D3B6211248CF
:10491000FEF753FD1648284020431649086031BD74
:1049200010B50400042C06D014F1050F03D0E121CA
:104930000948FEF742FD042C06D10F48006850F0EC
:1049400004000D49086005E00B48006830F00400E1
:104950000949086010BD00001C8E00080CED00E045
:1049600000E400E000E100E080E100E0FFFF010082
:1049700080FFFF1F08ED00E010E000E040B20028DB
:1049800008D540B210F00F02224BD2180B0102F8EA
:10499000043C03E040B2204A0B018354704710B539
:1049A0000400601EB0F1807F01D301200EE0601E84
:1049B0001A4908600F215FF0FF30FFF7DFFF18484A
:1049C00000210160174807210160002010BD164832
:1049D0000068401C14490860704780B54FF4FA40E5
:1049E000FFF7DDFF10480021016001BD0E49096895
:1049F000C943814206D20C4A126812F1010FFAD162
:104A0000411A01E0C9430918074A12688A42FBD1DA
:104A10007047000018ED00E000E400E014E000E062
:104A200018E000E010E000E0CC0900207FB50400B1
:104A30000D000026E4B2002C06D0E4B2012C03D015
:104A4000D5215248FEF7B9FCEDB2002D09D0EDB2E8
:104A5000012D06D0EDB2022D03D0D6214B48FEF732
:104A6000ACFCFDF732FE0121E4B2C0B24010484A6E
:104A700012EBC00050F82400FDF7CEFE012101200A
:104A8000FDF7F8FEEDB2022D03D101208DF80400F0
:104A900002E000208DF80400E4B23E48205C8DF86E
:104AA0000700E4B23C48205C8DF80500E4B23B48C6
:104AB000205C8DF80600E4B2394830F8140000900C
:104AC000FDF703FE00A9E4B2C0B24010354A12EB74
:104AD000C00050F82400FDF79BFFE4B2324850F8C4
:104AE00024000290E4B23148205C8DF80C00E4B25E
:104AF0002F48205C8DF80D008DF80E60EDB2012D71
:104B00000FD1FDF7E2FDE4B22A49615CE4B2C0B224
:104B1000294A12EB6000205C01F0FCF901208DF8BD
:104B20000E00E4B2012C02D002A8FFF7EBFB7FBD20
:104B3000F8B504000D0016001F00E4B21F48205C09
:104B40008DF800008DF801508DF802608DF803702B
:104B500000A8FFF77FFEF1BD80B54FF40051184863
:104B6000FEF70EF801BD80B54FF400511448FEF772
:104B700033F8002000900098B0F5F05F03D2009861
:104B8000401C0090F7E701BD00000000AC94000855
:104B90007498000882410008AE3100081A5B0008D2
:104BA000C0980008FC000020C49800089B5C000826
:104BB000825D00089A5C0008525B0008835D000873
:104BC0000008024080B51021DFF8FC0501F02BFC45
:104BD000002809D0DFF8F405012101701021DFF869
:104BE000E80501F07AFC0FE00421DFF8DC0501F0B4
:104BF0001AFC002808D0DFF8D40501210170042137
:104C0000DFF8C40501F069FC01BD80B51021DFF8B3
:104C1000C00501F008FC002809D0DFF8B00501212B
:104C200001701021DFF8A80501F057FC0FE0042106
:104C3000DFF89C0501F0F7FB002808D0DFF88C05B1
:104C4000012101700421DFF8880501F046FC01BD57
:104C50002DE9F04F8FB0DFF870058146DFF874055D
:104C6000069001210220FDF733FE01210220FDF70D
:104C7000D3FD5FF00008002400250020ADF80C00F3
:104C80000020ADF8000000200590002602208DF8DD
:104C9000200003208DF8210000208DF82200012043
:104CA0008DF823002020079007A90698FDF7B0FE95
:104CB000022205210698FDF7B3FF0420ADF8240079
:104CC0000020ADF826000120ADF828000C20ADF83A
:104CD0002A000020ADF82C0009A9484601F0E4F9AB
:104CE0000121484601F096F901220421484601F0CD
:104CF0004DFB1D208DF808000F208DF809000F20B6
:104D00008DF80A0001208DF80B0002A8FFF7A2FD24
:104D1000FCF7BFFB002808D029208DF803000DF117
:104D200003020121B420FCF7B9FCDFF8AC040068F1
:104D30000D900DA800F082FBDFF8A00400680C9035
:104D40000CA800F061FA012000F047FB0027302F8B
:104D50006DD2DFF87804007800280BD1BDF8000090
:104D60004FF6FF71884205D0BDF80000401CADF839
:104D70000000EEE7BDF800004FF6FF71884256D004
:104D80000020ADF80000DFF8440400210170082F76
:104D90004BD35FFA88F8B8F1000F06D1484601F00E
:104DA0000CFA0400012080463FE05FFA88F8B8F171
:104DB000010F3AD1484601F000FA0500A4B2ADB2A5
:104DC000AC4204D2281B401EADF80C0004E0604247
:104DD0002818801EADF80C00DFF804040068BDF848
:104DE0000C10B0FBF1F00590300001F041FC01F037
:104DF0004FFCDFF8F023DFF8F033FDF7E9FA8246E5
:104E00008B46059801F034FC01F042FC5FF0333230
:104E1000DFF8D833FDF7DCFA52465B46FEF7C8F9F7
:104E2000FCF7B6FF0600002080467F1C8FE74FF49A
:104E3000C0604643002000F0D0FA0021484601F04F
:104E4000E9F800220421484601F0A0FA00210520DB
:104E500000F07AFAFCF71DFB002808D021208DF81D
:104E600002000DF102020121B420FCF717FC300012
:104E700001F0FEFB01F00CFC0022DFF87433FCF7BC
:104E800037FE01F02DFC0190019801F071FC01F05A
:104E9000EFFB0100019801F07DFCD64901F0EEFC2A
:104EA00007D8019801F064FC401CD34948430490A2
:104EB00005E0019801F05CFCCF49484304900021D3
:104EC0000020FFF7B3FD0498FCF7C3FA04980FB075
:104ED000BDE8F08F2DE9F04F8DB0BB488146BD484D
:104EE000059001210220FDF7F3FC01210220FDF7CE
:104EF00093FC5FF00008002400250020ADF80200BC
:104F00000020ADF8000000200390002602208DF85C
:104F10001C0003208DF81D0000208DF81E000120CC
:104F20008DF81F002020069006A90598FDF770FD5A
:104F3000022205210598FDF773FE0420ADF820003C
:104F40000020ADF822000120ADF824000C20ADF8BF
:104F500026000020ADF8280008A9484601F0A4F872
:104F60000121484601F056F801220421484601F08B
:104F70000DFA1D208DF808000F208DF809000F2074
:104F80008DF80A0001208DF80B0002A8FFF762FCE3
:104F90009A4800680C900CA800F050FA98480068F5
:104FA0000B900BA800F030F9012000F016FA002752
:104FB000302F67D28548007800280BD1BDF800005B
:104FC0004FF6FF71884205D0BDF80000401CADF8D7
:104FD0000000EFE7BDF800004FF6FF71884251D0A6
:104FE0000020ADF80000794800210170082F47D358
:104FF0005FFA88F8B8F1000F06D1484601F0DDF8F5
:105000000400012080463BE05FFA88F8B8F1010F08
:1050100036D1484601F0D1F80500A4B2ADB2AC4299
:1050200004D2281B401EADF8020004E0604228189C
:10503000801EADF802006A480068BDF80210B0FB9F
:10504000F1F00390300001F013FB01F021FB654A01
:10505000654BFDF7BDF982468B46039801F008FBCE
:1050600001F016FB5FF03332604BFDF7B1F95246A9
:105070005B46FEF79DF8FCF78BFE0600002080469D
:105080007F1C95E74FF4C0604643002000F0A5F96F
:105090000021484600F0BEFF00220421484601F0EE
:1050A00075F90021052000F04FF9300001F0E0FA19
:1050B00001F0EEFA00224E4BFCF71AFD01F010FB56
:1050C0000190019801F054FB01F0D2FA010001981F
:1050D00001F060FB474901F0D1FB07D8019801F0CE
:1050E00047FB401C44494843049005E0019801F007
:1050F0003FFB41494843049000210020FFF796FC04
:1051000004980DB0BDE8F08F70B582B0FCF7AAF935
:105110000400002003280DDA3A4931F82010A4B227
:105120008C4205D1374911EB80008078050001E001
:10513000401CEFE7FFF7CEFE2F49B0FBF1F6EDB2D2
:10514000012D2FD1F6B2182E24DBF6B21B2E21DA58
:1051500029208DF8000000AA0121B420FCF79EFA56
:10516000FFF7B8FE2449B0FBF1F00600F6B2182EA6
:1051700005DBF6B21B2E02DA0020050001E001205B
:10518000050021208DF8000000AA0121B420FCF7C1
:1051900085FA07E0F6B20C2E04DBF6B20E2E01DA29
:1051A00001200500FDF791FA022801D10320050036
:1051B0002800C0B2FCF76AF973BD80B5FFF7A4FF01
:1051C000FFF746FD01BD000000040040100A00206A
:1051D0000008004000040240DC980008E098000845
:1051E000680100209A9999999999D93F3333E33FFF
:1051F00080842E410100003F40420F00E4980008E7
:10520000E8980008A09800081CB5040000208DF85C
:1052100000002078052804D06D21DFF8F002FCF7AB
:10522000CDFD607801280AD06078022807D0607828
:10523000032804D06E21DFF8D402FCF7BFFDA0786C
:10524000002870D0A07808286DD0A07810286AD0E7
:10525000A078182867D0A078202864D0A0782828C3
:1052600061D0A07830285ED0A07838285BD0A078B4
:10527000402858D0A078482855D0A078502852D03F
:10528000A07858284FD0A07860284CD0A078682803
:1052900049D0A078702846D0A078782843D0A0784C
:1052A000802840D0A07888283DD0A07890283AD097
:1052B000A078982837D0A078A02834D0A078A82843
:1052C00031D0A078B0282ED0A078B8282BD0A078E4
:1052D000C02828D0A078C82825D0A078D02822D0EF
:1052E000A078D8281FD0A078E0281CD0A078E82883
:1052F00019D0A078F02816D0A078FF2813D0A07875
:10530000002810D0A07808280DD0A07810280AD046
:10531000A078182807D0A078202804D06F21DFF8C3
:10532000EC01FCF74BFD6078A17808438DF8000094
:1053300000AA01212078FCF7B1F90190DFF8D00133
:10534000BDF80410018013BD30B583B004000D001A
:1053500000208DF80000E4B2052C04D0AB21DFF86A
:10536000AC01FCF72BFDEDB2002D07D0EDB2012D05
:1053700004D0AC21DFF89401FCF720FD00AA012144
:105380002000C0B2FCF71FFA0190DFF88401BDF8DD
:10539000041001809DF8000010F004008DF800005A
:1053A000EDB2012D06D19DF8000050F09B008DF864
:1053B000000005E09DF8000050F0A3008DF800000B
:1053C00000AA01212000C0B2FCF768F90190DFF8C3
:1053D0004001BDF80410018037BD1CB50400E4B2E3
:1053E000002C06D0E4B2012C03D0F3214748FCF78F
:1053F000E5FC00AA01210620FCF7E5F901904448EC
:10540000BDF804100180E4B2002C06D09DF8000025
:1054100050F080008DF8000005E09DF8000010F0CD
:105420007F008DF8000000AA01210620FCF736F964
:1054300001903748BDF80410018013BD1CB504006D
:1054400000208DF800002078002831D02078022834
:105450002ED0207804282BD02078062828D0207839
:10546000082825D020780A2822D020780C281FD0A0
:1054700020780E281CD02078102819D020781228E7
:1054800016D02078142813D02078162810D0207831
:1054900018280DD020781A280AD020781C2807D088
:1054A00020781E2804D040F215111848FCF786FC1D
:1054B0006078002807D06078012804D04FF48B7101
:1054C0001248FCF77BFCA07800280DD0A07820289B
:1054D0000AD0A078402807D0A078602804D040F2F5
:1054E00017110A48FCF76AFC207861780843A17814
:1054F00008438DF8000000AA01210620FCF7CEF831
:1055000001900348BDF80410018013BD1C920008EF
:10551000EC09002030B583B004002078002861D069
:10552000207808285ED0207810285BD020781828B2
:1055300058D02078202855D02078282852D020789C
:1055400030284FD0207838284CD02078402849D0B7
:105550002078482846D02078502843D020785828F2
:1055600040D0207860283DD0207868283AD0207834
:10557000702837D02078782834D02078802831D00F
:10558000207888282ED0207890282BD02078982832
:1055900028D02078A02825D02078A82822D02078CC
:1055A000B0281FD02078B8281CD02078C02819D067
:1055B0002078C82816D02078D02813D02078D82872
:1055C00010D02078E0280DD02078E8280AD0207864
:1055D000F02807D02078F82804D06D21DFF8A40344
:1055E000FCF7ECFB607800280DD0607802280AD028
:1055F0006078042807D06078062804D06E21DFF890
:105600008403FCF7DBFBA07A002810D0A07A2028C6
:105610000DD0A07A40280AD0A07A602807D0A07ABE
:10562000802804D06F21DFF85C03FCF7C7FB607AA9
:10563000112804DB7021DFF84C03FCF7BFFB207A54
:10564000002807D0207A012804D07121DFF8340324
:10565000FCF7B4FB207B002807D0207B012804D076
:105660007221DFF82003FCF7A9FB607B002807D03C
:10567000607B012804D07321DFF80803FCF79EFB50
:10568000A07B002807D0A07B012804D07421DFF87C
:10569000F402FCF793FBE07A002810D0E07A0128AE
:1056A0000DD0E07A02280AD0E07A032807D0E07A09
:1056B000042804D07521DFF8CC02FCF77FFB00AA98
:1056C00001215120FCF77FF80190DFF8BC02BDF802
:1056D000041001809DF8000010F0DF008DF800003C
:1056E0009DF8000050F001008DF8000000AA012193
:1056F0005120FBF7D3FF0190DFF88C02BDF80410B6
:10570000018000AA01214F20FCF75DF80190DFF82D
:105710007802BDF8041001809DF8000010F0CF0061
:105720008DF8000000AA01214F20FBF7B7FF019080
:10573000DFF85402BDF804100180207B012803D15A
:1057400008208DF8000002E000208DF800009DF890
:105750000000E17A08438DF80000607A002803D148
:1057600001206072C0B200E0607A607A401E8DF85D
:105770000100207861780843217A08438DF80200FF
:10578000A07A8DF80300A07B012805D19DF80300C5
:1057900050F010008DF80300607B012805D19DF8C2
:1057A000030050F001008DF8030000AA042130200E
:1057B000FBF774FF00200500EDB2042D16DAEDB200
:1057C0006078C0B24008C0B2D0F10300854204DA6C
:1057D000EDB200A80021295406E06068EDB2E900AE
:1057E000C840EDB200A968546D1CE5E7A07A002816
:1057F00003D1002001F066F802E0012001F062F818
:1058000000AA04213620FBF749FF0190DFF8780158
:10581000BDF80410018037BD1CB5040020780028B5
:1058200008D02078012805D040F20D11DFF854018E
:10583000FCF7C4FAA078002808D0A078012805D089
:105840004FF48771DFF83C01FCF7B8FA20790028A3
:1058500008D02079012805D040F20F11DFF824018B
:10586000FCF7ACFA00AA01214F20FBF7ACFF019036
:10587000DFF81401BDF8041001802078012806D15A
:105880009DF8000050F002008DF8000005E09DF842
:10589000000010F0FD008DF80000A078012806D16E
:1058A0009DF8000050F004008DF8000005E09DF820
:1058B000000010F0FB008DF800002079012806D1CF
:1058C0009DF8000050F008008DF8000005E09DF8FC
:1058D000000010F0F7008DF8000000AA01214F2011
:1058E000FBF7DCFE01902848BDF8041001806079C8
:1058F0008DF80000E0788DF8010060788DF80200E6
:1059000000AA03214C20FBF7C9FE01901E48BDF8F8
:105910000410018013BD00B583B000AA012130201E
:10592000FBF751FF01901848BDF8041001809DF865
:1059300000001821084201D0012000E000200EBD27
:1059400030B583B004000025FFF7E5FF002801D043
:105950000120050000F0A4FF4019050028198DF86A
:105960000100A4B2ADB2281900128DF8000000AAFF
:1059700002213420FBF792FE01900348BDF8041089
:10598000018037BDCC900008EC0900201CB5040054
:10599000E4B2002C07D0E4B2012C04D08E21DFF851
:1059A000C000FCF70BFA00AA01213A20FBF70BFF1D
:1059B0000190DFF8B000BDF804100180E4B2012CC2
:1059C00006D19DF8000050F002008DF8000005E0BF
:1059D0009DF8000010F0FD008DF8000000AA0121E4
:1059E0003A20FBF75BFE0190DFF87800BDF8041069
:1059F000018013BD1CB50400E4B2002C0DD0E4B24C
:105A0000402C0AD0E4B2802C07D0E4B2C02C04D0E1
:105A1000DD21DFF84C00FCF7D1F900AA01213A2082
:105A2000FBF7D1FE0190DFF83C00BDF804100180C7
:105A30009DF8000010F03F008DF800009DF8000078
:105A400020438DF8000000AA01213A20FBF726FE32
:105A50000190DFF81000BDF80410018013BD0000B4
:105A600064930008EC09002000B587B04FF4007083
:105A7000009002208DF8040000208DF80600002020
:105A80008DF8070003208DF8050000A91B48FCF7DE
:105A9000BFFF4FF48060009002208DF804000020CA
:105AA0008DF8060000208DF8070003208DF8050012
:105AB00000A91248FCF7ACFF4FF4165002900020EA
:105AC000ADF80C000020ADF80E000020ADF810007D
:105AD0000020ADF814000C20ADF8120002A908480F
